:020000040800F2
:1000000078570024AD020008D94F0008714B000852
:10001000D14F000869080008096E000800000000C0
:1000200000000000000000000000000091540008E3
:10003000710800080000000051500008D954000861
:10004000CB020008CB020008CB020008CB0200085C
:10005000CB020008CB020008CB020008CB0200084C
:10006000CB020008CB020008CB020008CB0200083C
:10007000CB020008CB020008CB020008CB0200082C
:10008000CB020008CB020008CB020008CB0200081C
:10009000CB020008CB020008CB020008CB0200080C
:1000A000CB020008CB020008CB020008CB020008FC
:1000B000CB020008CB020008CB020008CB020008EC
:1000C000CB020008CB020008CB020008CB020008DC
:1000D000CB020008CB020008CB020008CB020008CC
:1000E000CB020008CB02000800000000CB02000891
:1000F000CB020008CB020008CB020008CB020008AC
:10010000CB020008CB020008CB020008CB0200089B
:10011000CB020008CB02000899570008A957000835
:10012000CB020008CB020008CB020008CB0200087B
:10013000CB020008CB020008CB020008CB0200086B
:1001400000000000000000000000000000000000AF
:10015000CB020008CB020008CB020008CB0200084B
:10016000CB020008CB020008CB020008CB0200083B
:10017000CB020008CB020008CB0200080000000000
:10018000CB020008CB020008CB020008CB0200081B
:10019000CB020008CB020008CB020008CB0200080B
:1001A000CB020008CB020008CB020008CB020008FB
:1001B000CB020008CB020008CB020008CB020008EB
:1001C000CB020008CB020008CB020008CB020008DB
:1001D000CB020008CB020008CB020008CB020008CB
:1001E000CB020008CB020008CB020008CB020008BB
:1001F000CB020008CB020008CB020008CB020008AB
:10020000CB020008CB020008CB020008CB0200089A
:10021000CB020008CB020008CB020008CB0200088A
:10022000CB020008CB020008CB020008000000004F
:10023000CB020008CB02000800000000CB0200083F
:10024000CB020008CB020008CB020008CB0200085A
:10025000CB020008CB020008CB020008CB0200084A
:10026000CB020008CB020008CB020008CB0200083A
:10027000CB020008CB020008CB02000800000000FF
:10028000CB020008CB020008CB02000800000000EF
:1002900000000000CB020008DFF80CD000F05CFA90
:1002A00000480047C170000878570024074880477D
:1002B0000748804707480047FEE7FEE7FEE7FEE7FE
:1002C000FEE7FEE7FEE7FEE7FEE7FEE78908000837
:1002D00009560008990200082DE9F05F0546002044
:1002E00092469B4688460646814640241BE02846A7
:1002F00041464746224600F067F853465A46C01A20
:10030000914110D311461846224600F04EF82D1A9E
:1003100067EB01084F4622460120002100F045F816
:1003200017EB00094E41201EA4F10104DFDC484612
:1003300031462A464346BDE8F09FD2B201E000F8BC
:10034000012B491EFBD270470022F6E710B5134679
:100350000A4604461946FFF7F0FF204610BD421C2E
:1003600010F8011B0029FBD1801A7047034611F8D1
:10037000012B00F8012B002AF9D11846704730B53F
:100380000B46014600202022012409E021FA02F553
:100390009D4205D303FA02F5491B04FA02F52844ED
:1003A000151EA2F10102F1DC30BD202A04DB203A47
:1003B00000FA02F1002070479140C2F1200320FAB8
:1003C00003F3194390407047202A04DB203A21FAB6
:1003D00002F00021704721FA02F3D040C2F120025E
:1003E00091400843194670472DE9FE4F804681EA47
:1003F0000300C00F0C46009021F0004123F000459F
:10040000B8EB0200A94105D24046214690461C4661
:100410000B46024623F00040104347D0270DC7F398
:100420000A00C3F30A510290401A019040286BDA87
:10043000C3F3130040F4801B0098924620B10023C0
:10044000D2EB030A63EB0B0B01985946C0F1400253
:100450005046FFF7AAFF06460D4650465946019AF8
:1004600000F092F910EB08006141002487EA115274
:1004700084EAE7731A4340D0009A62B3019A012AD2
:100480004FEA075215DC001B61EB02014FF00042FE
:1004900002EA0752CDE90042001C41F580113246C4
:1004A0002B4600F092F903B0BDE8F08F404621469C
:1004B000F9E7001B61EB0201001C41F580130018F5
:1004C0005B412018A2F5001747EB030140EAD57005
:1004D000B6196D4111E06D084FEA360645EAC07560
:1004E0004FEA0752001B61EB0201001C41F580112D
:1004F00049084FEA30000019514132462B4603B0FB
:10050000BDE8F04F00F052B90098012240000023EE
:10051000D0EB020263EBE073009821464FEAE074EF
:10052000B8EB000061EB0401E9E783F000435BE70F
:1005300081F0004158E72DE9FE4F81EA030404F001
:10054000004421F0004100944FF0000B23F00043E1
:1005500050EA01045ED052EA03045BD0C3F30A54AC
:10056000C1F30A552C44A4F2F3340194A0FB0254C5
:10057000C1F3130141F48011C3F3130343F4801357
:1005800001FB024400FB034E840A970A44EA8154AB
:1005900047EA8357A4FB076802958D0A05FB078588
:1005A0004FEA932C04FB0C542705029D4FEA065892
:1005B00047EA1637B5EB08056EEB070C870E920E6F
:1005C00047EA811742EA8312A7FB0201B6EB0B014F
:1005D00064EB00042B0D43EA0C335E1844EB1C5013
:1005E000DA465146E7FB0201C5F313044FEA0B3329
:1005F00043EA14534FEA0432019C43EA0603A4F190
:100600000C040294009CCDE900B400F0DEF803B0C5
:10061000BDE8F08F00200146F9E72DE9F04D81EAB1
:10062000030404F0004B21F0004514464FF0000A8B
:1006300023F0004150EA050220D054EA01021DD007
:10064000C5F30A570246C5F31303C1F31300C1F300
:100650000A5640F4801543F48013A7EB0608101BDC
:10066000D64608F2FD3873EB050002D308F1010805
:1006700001E092185B41B8F1000F03DA0020014657
:10068000BDE8F08D00204FF48011064684460EE050
:10069000171B73EB050705D3121B63EB050306431A
:1006A0004CEA010C49084FEA300092185B4150EACD
:1006B0000107EDD152EA030012D082EA040083EA76
:1006C0000501084305D0101BAB4106D201220023CF
:1006D00006E000224FF0004302E06FF001025310E9
:1006E0001AEB06004CEB085110EB0A0041EB0B0132
:1006F000BDE8F04D00F05AB8C1F30A52C1F313013E
:1007000040F2FF3341F480119A4202DA00200146A0
:10071000704740F233439A42A2F2334202DC524223
:10072000FFF752BEFFF741BE30B5041E71F1000461
:1007300004DB4FF00044404264EB0101141E73F1EE
:10074000000405DB1C464FF00043524263EB0403F8
:10075000994208BF904230BD1CB509480090094835
:1007600001900546009C06E0E06840F0010394E833
:10077000070098471034AC42F6D3FFF791FD000014
:10078000B89A0008D89A0008202A06DBCB17203A2E
:1007900041FA02F043EAE07306E041FA02F3D04086
:1007A000C2F12002914008431946704710B5141E4B
:1007B00073F1000408DA401C41F1000192185B411A
:1007C0001A4301D120F0010010BD2DE9F04D9246F1
:1007D0009B4611B1B1FA81F202E0B0FA80F2203208
:1007E0009046FFF7E2FD04460F4640EA0A0041EA60
:1007F0000B0153465A46084313D0114653EA0100F1
:1008000019D0C8F140025046FFF7DEFD05460E46FE
:10081000504659464246FFF7C8FD084305D001201F
:1008200004E020463946BDE8F08D0020054346EA45
:10083000E0762C4337430A986305E40AA0EB0800EE
:100840000022FD0A44EA47540A3002D5002001463E
:10085000E9E7010510196941DDE908450019694119
:10086000BDE8F04DA2E70000FFE7FEE70000000052
:10087000704700000000000081B0EFF3108072B6F6
:100880000090FFE7FEE7000044F60C01C5F6020108
:10089000086840F002000860FFE744F60400C5F66F
:1008A000020000688004002801D4FFE7F5E77047E4
:1008B00090B00F900E9100200D908020C5F60000A2
:1008C0000A90FFE70E9800680D99C840002800F0D4
:1008D000CF81FFE70E9800680D9A012191400840F2
:1008E0000C900C98002800F0BF81FFE70E9840683C
:1008F00000F00300012807D0FFE70E98406800F0E1
:10090000030002282FD1FFE70F9880680B900D9805
:100910004100032000FA01F10B9888430B900E98D8
:10092000C0680D99490000FA01F10B9808430B903B
:100930000B980F9988600F9840680B900D990120D3
:1009400000FA01F10B9888430B900E984068C0F3B1
:1009500000100D9900FA01F10B9808430B900B98C9
:100960000F994860FFE70E98406800F003000328E5
:1009700018D0FFE70F98C0680B900D984100032036
:1009800000FA01F10B9888430B900E9880680D993E
:10099000490000FA01F10B9808430B900B980F994E
:1009A000C860FFE70E98406800F00300022826D1D7
:1009B000FFE70F980D996FF0030202EA5101084416
:1009C000006A0B900D9800F0070081000F2000FADC
:1009D00001F10B9888430B900E9800690D9901F076
:1009E0000701890000FA01F10B9808430B900B985E
:1009F0000F990D9B02EA530211440862FFE70F981A
:100A000000680B900D984100032000FA01F10B984B
:100A100088430B900E98406800F003000D99490040
:100A200000FA01F10B9808430B900B980F9908609E
:100A30000E9880798007002800F01581FFE7FFE716
:100A400044F2F440C5F60200016841F00201016081
:100A5000006800F0020009900998FFE70D9820F067
:100A6000030040F20841C5F6000140580B900D9874
:100A700000F0030081000F2000FA01F10B98884379
:100A80000B900F980021C5F60201884203D1FFE7C1
:100A9000002008907AE00F9840F20041C5F602016C
:100AA000884203D1FFE7012007906CE00F9840F6E1
:100AB0000001C5F60201884203D1FFE7022006903B
:100AC0005EE00F9840F60041C5F60201884203D16E
:100AD000FFE70320059050E00F9841F20001C5F6B2
:100AE0000201884203D1FFE70420049042E00F98FE
:100AF00041F20041C5F60201884203D1FFE705201B
:100B0000039034E00F9841F60001C5F602018842D7
:100B100003D1FFE70620029026E00F9841F600413E
:100B2000C5F60201884203D1FFE70720019018E0D3
:100B30000F9842F20001C5F60201884203D1FFE797
:100B4000082000900AE00F9942F20042C5F6020226
:100B50000A20914208BF09200090FFE70098019009
:100B6000FFE701980290FFE702980390FFE70398E0
:100B70000490FFE704980590FFE705980690FFE7CB
:100B800006980790FFE707980890FFE708980D99E7
:100B900001F00301890000FA01F10B9808430B9062
:100BA0000B980D9921F0030140F20842C5F60002AE
:100BB00088504FF0B04000680B900C990B98884318
:100BC0000B900E988079C006002805D5FFE70C9998
:100BD0000B9808430B90FFE70B984FF0B04108606B
:100BE0000420C5F6000000680B900C990B98884310
:100BF0000B900E9880798006002805D5FFE70C99A8
:100C00000B9808430B90FFE70B980421C5F60001F1
:100C100008600A9840680B900C990B9888430B90D9
:100C20000E9880798007002805D5FFE70C990B986E
:100C300008430B90FFE70B980A9948600A980068F0
:100C40000B900C990B9888430B900E988079C007F5
:100C500028B1FFE70C990B9808430B90FFE70B981E
:100C60000A990860FFE7FFE70D9801300D9029E62B
:100C700010B070470000000083B00290ADF806107D
:100C8000029840690090009ABDF8060002EA00014F
:100C9000904340EA01400299886103B07047000028
:100CA00082B00190ADF802108DF801209DF801008E
:100CB00028B1FFE7BDF802000199886105E0BDF8A1
:100CC0000200000401998861FFE702B0704700004C
:100CD00041F20000C5F600400068000C70470000BB
:100CE00045F2C820C2F200400068704700000000D2
:100CF00040F20C00C2F20040027845F2C821C2F274
:100D000000410868104408607047000000000000BF
:100D100080B582B0032000F04FF901F089FF44F262
:100D20001842C5F602021168C1F3032349F6741193
:100D3000C0F60001CB5C03F01F03D8400090009880
:100D4000126802F00F02895C01F01F01C84040F2F6
:100D50000801C2F200410860009840F20401C2F2AA
:100D6000004108600F2000F013F820B1FFE70120D8
:100D70008DF8070005E000F0E7F800208DF8070087
:100D8000FFE79DF8070002B080BD000000000000F2
:100D900080B590B00E900E980F2810D8FFE70E99EE
:100DA00036200090002200F0EFF8009800F0E0F804
:100DB0000E9840F21001C2F20041086003E00120E9
:100DC0008DF83F004EE0FFE744F2E840C5F6020030
:100DD000016841F010010160006800F0100001900E
:100DE0000198FFE706A802A901F08AFE0B9804907B
:100DF000049820B9FFE701F0F3FE059004E001F04C
:100E0000EFFE40000590FFE705984DF68361C4F2C0
:100E10001B31A0FB01014FF0FF3000EB914003902C
:100E200040F2EC00C2F2004041F20001C4F20001C5
:100E3000016040F2E731C160039941600021016126
:100E4000816003F015F948B9FFE740F2EC00C2F207
:100E5000004003F089F98DF83F0003E001208DF890
:100E60003F00FFE79DF83F0010B080BD000000008C
:100E700010B581B00090009840784EF69851CEF2AF
:100E8000000108604EF6A051CEF20001086820F083
:100E900001000860009840684EF69C52CEF20002B5
:100EA0001060DDF800E09EF80C0000079EF80B20B3
:100EB00040EA02609EF800209EF808309EF809C0C3
:100EC0009EF80A4040EAC4409EF80D4040EA844043
:100ED0009EF80E4040EA44409EF80FE040EA0E4083
:100EE00040EA0C2040EA43001043086001B010BD06
:100EF000BFF35F8F4EF62451CEF20001086820F454
:100F0000803008604EF69451CEF200010020086057
:100F1000704700000000000081B00090009840F091
:100F200001004EF69451CEF2000108604EF62451B5
:100F3000CEF20001086840F480300860BFF34F8FA4
:100F4000BFF36F8F01B0704781B0FFE744F2F44008
:100F5000C5F60200016841F002010160006800F07E
:100F6000020000900098FFE701B070470000000009
:100F700080B582B0ADF80600BDF9060005F08CFF23
:100F800002B080BD0000000080B586B0ADF816004C
:100F90000491039205F098FF0290BDF916000190AC
:100FA00002980499039A04F01BF80146019805F091
:100FB00093FF06B080BD000080B582B0019001981B
:100FC00005F0AEFF02B080BD80B584B0029044F65B
:100FD0000C00C5F60200006800F004010020B0EB30
:100FE000910F13D1FFE744F60C00C5F6020000682C
:100FF00000F007000299884204D0FFE701208DF835
:101000000F002EE000208DF80F002AE044F60C01BE
:10101000C5F60201086820F00700029A1043086034
:10102000FFF75EFE0190FFE744F60400C5F60200FC
:10103000006800F400510020B0EB513F0DD1FFE7F4
:10104000FFF74EFE0199401AB0F57A7F04D9FFE709
:1010500001208DF80F0004E0E6E700208DF80F0076
:10106000FFE79DF80F0004B080BD00000000000005
:1010700080B501F089FD44F22041C5F602010968FE
:10108000C1F3021249F67411C0F60001895C01F047
:101090001F01C84080BD000088B0079044F228407E
:1010A000C5F60200016801F0030106910068C0F373
:1010B0000530059044F22C40C5F602000068C0F3EC
:1010C00000100490049844F23C41C5F602010968FE
:1010D00089B2C908484300EE100AB8EE400A8DED07
:1010E000020A0598002800F01181FFE70698009099
:1010F00048B1FFE70098012865D0FFE70098022873
:1011000000F08380A3E044F20040C5F602000068CE
:1011100000F020010020B0EB511F31D0FFE744F276
:101120000040C5F602000068C0F3C10149F20000AA
:10113000C0F2D030C84003909DED030AB8EE400ADB
:101140009DED051AB8EE411A80EE010A44F23840CE
:10115000C5F6020000686FF35F2001EE100AB8EEDA
:10116000411A9DED022A9FED6F3A02EE031AB7EE87
:10117000002A31EE021A20EE010A8DED010A21E06B
:101180009DED050AB8EE401A9FED680A80EE010A4F
:1011900044F23840C5F6020000686FF35F2001EEAC
:1011A000100AB8EE411A9DED022A9FED5E3A02EE5A
:1011B000031AB7EE002A31EE021A20EE010A8DED75
:1011C000010AFFE765E09DED050AB8EE401A9FEDC4
:1011D000560A80EE010A44F23840C5F60200006863
:1011E0006FF35F2001EE100AB8EE411A9DED022A5E
:1011F0009FED4C3A02EE031AB7EE002A31EE021AC6
:1012000020EE010A8DED010A43E09DED050AB8EEDE
:10121000401A9FED430A80EE010A44F23840C5F6B9
:10122000020000686FF35F2001EE100AB8EE411A69
:101230009DED022A9FED3B3A02EE031AB7EE002A1B
:1012400031EE021A20EE010A8DED010A21E09DED3A
:10125000050AB8EE401A9FED340A80EE010A44F206
:101260003840C5F6020000686FF35F2001EE100AF7
:10127000B8EE411A9DED022A9FED2A3A02EE031ABA
:10128000B7EE002A31EE021A20EE010A8DED010AB6
:10129000FFE79DED010A44F23840C5F602000168FF
:1012A00089B2490A01EE101AB8EE411AB7EE002AC7
:1012B00031EE021A80EE010A0799BCEEC00A81EDF8
:1012C000000A9DED010A0168C1F3064101EE101A02
:1012D000B8EE411A31EE021A80EE010A0799BCEE0F
:1012E000C00A81ED010A9DED010A0068C0F30660A5
:1012F00001EE100AB8EE411A31EE021A80EE010A30
:101300000798BCEEC00A80ED020A07E007990020AA
:1013100008600799486007998860FFE708B0704740
:1013200020BCBE4B000000390024744A0024744CD9
:1013300088B0079044F22840C5F60200016801F029
:10134000030106910068C0F30550059044F22C405B
:10135000C5F602000068C0F300200490049844F22F
:101360004441C5F60201096889B2C908484300EE44
:10137000100AB8EE400A8DED020A0598002800F028
:101380001181FFE70698009048B1FFE70098012817
:1013900065D0FFE70098022800F08380A3E044F2C4
:1013A0000040C5F60200006800F020010020B0EB0C
:1013B000511F31D0FFE744F20040C5F6020000683B
:1013C000C0F3C10149F20000C0F2D030C840039020
:1013D0009DED030AB8EE400A9DED051AB8EE411ADC
:1013E00080EE010A44F24040C5F6020000686FF347
:1013F0005F2001EE100AB8EE411A9DED022A9FED22
:101400006F3A02EE031AB7EE002A31EE021A20EE0E
:10141000010A8DED010A21E09DED050AB8EE401AA2
:101420009FED680A80EE010A44F24040C5F60200D2
:1014300000686FF35F2001EE100AB8EE411A9DEDCF
:10144000022A9FED5E3A02EE031AB7EE002A31EE51
:10145000021A20EE010A8DED010AFFE765E09DED1D
:10146000050AB8EE401A9FED560A80EE010A44F2D2
:101470004040C5F6020000686FF35F2001EE100ADD
:10148000B8EE411A9DED022A9FED4C3A02EE031A86
:10149000B7EE002A31EE021A20EE010A8DED010AA4
:1014A00043E09DED050AB8EE401A9FED430A80EE39
:1014B000010A44F24040C5F6020000686FF35F2065
:1014C00001EE100AB8EE411A9DED022A9FED3B3A5B
:1014D00002EE031AB7EE002A31EE021A20EE010ADC
:1014E0008DED010A21E09DED050AB8EE401A9FED51
:1014F000340A80EE010A44F24040C5F6020000685A
:101500006FF35F2001EE100AB8EE411A9DED022A3A
:101510009FED2A3A02EE031AB7EE002A31EE021AC4
:1015200020EE010A8DED010AFFE79DED010A44F26C
:101530004040C5F60200016889B2490A01EE101A5E
:10154000B8EE411AB7EE002A31EE021A80EE010A17
:101550000799BCEEC00A81ED000A9DED010A016801
:10156000C1F3064101EE101AB8EE411A31EE021A2B
:1015700080EE010A0799BCEEC00A81ED010A9DEDDB
:10158000010A0068C0F3066001EE100AB8EE411AC5
:1015900031EE021A80EE010A0798BCEEC00A80ED17
:1015A000020A07E007990020086007994860079938
:1015B0008860FFE708B0704720BCBE4B00000039D0
:1015C0000024744A0024744C80B59AB0189000200E
:1015D0008DF857008DF856001898C078000700283D
:1015E00048D5FFE71898806E149078B1FFE71498FB
:1015F000B0F5801F13D0FFE71498B0F5001F16D088
:10160000FFE71498B0F5401F19D019E044F22C41BF
:10161000C5F60201086840F40030086014E018982C
:101620000830022103F048FD8DF857000CE01898AF
:101630002830022103F028FE8DF8570004E003E073
:1016400001208DF85700FFE79DF8570060B9FFE7CC
:1016500044F25041C5F60201086820F44010189A7F
:10166000926E1043086004E09DF857008DF8560014
:10167000FFE7FFE718984078C007002840D0FFE751
:101680001898806D1390042820D81399DFE801F092
:10169000030C141C1D0044F22C41C5F6020108681D
:1016A00040F40030086015E018980830002103F07D
:1016B00003FD8DF857000DE018982830002103F045
:1016C000E3FD8DF8570005E004E003E001208DF80C
:1016D0005700FFE79DF8570060B9FFE744F250411B
:1016E000C5F60201086820F00700189A926D1043B1
:1016F000086004E09DF857008DF85600FFE7FFE70B
:1017000018984078800700284BD5FFE71898C06DDF
:10171000129088B1FFE71298402816D0FFE7129880
:1017200080281AD0FFE71298C0281ED0FFE7129831
:10173000B0F5807F1AD01AE044F22C41C5F60201C0
:10174000086840F40030086015E01898083000215F
:1017500003F0B2FC8DF857000DE0189828300021F6
:1017600003F092FD8DF8570005E004E003E001204E
:101770008DF85700FFE79DF8570060B9FFE744F286
:101780005041C5F60201086820F4E070189AD26D45
:101790001043086004E09DF857008DF85600FFE7FD
:1017A000FFE7189840784007002850D5FFE71898C1
:1017B000D0F8A8001190A0B1FFE71198B0F5001F74
:1017C00018D0FFE71198B0F5800F1BD0FFE71198F4
:1017D000B0F5C00F1ED0FFE71198B0F5000F1AD07A
:1017E0001AE044F22C41C5F60201086840F40030CA
:1017F000086015E018980830002103F05DFC8DF8B2
:1018000057000DE018982830002103F03DFD8DF8B9
:10181000570005E004E003E001208DF85700FFE7E2
:101820009DF8570068B9FFE744F25841C5F6020138
:10183000086820F46000189AD2F8A82010430860C5
:1018400004E09DF857008DF85600FFE7FFE7189871
:1018500040780007002850D5FFE71898D0F8AC0072
:101860001090A0B1FFE71098B0F1807F18D0FFE78B
:101870001098B0F1007F1BD0FFE71098B0F1407FC7
:101880001ED0FFE71098B0F1806F1AD01AE044F232
:101890002C41C5F60201086840F40030086015E0EC
:1018A00018980830002103F007FC8DF857000DE070
:1018B00018982830002103F0E7FC8DF8570005E068
:1018C00004E003E001208DF85700FFE79DF8570082
:1018D00068B9FFE744F25841C5F60201086820F0F4
:1018E000E060189AD2F8AC201043086004E09DF83C
:1018F00057008DF85600FFE7FFE71898C07880077B
:1019000000283ED5FFE71898C06C0F90F0B1FFE7B4
:101910000F98102808D0FFE70F9820280DD0FFE778
:101920000F98302811D012E044F22C41C5F6020184
:10193000086840F4003008600DE018980830022173
:1019400003F0BAFB8DF8570005E004E003E0012046
:101950008DF85700FFE79DF8570060B9FFE744F2A4
:101960004C41C5F60201086820F03000189AD26C8C
:101970001043086004E09DF857008DF85600FFE71B
:10198000FFE718984078C00600284ED5FFE7189862
:10199000006E0E90A0B1FFE70E98B0F5805F18D0F2
:1019A000FFE70E98B0F5005F1BD0FFE70E98B0F58B
:1019B000405F1ED0FFE70E98B0F5804F1AD01AE0B6
:1019C00044F22C41C5F60201086840F4003008607A
:1019D00015E018980830002103F06EFB8DF85700D1
:1019E0000DE018982830002103F04EFC8DF85700C8
:1019F00005E004E003E001208DF85700FFE79DF8C3
:101A0000570060B9FFE744F25041C5F6020108688B
:101A100020F4E040189A126E1043086004E09DF82C
:101A200057008DF85600FFE7FFE7189840788006CA
:101A300000284CD5FFE71898406E0D90C8B1FFE71D
:101A40000D98B0F5803F15D0FFE70D98B0F5003F39
:101A500018D0FFE70D98B0F5403F1BD0FFE70D9879
:101A6000B0F5802F17D0FFE70D98B0F5A02F13D059
:101A700013E016E018980830012103F01DFB8DF8E3
:101A800057000EE018982830012103F0FDFB8DF877
:101A9000570006E005E004E003E001208DF8570060
:101AA000FFE79DF8570060B9FFE744F25041C5F6E3
:101AB0000201086820F4E020189A526E1043086072
:101AC00004E09DF857008DF85600FFE7FFE71898EF
:101AD0004078400600284ED5FFE71898D0F8B000AF
:101AE0000C90C8B1FFE70C98B0F1805F15D0FFE70C
:101AF0000C98B0F1005F18D0FFE70C98B0F1405F90
:101B00001BD0FFE70C98B0F1804F17D0FFE70C987F
:101B1000B0F1A04F13D013E016E01898083001215F
:101B200003F0CAFA8DF857000EE01898283001210A
:101B300003F0AAFB8DF8570006E005E004E003E09F
:101B400001208DF85700FFE79DF8570068B9FFE7BF
:101B500044F25841C5F60201086820F0E040189AA6
:101B6000D2F8B0201043086004E09DF857008DF8CB
:101B70005600FFE7FFE718984078000600283BD59D
:101B8000FFE71898006F0B90D8B1FFE70B98B0F102
:101B9000805F05D0FFE70B98B0F1005F09D011E03E
:101BA00044F22C41C5F60201086840F40030086098
:101BB0000CE018980830012103F07EFA8DF85700E8
:101BC00004E003E001208DF85700FFE79DF857007F
:101BD00060B9FFE744F25041C5F60201086820F001
:101BE0004050189A126F1043086004E09DF85700A7
:101BF0008DF85600FFE7FFE71898C078C007002867
:101C000037D0FFE71898806C0A90032817D80A99F4
:101C1000DFE801F014020B1344F22C41C5F6020177
:101C2000086840F4003008600DE018980830022180
:101C300003F042FA8DF8570005E004E003E00120CC
:101C40008DF85700FFE79DF8570060B9FFE744F2B1
:101C50004C41C5F60201086820F00300189A926C06
:101C60001043086004E09DF857008DF85600FFE728
:101C7000FFE7189880784006002840F1B480FFE71D
:101C800044F60001C5F60201086840F4807008605F
:101C9000FFF726F81690FFE744F60000C5F60200AD
:101CA0000068C00500280CD4FFE7FFF719F8169963
:101CB000401A652804D3FFE703208DF8570000E0A1
:101CC000EAE79DF85700002840F08780FFE744F2DC
:101CD0007040C5F60200006800F440701899D1F811
:101CE000B41001F44071884213D0FFE744F2704110
:101CF000C5F60201086820F440701790086840F4A7
:101D000080300860086820F4803008601798086008
:101D1000FFE71898D0F8B400B0F5807F1FD1FFE737
:101D2000FEF7DEFF1690FFE744F27040C5F60200B2
:101D3000006800F002010020B0EB510F0ED1FFE768
:101D4000FEF7CEFF1699401A41F28931884204D33A
:101D5000FFE703208DF8570000E0E5E7FFE79DF877
:101D60005700A0BBFFE7FFE71898D0F8B40000F4D5
:101D70004070B0F5407F13D1FFE744F21041C5F643
:101D80000201086820F47C50189AD2F8B4204FF66B
:101D9000F043C0F6FF731A4040EA1210086008E0F2
:101DA00044F21041C5F60201086820F47C50086036
:101DB000FFE71898D0F8B4206FF31F3244F2704157
:101DC000C5F60201086810430860FFE704E09DF8CB
:101DD00057008DF85600FFE704E09DF857008DF896
:101DE0005600FFE7FFE718980068C007002800F0DA
:101DF0004C80FFE71898C06F099028282BD80999C4
:101E0000DFE801F015292929292929291629292955
:101E1000292929291E292929292929292629292940
:101E2000292929292729292929292929280016E0AA
:101E300018980830012103F03FF98DF857000EE0A3
:101E400018982830012103F01FFA8DF8570006E09A
:101E500005E004E003E001208DF85700FFE79DF85E
:101E6000570060B9FFE744F25441C5F60201086823
:101E700020F03800189AD26F1043086004E09DF8F3
:101E800057008DF85600FFE7FFE7189800788007A5
:101E9000002839D5FFE71898806F0890052819D8D1
:101EA0000899DFE801F003040C14151616E01898E1
:101EB0000830012103F000F98DF857000EE0189862
:101EC0002830012103F0E0F98DF8570006E005E025
:101ED00004E003E001208DF85700FFE79DF857006C
:101EE00060B9FFE744F25441C5F60201086820F0EA
:101EF0000700189A926F1043086004E09DF857009D
:101F00008DF85600FFE7FFE7189800784007002893
:101F10003BD5FFE71898D0F894000790052819D80A
:101F20000799DFE801F003040C14151616E0189861
:101F30000830012103F0C0F88DF857000EE0189822
:101F40002830012103F0A0F98DF8570006E005E0E4
:101F500004E003E001208DF85700FFE79DF85700EB
:101F600068B9FFE744F25841C5F60201086820F05D
:101F70000700189AD2F894201043086004E09DF8F6
:101F800057008DF85600FFE7FFE7189800788006A5
:101F900000284ED5FFE71898D0F890000690C8B1F9
:101FA000FFE70698B0F1805F15D0FFE70698B0F123
:101FB000005F18D0FFE70698B0F1405F1BD0FFE745
:101FC0000698B0F1804F17D0FFE70698B0F1A04F08
:101FD00013D013E016E018980830002103F06CF8D5
:101FE0008DF857000EE018982830022103F04CF9C4
:101FF0008DF8570006E005E004E003E001208DF8CD
:102000005700FFE79DF8570068B9FFE744F25441D5
:10201000C5F60201086820F0E040189AD2F8902036
:102020001043086004E09DF857008DF85600FFE764
:10203000FFE718980078400600284ED5FFE718986B
:10204000D0F89C000590C8B1FFE70598B0F5806F07
:1020500015D0FFE70598B0F5006F18D0FFE7059899
:10206000B0F5406F1BD0FFE70598B0F5805F17D043
:10207000FFE70598B0F5A05F13D013E016E01898BD
:102080000830002103F018F88DF857000EE018987A
:102090002830022103F0F8F88DF8570006E005E03B
:1020A00004E003E001208DF85700FFE79DF857009A
:1020B00068B9FFE744F25841C5F60201086820F408
:1020C000E050189AD2F89C201043086004E09DF874
:1020D00057008DF85600FFE7FFE7189800780006D4
:1020E00000284ED5FFE71898D0F8A0000490C8B19A
:1020F000FFE70498B0F5005F15D0FFE70498B0F54E
:10210000804F18D0FFE70498B0F5C04F1BD0FFE711
:102110000498B0F5004F17D0FFE70498B0F5204FB2
:1021200013D013E016E018980830002102F0C4FF25
:102130008DF857000EE018982830022103F0A4F81B
:102140008DF8570006E005E004E003E001208DF87B
:102150005700FFE79DF8570068B9FFE744F2584180
:10216000C5F60201086820F46040189AD2F8A02051
:102170001043086004E09DF857008DF85600FFE713
:10218000FFE7189800780007002820D5FFE7189887
:10219000D0F88400B0F5805F0CD1FFE718982830A4
:1021A000022103F071F820B1FFE701208DF85600FD
:1021B000FFE7FFE744F25441C5F60201086820F446
:1021C0004050189AD2F8842010430860FFE718980E
:1021D0000078C006002820D5FFE71898D0F89800AE
:1021E000B0F5807F0CD1FFE718982830022103F06A
:1021F0004BF820B1FFE701208DF85600FFE7FFE71D
:1022000044F25841C5F60201086820F44070189A5B
:10221000D2F8982010430860FFE7189880780007EC
:1022200000283CD5FFE71898D0F8A400039050B1DF
:10223000FFE70398B0F5803F0DD0FFE70398B0F5B6
:10224000003F10D010E018980830002102F034FF51
:102250008DF857000CE018982830022103F014F88C
:102260008DF8570004E003E001208DF85700FFE7E8
:102270009DF8570068B9FFE744F25841C5F60201DE
:10228000086820F44030189AD2F8A420104308605F
:1022900004E09DF857008DF85600FFE7FFE7189817
:1022A0008078400700283FD5FFE71898D0F88800CD
:1022B0000290B0F5801F0AD0FFE70298B0F5001F2A
:1022C0000ED0FFE70298B0F5401F11D011E044F2A4
:1022D0002C41C5F60201086840F4003008600CE0AB
:1022E00018982830012102F0CFFF8DF8570004E044
:1022F00003E001208DF85700FFE79DF8570068B90B
:10230000FFE744F25441C5F60201086820F440108A
:10231000189AD2F888201043086004E09DF857000E
:102320008DF85600FFE7FFE718988078C007A8B33C
:10233000FFE71898006D019028B1FFE70198B0F50C
:10234000803F09D010E044F22C41C5F60201086834
:1023500040F4003008600BE018980830022102F0C9
:10236000ABFE8DF8570003E001208DF85700FFE722
:102370009DF8570060B9FFE744F24C41C5F60201F1
:10238000086820F48030189A126D1043086004E049
:102390009DF857008DF85600FFE7FFE71898C078C2
:1023A000800600280CD5FFE718982830022102F09B
:1023B0006BFF20B1FFE701208DF85600FFE7FFE734
:1023C00018988078800700283CD5FFE71898D0F847
:1023D00080000090D0B1FFE70098B0F5807F0AD070
:1023E000FFE70098B0F5007F0ED0FFE70098B0F54A
:1023F000407F0AD00BE044F22C41C5F60201086888
:1024000040F40030086006E005E004E003E001204D
:102410008DF85700FFE79DF8570068B9FFE744F2D1
:102420005441C5F60201086820F44070189AD2F8A9
:1024300080201043086004E09DF857008DF8560096
:10244000FFE7FFE718988078C00600280CD5FFE763
:1024500044F25041C5F60201086820F00040189A85
:10246000526F10430860FFE71898C078C006002834
:102470000DD5FFE744F21041C5F60201086820F4CB
:102480008040189AD2F8B82010430860FFE71898E7
:102490008078800600280CD5FFE744F25041C5F64D
:1024A0000201086820F08070189AD26E104308600C
:1024B000FFE71898C0784006002811D5FFE7FFE72E
:1024C00044F21041C5F60201086820F4004008609B
:1024D0001898D0F8BC20086810430860FFE7FFE7B1
:1024E0001898C078000600280CD5FFE744F24C414C
:1024F000C5F60201086820F04050189A526D10434A
:102500000860FFE718988078000600280DD5FFE7DF
:1025100044F25441C5F60201086820F44000189ABC
:10252000D2F88C2010430860FFE718980079C007A4
:1025300090B1FFE718980830002102F0BDFD8DF83A
:1025400057009DF8570008B9FFE704E09DF85700D1
:102550008DF85600FFE7FFE71898007980070028FC
:1025600012D5FFE718980830012102F0A5FD8DF87B
:1025700057009DF8570008B9FFE704E09DF85700A1
:102580008DF85600FFE7FFE718980079400700280C
:1025900012D5FFE718980830022102F08DFD8DF862
:1025A00057009DF8570008B9FFE704E09DF8570071
:1025B0008DF85600FFE7FFE718980079000700281C
:1025C00012D5FFE718982830002102F05DFE8DF843
:1025D00057009DF8570008B9FFE704E09DF8570041
:1025E0008DF85600FFE7FFE718980079C00600282D
:1025F00012D5FFE718982830012102F045FE8DF82A
:1026000057009DF8570008B9FFE704E09DF8570010
:102610008DF85600FFE7FFE718980079800600283C
:1026200012D5FFE718982830022102F02DFE8DF810
:1026300057009DF8570008B9FFE704E09DF85700E0
:102640008DF85600FFE7FFE79DF8560020B9FFE739
:1026500000208DF8670003E001208DF86700FFE798
:102660009DF867001AB080BD80B586B004900391D4
:10267000049820B9FFE701208DF817003CE2039889
:1026800042F20001C5F20021096801F00F01884201
:1026900016D9FFE742F20000C5F20020016821F0E0
:1026A0000F01039A11430160006800F00F000399C5
:1026B000884204D0FFE701208DF817001CE2FFE7F5
:1026C000049800784007002819D5FFE704980069AE
:1026D00044F21841C5F60201096801F07001884210
:1026E0000CD9FFE744F21841C5F60201086820F052
:1026F0007000049A126910430860FFE7FFE704982E
:1027000000780007002819D5FFE70498406944F2D3
:102710001C41C5F60201096801F0700188420CD91C
:10272000FFE744F21C41C5F60201086820F0700082
:10273000049A526910430860FFE7FFE704980078A5
:10274000C006002819D5FFE70498806944F21C41AF
:10275000C5F60201096801F4E06188420CD9FFE77F
:1027600044F21C41C5F60201086820F4E060049AB6
:10277000926910430860FFE7FFE70498007880063D
:10278000002819D5FFE70498C06944F22041C5F636
:102790000201096801F0700188420CD9FFE744F298
:1027A0002041C5F60201086820F07000049AD26941
:1027B00010430860FFE7FFE70498007880070028CF
:1027C00019D5FFE70498C06844F21841C5F6020124
:1027D000096801F00F0188420CD9FFE744F2184163
:1027E000C5F60201086820F00F00049AD268104371
:1027F0000860FFE7FFE704980078C007002800F0B2
:102800008C80FFE744F21841C5F60201086820F405
:102810007060049A92681043086004984068022827
:1028200011D1FFE744F20040C5F60200006800F451
:1028300000310020B0EB514F04D1FFE701208DF8AB
:10284000170059E13EE004984068032811D1FFE7E2
:1028500044F20040C5F60200006800F0007100205C
:10286000B0EB516F04D1FFE701208DF8170043E171
:1028700027E004984068012811D1FFE744F20040A6
:10288000C5F60200006800F480710020B0EB112F43
:1028900004D1FFE701208DF817002DE110E044F28C
:1028A0000040C5F60200006800F004010020B0EB13
:1028B000910F04D1FFE701208DF817001CE1FFE71D
:1028C000FFE7FFE744F21041C5F60201086820F077
:1028D0000700049A526810430860FEF701FA01905D
:1028E000FFE744F21040C5F60200006800F038002F
:1028F00004994968B0EBC10F0ED0FFE7FEF7F0F97D
:102900000199401A41F28931884204D3FFE703203C
:102910008DF81700F0E0E4E7FFE7049800788007FF
:10292000002819D5FFE70498C06844F21841C5F69D
:102930000201096801F00F0188420CD2FFE744F25E
:102940001841C5F60201086820F00F00049AD26809
:1029500010430860FFE7FFE7039842F20001C5F269
:102960000021096801F00F01884216D2FFE742F208
:102970000000C5F20020016821F00F01039A114305
:102980000160006800F00F000399884204D0FFE75F
:1029900001208DF81700AFE0FFE7049800784007AA
:1029A000002819D5FFE70498006944F21841C5F6DC
:1029B0000201096801F0700188420CD2FFE744F27D
:1029C0001841C5F60201086820F07000049A1269E7
:1029D00010430860FFE7FFE704980078000700282D
:1029E00019D5FFE70498406944F21C41C5F602017D
:1029F000096801F0700188420CD2FFE744F21C41E3
:102A0000C5F60201086820F07000049A526910436C
:102A10000860FFE7FFE704980078C006002819D592
:102A2000FFE70498806944F21C41C5F60201096879
:102A300001F4E06188420CD2FFE744F21C41C5F684
:102A40000201086820F4E060049A9269104308606B
:102A5000FFE7FFE7049800788006002819D5FFE714
:102A60000498C06944F22041C5F60201096801F0EA
:102A7000700188420CD2FFE744F22041C5F6020102
:102A8000086820F07000049AD26910430860FFE7DC
:102A9000FFE700F0CDF844F21842C5F602021168D3
:102AA000C1F3032349F67411C0F60001CB5C03F0B7
:102AB0001F03D84000900098126802F00F02895C52
:102AC00001F01F01C84040F20801C2F20041086055
:102AD000009840F20401C2F20041086040F2100088
:102AE000C2F200400068FEF753F98DF80B009DF824
:102AF0000B008DF81700FFE79DF8170006B080BDAA
:102B000082B00190009101993F20086044F210408A
:102B1000C5F60200006800F007000199486044F221
:102B20001840C5F60200016801F47061019A9160D5
:102B3000016801F00F01019AD160006800F0700097
:102B40000199086144F21C40C5F60200016801F0D9
:102B50007001019A5161006800F4E0600199886198
:102B600044F22040C5F60200006800F070000199B0
:102B7000C86142F20000C5F20020006800F00F00BA
:102B80000099086002B0704780B582B000F050F83C
:102B900044F21842C5F602021168C1F3032349F654
:102BA0007411C0F60001CB5C03F01F03D840019004
:102BB0000198126802F00F02895C01F01F0120FAEF
:102BC00001F140F20800C2F200400160019940F2B8
:102BD0000402C2F200421160006802B080BD000031
:102BE00080B5FFF7D1FF44F21C41C5F60201096828
:102BF000C1F3021249F67411C0F60001895C01F0BC
:102C00001F01C84080BD000080B5FFF7BDFF44F242
:102C10001C41C5F602010968C1F3022249F674118C
:102C2000C0F60001895C01F01F01C84080BD0000B2
:102C30008AB044F21040C5F60200006800F0380087
:102C400001460191182800F25F810199DFE811F037
:102C500019005C015C015C015C015C015C015C01D0
:102C60003A005C015C015C015C015C015C015C019F
:102C700040005C015C015C015C015C015C015C0189
:102C8000460044F20040C5F60200006800F0200152
:102C90000020B0EB511F0ED0FFE744F20040C5F614
:102CA00002000068C0F3C10149F20000C0F2D03058
:102CB000C840029005E049F20000C0F2D030029016
:102CC000FFE727E140F60010C0F23D00029021E14D
:102CD00047F64000C0F27D1002901BE144F228400C
:102CE000C5F60200016801F0030108910068C0F315
:102CF0000510079044F22C40C5F60200006800F071
:102D000001000690069844F23441C5F602010968B4
:102D100089B2C908484300EE100AB8EE400A8DEDAA
:102D2000040A0798002800F0EB80FFE7089800905D
:102D300048B1FFE70098012865D0FFE70098022816
:102D400000F08380A3E044F20040C5F60200006872
:102D500000F020010020B0EB511F31D0FFE744F21A
:102D60000040C5F602000068C0F3C10149F200004E
:102D7000C0F2D030C84005909DED050AB8EE400A7B
:102D80009DED071AB8EE411A80EE010A44F2304078
:102D9000C5F6020000686FF35F2001EE100AB8EE7E
:102DA000411A9DED042A9FED5E3A02EE031AB7EE3A
:102DB000002A31EE021A20EE010A8DED030A21E00D
:102DC0009DED070AB8EE401A9FED570A80EE010A02
:102DD00044F23040C5F6020000686FF35F2001EE58
:102DE000100AB8EE411A9DED042A9FED4D3A02EE0D
:102DF000031AB7EE002A31EE021A20EE010A8DED19
:102E0000030AFFE765E09DED070AB8EE401A9FED63
:102E1000450A80EE010A44F23040C5F6020000681F
:102E20006FF35F2001EE100AB8EE411A9DED042AFF
:102E30009FED3B3A02EE031AB7EE002A31EE021A7A
:102E400020EE010A8DED030A43E09DED070AB8EE7E
:102E5000401A9FED320A80EE010A44F23040C5F676
:102E6000020000686FF35F2001EE100AB8EE411A0D
:102E70009DED042A9FED2A3A02EE031AB7EE002ACE
:102E800031EE021A20EE010A8DED030A21E09DEDDC
:102E9000070AB8EE401A9FED230A80EE010A44F2B9
:102EA0003040C5F6020000686FF35F2001EE100AA3
:102EB000B8EE411A9DED042A9FED193A02EE031A6D
:102EC000B7EE002A31EE021A20EE010A8DED030A58
:102ED000FFE744F23040C5F60200006881B20120ED
:102EE00000EB512009909DED030A9DED091AB8EE03
:102EF000411A80EE010ABCEEC00A8DED020A02E022
:102F000000200290FFE705E040F60010C0F23D000F
:102F10000290FFE702980AB0704700BF20BCBE4B8A
:102F2000000000390024744A0024744C00000000A2
:102F300080B58CB00A900A9828B9FFE701208DF877
:102F40002F0000F09DBD0A980078C007002800F00F
:102F5000B980FFE744F21040C5F60200006800F0B7
:102F60003800069044F22840C5F60200006805903B
:102F7000069810280AD0FFE7069818281CD1FFE70A
:102F8000059800F00300022816D1FFE744F2004044
:102F9000C5F60200006800F400310020B0EB514F8C
:102FA00009D0FFE70A98406828B9FFE701208DF8AB
:102FB0002F0000F065BD84E0FFE70A984068B0F597
:102FC000803F09D1FFE744F20041C5F602010868DD
:102FD00040F48030086032E00A98406868B9FFE742
:102FE00044F20041C5F60201086820F48030086010
:102FF000086820F48020086020E00A984068B0F556
:10300000A02F0DD1FFE744F20041C5F60201086888
:1030100040F480200860086840F4803008600CE0CC
:1030200044F20041C5F60201086820F480300860CF
:10303000086820F480200860FFE7FFE7FFE7FFE76C
:103040000A984068F0B1FFE7FDF74AFE0990FFE7F4
:1030500044F20040C5F60200006800F40031002090
:10306000B0EB514F0DD1FFE7FDF73AFE0999401A39
:10307000652805D3FFE703208DF82F0000F000BD81
:10308000E6E71DE0FDF72CFE0990FFE744F2004063
:10309000C5F60200006800F400310020B0EB514F8B
:1030A0000DD0FFE7FDF71CFE0999401A652805D3EE
:1030B000FFE703208DF82F0000F0E2BCE6E7FFE712
:1030C000FFE7FFE70A9800788007002840F11681A3
:1030D000FFE744F21040C5F60200006800F0380037
:1030E000049044F22840C5F602000068039004985A
:1030F00050B1FFE70498182878D1FFE79DF80C003D
:103100008007002872D1FFE744F20040C5F60200B4
:10311000006800F004010020B0EB910F09D0FFE738
:103120000A98C06828B9FFE701208DF82F0000F049
:10313000A7BC44F20041C5F60201086820F019005E
:103140000A9AD26810430860FDF7CAFD0990FFE7AC
:1031500044F20040C5F60200006800F004010020BF
:10316000B0EB910F0DD1FFE7FDF7BAFD0999401AB9
:10317000032805D3FFE703208DF82F0000F080BC63
:10318000E6E7FFE7FDF7A4FD41F2030188421DD801
:10319000FFE70A98006940280AD1FFE744F204419A
:1031A000C5F602010868202262F3113008600CE0C5
:1031B00044F20441C5F60201086820F47C300A9A02
:1031C000126940EA02300860FFE70CE044F2044173
:1031D000C5F60201086820F0FE400A9A126940EA2A
:1031E00002600860FFE7FFE7FFE786E00A98C06833
:1031F00000285CD0FFE744F20041C5F602010868F0
:1032000020F019000A9AD26810430860FDF768FDA3
:103210000990FFE744F20040C5F60200006800F0A4
:1032200004010020B0EB910F0DD1FFE7FDF758FD31
:103230000999401A032805D3FFE703208DF82F00D2
:1032400000F01EBCE6E7FFE7FDF742FD41F2030197
:1032500088421DD8FFE70A98006940280AD1FFE795
:1032600044F20441C5F602010868202262F31130DD
:1032700008600CE044F20441C5F60201086820F43D
:103280007C300A9A126940EA02300860FFE70CE0DD
:1032900044F20441C5F60201086820F0FE400A9A93
:1032A000126940EA02600860FFE7FFE724E044F2A9
:1032B0000041C5F60201086820F001000860FDF732
:1032C0000FFD0990FFE744F20040C5F602000068D8
:1032D00000F004010020B0EB910F0CD0FFE7FDF7E8
:1032E000FFFC0999401A032804D3FFE703208DF857
:1032F0002F00C5E3E7E7FFE7FFE7FFE70A9800785D
:10330000C006002840F1EB80FFE744F21040C5F60C
:103310000200006800F03800029044F22840C5F630
:10332000020000680190029808280AD0FFE702987E
:10333000182850D1FFE7019800F0030001284AD176
:10334000FFE744F20040C5F60200006800F4807117
:103350000020B0EB112F09D0FFE70A98C069802840
:1033600004D0FFE701208DF82F0089E3FFE7FDF788
:10337000AFFC41F2030188421DD8FFE70A98006ABA
:1033800020280AD1FFE744F20441C5F6020108688B
:10339000102262F39E6008600CE044F20441C5F61E
:1033A0000201086820F0F8400A9A126A40EA826036
:1033B0000860FFE70CE044F20C41C5F60201086822
:1033C00020F07C500A9A126A40EA02600860FFE727
:1033D000FFE7FFE782E00A98C069002858D0FFE7BE
:1033E00044F20041C5F60201086840F08000086020
:1033F000FDF776FC0990FFE744F20040C5F60200B5
:10340000006800F480710020B0EB112F0CD1FFE7B1
:10341000FDF766FC0999401A032804D3FFE703204F
:103420008DF82F002CE3E7E7FFE7FDF751FC41F2B1
:10343000030188421DD8FFE70A98006A20280AD1B4
:10344000FFE744F20441C5F602010868102262F366
:103450009E6008600CE044F20441C5F60201086871
:1034600020F0F8400A9A126A40EA82600860FFE79A
:103470000CE044F20C41C5F60201086820F07C50D3
:103480000A9A126A40EA02600860FFE7FFE724E058
:1034900044F20041C5F60201086820F0800008608F
:1034A000FDF71EFC0990FFE744F20040C5F602005C
:1034B000006800F480710020B0EB112F0CD0FFE702
:1034C000FDF70EFC0999401A032804D3FFE70320F7
:1034D0008DF82F00D4E2E7E7FFE7FFE7FFE70A9860
:1034E0000078000700284FD5FFE70A98406928B305
:1034F000FFE744F27441C5F60201086840F001009C
:103500000860FDF7EDFB0990FFE744F27440C5F653
:103510000200006800F002010020B0EB510F0CD156
:10352000FFE7FDF7DDFB0999401A032804D3FFE705
:1035300003208DF82F00A3E2E7E724E044F2744172
:10354000C5F60201086820F001000860FDF7C8FB1D
:103550000990FFE744F27440C5F60200006800F0ED
:1035600002010020B0EB510F0CD0FFE7FDF7B8FBD4
:103570000999401A032804D3FFE703208DF82F0090
:103580007EE2E7E7FFE7FFE70A9800788006002879
:103590004FD5FFE70A98806928B3FFE744F200415E
:1035A000C5F60201086840F480500860FDF798FBFA
:1035B0000990FFE744F20040C5F60200006800F4FD
:1035C00000510020B0EB513F0CD1FFE7FDF788FB25
:1035D0000999401A032804D3FFE703208DF82F0030
:1035E0004EE2E7E724E044F20041C5F60201086834
:1035F00020F480500860FDF773FB0990FFE744F268
:103600000040C5F60200006800F400510020B0EB55
:10361000513F0CD0FFE7FDF763FB0999401A0328DF
:1036200004D3FFE703208DF82F0029E2E7E7FFE747
:10363000FFE70A9800784007002840F1A780FFE7DD
:1036400044F60001C5F60201086840F48070086085
:10365000FDF746FB0990FFE744F60000C5F60200BF
:103660000068C00500280CD4FFE7FDF739FB099975
:10367000401A652804D3FFE703208DF82F00FFE1EF
:10368000EAE7FFE70A988068012809D1FFE744F2DA
:103690007041C5F60201086840F00100086031E0A1
:1036A0000A98806868B9FFE744F27041C5F60201E4
:1036B000086820F001000860086820F00400086035
:1036C0001FE00A98806805280DD1FFE744F2704199
:1036D000C5F60201086840F004000860086840F080
:1036E000010008600CE044F27041C5F60201086870
:1036F00020F001000860086820F004000860FFE77F
:10370000FFE7FFE7FFE70A988068F8B1FFE7FDF7FA
:10371000E7FA0990FFE744F27040C5F6020000683E
:1037200000F002010020B0EB510F0ED1FFE7FDF7D2
:10373000D7FA0999401A41F28931884204D3FFE748
:1037400003208DF82F009BE1E5E71EE0FDF7C8FAA6
:103750000990FFE744F27040C5F60200006800F0EF
:1037600002010020B0EB510F0ED0FFE7FDF7B8FAD1
:103770000999401A41F28931884204D3FFE70320B6
:103780008DF82F007CE1E5E7FFE7FFE70A98406A44
:10379000002800F07181FFE744F21040C5F60200F6
:1037A000006800F03800182800F0E080FFE70A9871
:1037B000406A022840F0B480FFE744F20041C5F6B9
:1037C0000201086820F080700860FDF789FA09900E
:1037D000FFE744F20040C5F60200006800F0007107
:1037E0000020B0EB516F0CD0FFE7FDF779FA099993
:1037F000401A032804D3FFE703208DF82F003FE190
:10380000E7E7FFE744F22841C5F60201086840F205
:10381000F33290430A9B9A6ADB6A42EA031210432E
:1038200008600A99086BD1F834C08B6BCA6B0138F9
:103830006FF35F204FF60061CFF6FF7101EB4C2173
:1038400089B208440021CFF6FF7101EB034101F476
:10385000FE0108444FF07F4101EB026101F0FE419F
:10386000084444F23041C5F602010860FFE744F223
:103870002C41C5F602010091086820F001000860A3
:1038800044F23442C5F6020210684FF6F8739843CA
:103890000A9B9B6C40EAC3001060086820F00C0093
:1038A0000A9A126C10430860086820F002000A9A15
:1038B000526C10430860086840F480300860086863
:1038C00040F400300860086840F480200860086810
:1038D00040F00100086044F20041C5F602010868AA
:1038E00040F080700860FDF7FBF90990FFE744F2B3
:1038F0000040C5F60200006800F000710020B0EB47
:10390000516F0CD1FFE7FDF7EBF90999401A032835
:1039100004D3FFE703208DF82F00B1E0E7E724E0B0
:1039200044F20041C5F60201086820F0807008608A
:10393000FDF7D6F90990FFE744F20040C5F6020012
:10394000006800F000710020B0EB516F0CD0FFE771
:10395000FDF7C6F90999401A032804D3FFE70320AD
:103960008DF82F008CE0E7E7FFE784E044F2284081
:10397000C5F602000068089044F23040C5F6020027
:10398000006807900A98406A012837D0FFE7089836
:1039900000F003000A99896A88422FD1FFE708984E
:1039A00000F47C710A98C06AB0EB111F26D1FFE7C2
:1039B00007986FF35F200A99096B013988421DD17E
:1039C000FFE7BDF81C100A98406B0138B0EB512F8F
:1039D00014D1FFE7079800F4FE010A98806B0138C4
:1039E000B0EB114F0AD1FFE7079800F0FE410A98AB
:1039F000C06B0138B0EB116F04D0FFE701208DF8E8
:103A00002F003DE044F23440C5F60200006880B269
:103A1000C00808900A98806C0899884229D0FFE76E
:103A200044F22C41C5F60201086820F0010008604C
:103A3000FDF756F90990FFE7FDF752F90999401A89
:103A400008B9FFE7F8E744F23441C5F60201086817
:103A50004FF6F87290430A9A926C40EAC2000860EE
:103A600044F22C41C5F60201086840F001000860EC
:103A7000FFE7FFE7FFE7FFE700208DF82F00FFE7F4
:103A80009DF82F000CB080BD80B586B004900498DE
:103A900020B9FFE701208DF817003AE10498406A49
:103AA00008B9FFE7FFE704990020886204980068DE
:103AB00043F20001C4F2010188421BD0FFE70498E1
:103AC000006843F60001C4F20001884212D0FFE70B
:103AD0000498006843F60041C4F20001884209D00E
:103AE000FFE70498C068102804D3FFE701208DF891
:103AF00017000EE1049801F0AFFC029004980068F2
:103B000043F20001C4F20101884216D0FFE7049895
:103B1000006843F60001C4F2000188420DD0FFE7BF
:103B20000498006843F60041C4F20001884204D0C2
:103B3000FFE7029808281FD8FFE70498006843F2BF
:103B40000001C4F20101884212D0FFE70498006826
:103B500043F60001C4F20001884209D0FFE704984F
:103B6000006843F60041C4F20001884208D1FFE733
:103B70000298112804D3FFE701208DF81700C8E050
:103B8000049890F8810040B9FFE70499002081F87B
:103B90008000049800F0C4F8FFE70499022081F83F
:103BA000810004980168086820F00100086004980A
:103BB0000068806800F4F810039004988069B0F100
:103BC000806F1BD1FFE704984068B0F5800F04D1E7
:103BD000FFE70498806B50B1FFE70498406868B92C
:103BE000FFE70498806BB0F1805F07D1FFE704988E
:103BF0000168086840F480500860FFE70498807905
:103C00004006002810D5FFE70498C06807280BD3AA
:103C1000FFE704980068006820F48070049A116837
:103C2000126D1043086006E004980168086820F4EB
:103C300080700860FFE7049B1968DA68D869D3F8D8
:103C400028C040EA0C00DDF80CC040EA0C00DB6B39
:103C5000184310438860049A0192506B516A0843DC
:103C6000916B0843916908431168D2F804C09368C6
:103C7000D2F810E040EA0E00D2F814E040EA0E005C
:103C8000D2F820E040EA0E0040EA0C00D2F84CC026
:103C900040EA0C001843936C1843926D1043C860BF
:103CA0000498406898B9FFE704980068806801218B
:103CB00061F3CC20049909688860049800688068E2
:103CC000022161F34A20049909688860FFE704989B
:103CD0000168086D20F001000865049880794006AD
:103CE00000280BD5FFE704980068C06820F000406A
:103CF000049A1168526D1043C860FFE704990020D0
:103D0000C1F88400049A012182F881108DF817000F
:103D1000FFE79DF8170006B080BD0000000000001E
:103D200080B5B8B0379000203690359034903390FD
:103D3000329002A8C021FCF707FB3798006843F2D5
:103D40000001C4F2010188423CD1FFE7002003904A
:103D50004FF4805102911A9002A8FDF735FC18B17A
:103D6000FFE7FCF789FDFFE7FFE744F2F040C5F607
:103D70000200016841F480510160006800F4805045
:103D800001900198FFE7FFE744F2E040C5F602002A
:103D9000016841F001010160006800F0010000903D
:103DA0000098FFE7E020329002203390002034900A
:103DB0003590052036900020C5F6020032A9FCF7A8
:103DC00077FDFFE738B080BD82B00190009140F2EE
:103DD0000441C5F600010868019A9043009A104317
:103DE000086002B07047000081B0009001B07047D9
:103DF00081B0009001B0704781B0009001B0704771
:103E000084B00290019100200090FFE7029890F8A2
:103E10003C00012804D1FFE702208DF80F0074E078
:103E20000299012081F83C00FFE7FFE7009820F0AD
:103E3000FF000199C96808430090009820F4407081
:103E40000199896808430090009820F480600199E6
:103E5000496808430090009820F4006001990968BF
:103E600008430090009820F48050019909690843A4
:103E70000090009820F4005001994969084300908F
:103E8000009820F480400199896A084300900098C6
:103E900020F470200199896940EA0140009002985D
:103EA00000680021C4F20101884209D0FFE70298AE
:103EB000006840F20041C4F20101884217D1FFE7D7
:103EC000009820F470000199496A40EA015000907E
:103ED000009820F080700199C9690843009000980B
:103EE00020F000700199096A08430090FFE70098EC
:103EF000029909684864FFE70299002081F83C00B4
:103F0000FFE700208DF80F00FFE79DF80F0004B0D9
:103F1000704700000000000085B003900291FFE7A9
:103F2000039890F83C00012804D1FFE702208DF8A7
:103F3000130099E00399012081F83C00FFE7FFE7B7
:103F40000399022081F83D000398006840680190C1
:103F50000398006880680090039800680021C4F20C
:103F60000101884209D0FFE70398006840F2004150
:103F7000C4F2010188420AD1FFE7019820F47000E1
:103F8000019002984168019808430190FFE7019869
:103F900020F0700001900298016801980843019098
:103FA0000198039909684860039800680021C4F2E9
:103FB000010188423CD0FFE703980068B0F1804FD0
:103FC00036D0FFE70398006840F20041C4F20001D8
:103FD00088422DD0FFE70398006840F60001C4F244
:103FE0000001884224D0FFE70398006840F60041B2
:103FF000C4F2000188421BD0FFE70398006840F23A
:104000000041C4F20101884212D0FFE70398006822
:1040100041F60001C4F20001884209D0FFE703988D
:10402000006844F20001C4F2010188420ED1FFE7AA
:10403000009820F080000090029881680098084362
:1040400000900098039909688860FFE703990120B0
:1040500081F83D00FFE70399002081F83C00FFE76D
:1040600000208DF81300FFE79DF8130005B070479E
:1040700080B582B00090009820B9FFE701208DF84C
:10408000070045E0009890F83D0040B9FFE700992F
:10409000002081F83C00009800F03EF8FFE700990E
:1040A000022081F83D00009951F8040B01F084FBD7
:1040B0000099012081F84800FFE70099012081F86C
:1040C0003E00009981F83F00009981F84000009976
:1040D00081F84100009981F84200009981F843007D
:1040E000FFE7FFE70099012081F84400009981F87B
:1040F0004500009981F84600009981F84700FFE7E4
:104100000099012081F83D0000208DF80700FFE7AD
:104110009DF8070002B080BD80B584B0039003987D
:10412000006841F20041C4F20001884219D1FFE762
:10413000FFE744F2E840C5F60200016841F02001C3
:104140000160006800F0200002900298FFE737202D
:10415000019000221146FCF717FF0198FCF708FFB9
:10416000FFE704B080BD000083B00190019890F893
:104170003D00012804D0FFE701208DF80B0071E01D
:104180000199022081F83D0001980168C86840F05B
:104190000100C860019800680021C4F20101884252
:1041A0003CD0FFE701980068B0F1804F36D0FFE7C0
:1041B0000198006840F20041C4F2000188422DD00D
:1041C000FFE70198006840F60001C4F20001884250
:1041D00024D0FFE70198006840F60041C4F20001D6
:1041E00088421BD0FFE70198006840F20041C4F20A
:1041F0000101884212D0FFE70198006841F60001F2
:10420000C4F20001884209D0FFE70198006844F237
:104210000001C4F20101884219D1FFE7019800684A
:1042200080680721C0F2010108400090009806282C
:104230000CD0FFE70098B0F5803F07D0FFE701986A
:104240000168086840F001000860FFE706E0019897
:104250000168086840F001000860FFE700208DF861
:104260000B00FFE79DF80B0003B070470000000053
:1042700081B0009001B0704780B584B0039003987E
:104280000068C068029003980068006901909DF87A
:1042900004008007002824D5FFE79DF80800800768
:1042A00000281DD5FFE7039801686FF00200086140
:1042B000039901200877039800688069800720B17E
:1042C000FFE70398FFF7D4FF06E0039800F094F9A6
:1042D000039800F005FAFFE7039900200877FFE74D
:1042E000FFE79DF804004007002825D5FFE79DF86B
:1042F0000800400700281ED5FFE7039801686FF00B
:104300000400086103990220087703980068806917
:1043100010F4407F04D0FFE70398FFF7A9FF06E001
:10432000039800F069F9039800F0DAF9FFE70399C0
:1043300000200877FFE7FFE79DF80400000700284A
:1043400024D5FFE79DF80800000700281DD5FFE7EA
:10435000039801686FF0080008610399042008774A
:1043600003980068C069800720B1FFE70398FFF752
:104370007FFF06E0039800F03FF9039800F0B0F9E2
:10438000FFE7039900200877FFE7FFE79DF80400A7
:10439000C006002825D5FFE79DF80800C0060028C4
:1043A0001ED5FFE7039801686FF0100008610399BC
:1043B0000820087703980068C06910F4407F04D093
:1043C000FFE70398FFF754FF06E0039800F014F9A5
:1043D000039800F085F9FFE7039900200877FFE7CD
:1043E000FFE79DF80400C00778B1FFE79DF80800DB
:1043F000C00748B1FFE7039801686FF0010008614A
:10440000039800F071F9FFE7FFE7019800F08000E2
:10441000802806D0FFE79DF805008006002810D50B
:10442000FFE79DF808000006002809D5FFE703987C
:1044300001686FF4025008610398FFF7D9FCFFE7A9
:10444000FFE79DF80500C00780B1FFE79DF8080071
:104450000006002809D5FFE7039801686FF4807013
:1044600008610398FFF7C0FCFFE7FFE79DF8040031
:104470004006002810D5FFE79DF8080040060028F8
:1044800009D5FFE7039801686FF0400008610398C1
:1044900000F04EF9FFE7FFE79DF8040080060028D2
:1044A00010D5FFE79DF808008006002809D5FFE732
:1044B000039801686FF0200008610398FFF79CFCE7
:1044C000FFE7FFE704B080BD80B588B0079000200B
:1044D00006900590049003900290079800680021D0
:1044E000C4F20101884220D1FFE7FFE744F2E04037
:1044F000C5F60200016841F001010160006800F0AA
:10450000010001900198FFE74FF4807002900220B3
:104510000390002004900590012006900020C5F62D
:10452000020002A9FCF7C4F9FFE708B080BD000053
:1045300080B586B004900391029200208DF80700A8
:10454000FFE7049890F83C00012804D1FFE702201F
:104550008DF817004AE00499012081F83C00FFE73C
:10456000FFE702980090142831D80099DFE801F0A5
:104570000B2F2F2F112F2F2F172F2F2F1D2F2F2FB7
:10458000232F2F2F290004980068039901F0E8F9E0
:1045900021E004980068039901F08AFA1BE004986E
:1045A0000068039901F03CFB15E00498006803994A
:1045B00001F0EEFB0FE004980068039901F058FC4D
:1045C00009E004980068039901F0BAFC03E00120B7
:1045D0008DF80700FFE7FFE70499002081F83C0011
:1045E000FFE79DF807008DF81700FFE79DF817001B
:1045F00006B080BD0000000081B0009001B070479F
:1046000080B582B00090009820B9FFE701208DF8B6
:10461000070045E0009890F83D0040B9FFE7009999
:10462000002081F83C00009800F03EF8FFE7009978
:10463000022081F83D00009951F8040B01F0BCF80C
:104640000099012081F84800FFE70099012081F8D6
:104650003E00009981F83F00009981F840000099E0
:1046600081F84100009981F84200009981F84300E7
:10467000FFE7FFE70099012081F84400009981F8E5
:104680004500009981F84600009981F84700FFE74E
:104690000099012081F83D0000208DF80700FFE718
:1046A0009DF8070002B080BD82B0019001980068BB
:1046B0000021C4F20101884210D1FFE7FFE744F274
:1046C000F040C5F60200016841F001010160006898
:1046D00000F0010000900098FFE7FFE702B070478C
:1046E00081B0009001B0704780B582B00190019810
:1046F000006841F20001C4F20001884203D1FFE7E3
:10470000FCF7F6FAFFE70198006841F20041C4F2B5
:104710000001884208D1FFE745F2B821C2F200410A
:10472000086801300860FFE702B080BD00000000AB
:1047300081B0009001B0704783B00190FFE701980D
:1047400090F88400012804D1FFE702208DF80B00C7
:104750002CE00199012081F88400FFE7FFE701992F
:104760002420C1F888000198006800680090019832
:104770000168086820F001000860009820F00050EF
:104780000090019900204866009801990968086026
:1047900001992020C1F88800FFE70199002081F8E5
:1047A0008400FFE700208DF80B00FFE79DF80B0069
:1047B00003B070470000000080B584B00290019102
:1047C000FFE7029890F88400012804D1FFE7022057
:1047D0008DF80F0032E00299012081F88400FFE794
:1047E000FFE702992420C1F8880002980068006859
:1047F000009002980168086820F0010008600298A3
:104800000068806820F06060019908430299096897
:104810008860029801F000FC00980299096808601D
:1048200002992020C1F88800FFE70299002081F852
:104830008400FFE700208DF80F00FFE79DF80F00D0
:1048400004B080BD0000000080B584B002900191EA
:10485000FFE7029890F88400012804D1FFE70220C6
:104860008DF80F0032E00299012081F88400FFE703
:10487000FFE702992420C1F88800029800680068C8
:10488000009002980168086820F001000860029812
:104890000068806820F06040019908430299096827
:1048A0008860029801F0B8FB0098029909680860D6
:1048B00002992020C1F88800FFE70299002081F8C2
:1048C0008400FFE700208DF80F00FFE79DF80F0040
:1048D00004B080BD0000000080B582B00090009858
:1048E00020B9FFE701208DF8070046E000988069B5
:1048F00008B1FFE700E0FFE70098D0F8880040B972
:10490000FFE70099002081F88400009800F03CF84F
:10491000FFE700992420C1F8880000980168086822
:1049200020F0010008600098806A20B1FFE700983D
:1049300001F0B6FBFFE7009801F04AFD012804D121
:10494000FFE701208DF8070017E00098016848682C
:1049500020F49040486000980168886820F02A00A0
:10496000886000980168086840F0010008600098BD
:1049700001F03AFC8DF80700FFE79DF8070002B050
:1049800080BD00000000000080B5B8B03790002066
:104990003690359034903390329002A8C021FBF7C6
:1049A000D3FC3798006841F20001C4F2010188424B
:1049B0003DD1FFE70020039001210291219002A840
:1049C000FCF702FE18B1FFE7FBF756FFFFE7FFE732
:1049D00044F2F040C5F60200016841F010010160A8
:1049E000006800F0100001900198FFE7FFE744F233
:1049F000E040C5F60200016841F002010160006874
:104A000000F0020000900098FFE74FF44040329021
:104A1000022033900020349035900420369040F2EC
:104A20000040C5F6020032A9FBF742FFFFE738B0AD
:104A300080BD00000000000080B58AB0089007919A
:104A4000ADF81A2005930898D0F88800202840F087
:104A50008780FFE7079820B1FFE7BDF81A0020B96B
:104A6000FFE701208DF827007EE008990020C1F8BB
:104A7000900008992120C1F88800FCF731F90290D4
:104A8000BDF81A000899A1F85400BDF81A00089959
:104A9000A1F8560008988068B0F5805F09D1FFE75B
:104AA0000898006928B9FFE7002004900798039050
:104AB00004E00798049000200390FFE7FFE70898C0
:104AC000B0F8560088B3FFE70898029B05996A463C
:104AD00011608021002202F00FF940B1FFE7089930
:104AE0002020C1F8880003208DF827003CE00498BE
:104AF00058B9FFE7039800886FF35F2008990968A9
:104B0000886203980230039008E0049800780899BE
:104B100009688862049801300490FFE70899B1F8A9
:104B200056000138A1F85600C9E70898029B05997C
:104B30006A4611604021002202F0DEF840B1FFE732
:104B400008992020C1F8880003208DF827000BE089
:104B500008992020C1F8880000208DF8270003E084
:104B600002208DF82700FFE79DF827000AB080BDDE
:104B7000FFE7FEE70000000080B586B0002001904E
:104B80000590049003900290FCF7B2F9019801217E
:104B90008DF808108DF8090003901F228DF8102061
:104BA00087228DF811208DF812008DF813008DF8F2
:104BB00014108DF815108DF816008DF8170002A846
:104BC000FCF756F90420FCF7A7F906B080BD0000F9
:104BD00080B594B0002013901290119010900F9017
:104BE000FFE744F2E040C5F60200016841F0100121
:104BF0000160006800F010000E900E98FFE7FFE7DC
:104C000044F2E040C5F60200016841F00401016091
:104C1000006800F004000D900D98FFE7FFE744F2F4
:104C2000E040C5F60200016841F0800101600068C3
:104C300000F080000C900C98FFE7FFE744F2E040A2
:104C4000C5F60200016841F001010160006800F052
:104C500001000B900B98FFE7FFE744F2E040C5F638
:104C60000200016841F002010160006800F00200EA
:104C70000A900A98FFE7FFE744F2E040C5F6020019
:104C8000016841F008010160006800F00800099027
:104C90000998FFE70020C5F6020001900221049167
:104CA00001220592FBF7FCFF049941F20000C5F6D2
:104CB0000200069000220892FBF7F2FF069808997E
:104CC0004FF6FD720F9203220392109211910FA9D9
:104CD0000791FBF7EDFD039A0799089843F6FF73D8
:104CE00002930F931092119040F60000C5F6020057
:104CF000FBF7DEFD0198039B0799089A49F61D6CA6
:104D0000CDF83CC010931192FBF7D2FD0198039AA5
:104D1000DDF810C0059B0799CDF83CC010931193A6
:104D20001292FBF7C5FD029B039A079908980F930F
:104D30001092119040F20040C5F60200FBF7B8FD5A
:104D4000039A079908984FF6FF730F9310921190EA
:104D500040F60040C5F60200FBF7AAFDDDF810C0E2
:104D6000059B06980799089ACDF83CC010931192BC
:104D70001292FBF79DFD08994FF00070FFF724F8A1
:104D800014B080BD0000000080B582B040F2180071
:104D9000C2F20040009043F20001C4F20101016040
:104DA0004FF4800141600021019181600322C260C3
:104DB000016141614FF0806282614FF08042C261C7
:104DC000016241628162C16242638163C1630164C5
:104DD00041648164C164016541658165FEF754FEEB
:104DE00018B1FFE7FBF748FDFFE702B080BD000008
:104DF00080B59AB0002003901990189017901690E3
:104E000015901490139012901190109005A82C21D9
:104E1000FBF79AFA039940F2A000C2F20040049016
:104E20000022C4F201020260416081604FF6FF720D
:104E3000C260016141618161FFF7E2FB18B1FFE7E8
:104E4000FBF71AFDFFE7002017901890199040F229
:104E5000A000C2F2004017A9FFF75EF818B1FFE703
:104E6000FBF70AFDFFE700220292109211921292C4
:104E7000139214921592169240F2A000C2F20040D2
:104E800010A9FFF755FB18B1FFE7FBF7F5FCFFE7AB
:104E900000200190059006900790089009904FF42B
:104EA00000510A910B900C904FF000710D910E90F3
:104EB0000F9040F2A000C2F2004005A9FEF7A0FF4B
:104EC00018B1FFE7FBF7D8FCFFE740F2A000C2F201
:104ED0000040FFF7F9FA1AB080BD000000000000A2
:104EE00080B584B0002103910291019140F2381005
:104EF000C2F2004041F20042C4F2000202601322FA
:104F0000426081604FF4FA71C16080218161FFF7D6
:104F1000AFF818B1FFE7FBF7AFFCFFE70020019007
:104F2000039040F23810C2F2004001A9FEF7F4FFEE
:104F300018B1FFE7FBF7A0FCFFE704B080BD00005D
:104F400080B582B040F28410C2F20040009041F27D
:104F50000001C4F2010101604FF4E1314160002120
:104F600001918160C16001610C2242618161C16176
:104F7000016241628162FFF7AFFC18B1FFE7FBF706
:104F80007BFCFFE740F28410C2F200400021FFF7F3
:104F90005BFC18B1FFE7FBF76FFCFFE740F2841002
:104FA000C2F200400021FFF707FC18B1FFE7FBF752
:104FB00063FCFFE740F28410C2F20040FFF7BCFB45
:104FC00018B1FFE7FBF758FCFFE702B080BD000017
:104FD000FFE7FEE700000000FFE7FEE7000000003B
:104FE00088B0079006910592079800F0070004909A
:104FF0000498C0F10700052803D3FFE704200190BF
:1050000004E00498C0F107000190FFE701980390C5
:1050100004980430062803D8FFE70020009003E03E
:10502000049803380090FFE70098029006980399CF
:10503000012202FA01F101390840029B98400599CA
:105040009A40013A1140084308B070470000000040
:10505000EFF30980BFF36F8F154B1A681EF0100F26
:1050600008BF20ED108A20E9F04F10602DE90900FB
:105070004FF0500072B680F31188BFF34F8FBFF32B
:105080006F8F62B603F0D4FB4FF0000080F31188FD
:10509000BDE8090019680868B0E8F04F1EF0100F6D
:1050A00008BFB0EC108A80F30988BFF36F8F704798
:1050B000180200240000000080B586B0049003911F
:1050C00000208DF8070044F22840C5F60200006871
:1050D00000F00300032804D1FFE701208DF817003A
:1050E000CBE044F20041C5F60201086820F0806080
:1050F0000860FBF7F5FD0290FFE744F20040C5F6BB
:105100000200006800F000610020B0EBD16F0CD00D
:10511000FFE7FBF7E5FD0299401A032804D3FFE7F8
:1051200003208DF81700A8E0E7E7FFE744F22841E5
:10513000C5F60201086820F47C30049A126840EA3F
:105140000230086004994868D1F808C0CB680A6941
:1051500001386FF35F204FF60061CFF6FF7101EB6E
:105160004C2189B208440021CFF6FF7101EB0341C5
:1051700001F4FE0108444FF07F4101EB026101F0B0
:10518000FE41084444F23841C5F602010860FFE7D9
:1051900044F22C41C5F602010091086820F0C000DD
:1051A000049A526910430860086820F02000049AAD
:1051B000926910430860086820F01000086044F20B
:1051C0003C42C5F6020210684FF6F8739843049B00
:1051D000DB6940EAC3001060086840F01000086016
:1051E000039848B9FFE744F22C41C5F6020108686C
:1051F00040F40020086016E00398012809D1FFE779
:1052000044F22C41C5F60201086840F480100860A1
:1052100008E044F22C41C5F60201086840F4001091
:105220000860FFE7FFE744F20041C5F602010868A5
:1052300040F080600860FBF753FD0290FFE744F206
:105240000040C5F60200006800F000610020B0EBED
:10525000D16F0CD1FFE7FBF743FD0299401A0328F9
:1052600004D3FFE703208DF8170006E0E7E7FFE728
:105270009DF807008DF81700FFE79DF8170006B0AE
:1052800080BD00000000000080B586B0049003914E
:1052900000208DF8070044F22840C5F6020000689F
:1052A00000F00300032804D1FFE701208DF8170068
:1052B000CBE044F20041C5F60201086820F08050BE
:1052C0000860FBF70DFD0290FFE744F20040C5F6D1
:1052D0000200006800F000510020B0EB517F0CD0BC
:1052E000FFE7FBF7FDFC0299401A032804D3FFE710
:1052F00003208DF81700A8E0E7E7FFE744F2284114
:10530000C5F60201086820F07C70049A126840EA31
:105310000250086004994868D1F808C0CB680A694F
:1053200001386FF35F204FF60061CFF6FF7101EB9C
:105330004C2189B208440021CFF6FF7101EB0341F3
:1053400001F4FE0108444FF07F4101EB026101F0DE
:10535000FE41084444F24041C5F602010860FFE7FF
:1053600044F22C41C5F602010091086820F4406027
:10537000049A526910430860086820F40070049A87
:10538000926910430860086820F48070086044F255
:105390004442C5F6020210684FF6F8739843049B26
:1053A000DB6940EAC3001060086840F48070086060
:1053B000039848B9FFE744F22C41C5F6020108689A
:1053C00040F48000086016E00398012809D1FFE747
:1053D00044F22C41C5F60201086840F40000086060
:1053E00008E044F22C41C5F60201086840F08070E4
:1053F0000860FFE7FFE744F20041C5F602010868D4
:1054000040F080500860FBF76BFC0290FFE744F22D
:105410000040C5F60200006800F000510020B0EB2B
:10542000517F0CD1FFE7FBF75BFC0299401A032880
:1054300004D3FFE703208DF8170006E0E7E7FFE756
:105440009DF807008DF81700FFE79DF8170006B0DC
:1054500080BD00000000000083B002900298C16B84
:10546000012000EB511001900298C06801300090BB
:1054700000980730C008009000980199484303B095
:105480007047000000000000000000000000000065
:10549000074B19680868B0E8F04F80F30988BFF33C
:1054A0006F8F4FF0000080F31188704700BF00BF7E
:1054B000180200240000000080B582B00190FFE7D0
:1054C0000020C5F602000221FBF7D6FB012002F006
:1054D00017FFF5E70000000080B582B04FF05000E4
:1054E00072B680F31188BFF36F8FBFF34F8F62B630
:1054F000009003F039FB40B1FFE74EF60451CEF2C5
:1055000000014FF08050086000E0FFE700200190AC
:10551000019880F3118802B080BD000000000000F7
:1055200080B59EB00BA84C21FAF70EFF0020019029
:105530000A900990089007900690059004900390B7
:105540000220FBF741FDFFE70020029040F22C40D3
:10555000C5F60000016821F001010160006800F05B
:105560000100029044F61800C5F60200016841F4FB
:1055700040410160006800F4404002900298FFE75B
:10558000FFE744F61800C5F60200006800F400507A
:10559000B0F5005F01D0FFE7F3E701200B904FF477
:1055A00080300C9002201490159016904021179195
:1055B0001890042119911A900C201B9000201C9027
:1055C0001D900BA8FDF7B4FC18B1FFE7FBF754F9E9
:1055D000FFE73F200390032004900020059008205F
:1055E00006904020079008904FF4806109910A903E
:1055F00003A80221FDF738F818B1FFE7FBF73CF9E3
:10560000FFE71EB080BD000081B04EF68851CEF29B
:105610000001086840F47000086042F20000C5F222
:105620000020006800F00F0006280AD8FFE742F2C9
:105630000001C5F200210868072262F30300086038
:10564000FFE744F20041C5F60201086840F001009E
:10565000086044F21042C5F602020020106008689B
:105660004EF67F52CEF6F6221040086042F200005D
:10567000C5F20020006800F00F0008280AD3FFE7F9
:1056800042F20001C5F200210868072262F303001C
:105690000860FFE744F21841C5F6020100200090BF
:1056A000086044F21C41C5F60201086044F2204142
:1056B000C5F60201086044F22842C5F6020240F233
:1056C0000021C0F20221116044F22C42C5F6020210
:1056D0000021C0F2FF11116044F23042C5F602020F
:1056E00040F28021C0F20111116044F23442C5F64B
:1056F0000202106044F23842C5F60202116044F220
:105700003C42C5F60202106044F24042C5F6020275
:10571000116044F24441C5F60201086044F20042BF
:10572000C5F60202116821F48021116044F2604143
:10573000C5F60201086041F20001C5F600410968A2
:10574000B0EB517F07D1FFE748F20811C5F2001115
:1057500001200860FFE744F2D440C5F6020000686B
:10576000C004002814D4FFE744F2D441C5F6020176
:10577000086840F48050086044F20002C5F200223C
:1057800043F2D2001060086820F480500860FFE700
:1057900001B070470000000080B540F2EC00C2F29A
:1057A0000040FEF769FD80BD80B540F23810C2F2BE
:1057B0000040FEF761FD80BD83B002900191029828
:1057C0000068009002980021C4F20101884225D0AF
:1057D000FFE70298B0F1804F20D0FFE7029840F237
:1057E0000041C4F20001884218D0FFE7029840F659
:1057F0000001C4F20001884210D0FFE7029840F691
:105800000041C4F20001884208D0FFE7029840F24C
:105810000041C4F2010188420AD1FFE7009820F05C
:105820007000009001984168009808430090FFE7DD
:1058300002980021C4F2010188423DD0FFE702989E
:10584000B0F1804F38D0FFE7029840F20041C4F237
:105850000001884230D0FFE7029840F60001C4F210
:105860000001884228D0FFE7029840F60041C4F2C8
:105870000001884220D0FFE7029840F20041C4F2C4
:105880000101884218D0FFE7029844F20001C4F2F7
:105890000101884210D0FFE7029844F20041C4F2AF
:1058A0000101884208D0FFE7029844F60001C4F2E3
:1058B000010188420AD1FFE7009820F4407000906F
:1058C0000198C168009808430090FFE7009820F015
:1058D0008000019949690843009001988068029905
:1058E000C862019800680299886202980021C4F297
:1058F0000101884220D0FFE7029840F20041C4F243
:105900000101884218D0FFE7029844F20001C4F276
:105910000101884210D0FFE7029844F20041C4F22E
:105920000101884208D0FFE7029844F60001C4F262
:105930000101884205D1FFE70198006902990863D7
:10594000FFE70299086840F004000860029901200E
:10595000486100980299086003B070470000000099
:1059600085B0049003910498006A01900499086A34
:1059700020F0010008620498406800900498806953
:10598000029002984FF68F71CFF6FE710840029098
:10599000029820F0030002900398016802980843DF
:1059A0000290019820F0020001900398816801980C
:1059B0000843019004980021C4F20101884220D0DC
:1059C000FFE7049840F20041C4F20101884218D078
:1059D000FFE7049844F20001C4F20101884210D0AC
:1059E000FFE7049844F20041C4F20101884208D064
:1059F000FFE7049844F60001C4F2010188420ED189
:105A0000FFE7019820F0080001900398C168019811
:105A100008430190019820F004000190FFE70498EA
:105A20000021C4F20101884220D0FFE7049840F22F
:105A30000041C4F20101884218D0FFE7049844F203
:105A40000001C4F20101884210D0FFE7049844F23B
:105A50000041C4F20101884208D0FFE7049844F6EF
:105A60000001C4F20101884213D1FFE7009820F43D
:105A700080700090009820F40070009003984169B5
:105A800000980843009003988169009808430090AB
:105A9000FFE7009804994860029804998861039888
:105AA00040680499486301980499086205B07047FA
:105AB00085B0049003910498006A01900499086AE3
:105AC00020F01000086204984068009004988069F3
:105AD0000290029848F6FF71CFF6FF6108400290ED
