:020000040800F2
:10000000F8580024AD02000859510008E14D0008DD
:1000100051510008A9080008116000080000000004
:100020000000000000000000000000000155000872
:10003000D909000800000000615100082955000896
:10004000CB020008CB020008CB020008CB0200085C
:10005000CB020008CB020008CB020008CB0200084C
:10006000CB020008CB020008CB020008B108000850
:10007000CB020008CB020008CB020008CB0200082C
:10008000CB020008CB020008CB020008CB0200081C
:10009000CB020008CB020008CB020008CB0200080C
:1000A000CB020008CB020008CB020008CB020008FC
:1000B000CB020008CB020008CB020008CB020008EC
:1000C000CB020008CB020008CB020008095400084C
:1000D000CB020008CB020008CB020008CB020008CC
:1000E000CB020008CB02000800000000CB02000891
:1000F000CB020008CB020008CB020008CB020008AC
:10010000CB020008CB020008CB020008CB0200089B
:10011000CB020008CB020008195700082957000835
:10012000CB020008CB020008CB020008CB0200087B
:10013000CB020008CB020008CB020008CB0200086B
:1001400000000000000000000000000000000000AF
:10015000CB020008CB020008CB020008CB0200084B
:10016000CB020008CB020008CB020008CB0200083B
:10017000CB020008CB020008CB0200080000000000
:10018000CB020008CB020008CB020008CB0200081B
:10019000CB020008CB020008CB020008CB0200080B
:1001A000CB020008CB020008CB020008CB020008FB
:1001B000CB020008CB020008CB020008CB020008EB
:1001C000CB020008CB020008CB020008CB020008DB
:1001D000CB020008CB020008CB020008CB020008CB
:1001E000CB020008CB020008CB020008CB020008BB
:1001F000CB020008CB020008CB020008CB020008AB
:10020000CB020008CB020008CB020008CB0200089A
:10021000CB020008CB020008CB020008CB0200088A
:10022000CB020008CB020008CB020008000000004F
:10023000CB020008CB02000800000000CB0200083F
:10024000CB020008CB020008CB020008CB0200085A
:10025000CB020008CB020008CB020008CB0200084A
:10026000CB020008CB020008CB020008CB0200083A
:10027000CB020008CB020008CB02000800000000FF
:10028000CB020008CB020008CB02000800000000EF
:1002900000000000CB020008DFF80CD000F07AFA72
:1002A0000048004791640008F85800240748804738
:1002B0000748804707480047FEE7FEE7FEE7FEE7FE
:1002C000FEE7FEE7FEE7FEE7FEE7FEE7F1090008CE
:1002D00029560008990200082DE9F05F0546002024
:1002E00092469B4688460646814640241BE02846A7
:1002F00041464746224600F084F853465A46C01A03
:10030000914110D311461846224600F06BF82D1A81
:1003100067EB01084F4622460120002100F062F8F9
:1003200017EB00094E41201EA4F10104DFDC484612
:1003300031462A464346BDE8F09F40EA01039B0749
:1003400003D009E008C9121F08C0042AFAD203E04A
:1003500011F8013B00F8013B521EF9D27047D2B2AE
:1003600001E000F8012B491EFBD270470022F6E79E
:1003700010B513460A4604461946FFF7F0FF20461B
:1003800010BD421C10F8011B0029FBD1801A7047D8
:10039000034611F8012B00F8012B002AF9D1184669
:1003A00070470022CBB20178994200D10246401C2E
:1003B0000029F8D11046704730B50B4601460020A1
:1003C0002022012409E021FA02F59D4205D303FA17
:1003D00002F5491B04FA02F52844151EA2F1010298
:1003E000F1DC30BD202A04DB203A00FA02F10020C3
:1003F00070479140C2F1200320FA03F31943904063
:100400007047202A04DB203A21FA02F000217047CD
:1004100021FA02F3D040C2F120029140084319466C
:1004200070472DE9FE4F804681EA0300C00F0C465D
:10043000009021F0004123F00045B8EB0200A941F3
:1004400005D24046214690461C460B46024623F004
:100450000040104347D0270DC7F30A00C3F30A51E9
:100460000290401A019040286BDAC3F3130040F465
:10047000801B0098924620B10023D2EB030A63EB65
:100480000B0B01985946C0F140025046FFF7AAFFF6
:1004900006460D4650465946019A00F093F910EB76
:1004A00008006141002487EA115284EAE7731A4385
:1004B00040D0009A62B3019A012A4FEA075215DC34
:1004C000001B61EB02014FF0004202EA0752CDE946
:1004D0000042001C41F5801132462B4600F093F992
:1004E00003B0BDE8F08F40462146F9E7001B61EB01
:1004F0000201001C41F5801300185B412018A2F591
:10050000001747EB030140EAD570B6196D4111E0C1
:100510006D084FEA360645EAC0754FEA0752001BE0
:1005200061EB0201001C41F5801149084FEA3000DF
:100530000019514132462B4603B0BDE8F04F00F0A0
:1005400053B90098012240000023D0EB020263EB74
:10055000E073009821464FEAE074B8EB000061EBCD
:100560000401E9E783F000435BE781F0004158E7CD
:100570002DE9FE4F81EA030404F0004421F000411C
:1005800000944FF0000B23F0004350EA01045ED0CA
:1005900052EA03045BD0C3F30A54C1F30A552C4456
:1005A000A4F2F3340194A0FB0254C1F3130141F40B
:1005B0008011C3F3130343F4801301FB024400FBD7
:1005C000034E840A970A44EA815447EA8357A4FBFE
:1005D000076802958D0A05FB07854FEA932C04FBFB
:1005E0000C542705029D4FEA065847EA1637B5EB2B
:1005F00008056EEB070C870E920E47EA811742EA58
:100600008312A7FB0201B6EB0B0164EB00042B0D78
:1006100043EA0C335E1844EB1C50DA465146E7FBC4
:100620000201C5F313044FEA0B3343EA14534FEAB4
:100630000432019C43EA0603A4F10C040294009CDA
:10064000CDE900B400F0DFF803B0BDE8F08F002082
:100650000146F9E72DE9F04D81EA030404F0004B6F
:1006600021F0004514464FF0000A23F0004150EA03
:10067000050220D054EA01021DD0C5F30A570246F4
:10068000C5F31303C1F31300C1F30A5640F48015F8
:1006900043F48013A7EB0608101BD64608F2FD387A
:1006A00073EB050002D308F1010801E092185B41E9
:1006B000B8F1000F03DA00200146BDE8F08D0020FC
:1006C0004FF48011064684460EE0171B73EB0507B6
:1006D00005D3121B63EB050306434CEA010C4908E2
:1006E0004FEA300092185B4150EA0107EDD152EA1F
:1006F000030012D082EA040083EA0501084305D012
:10070000101BAB4106D20122002306E000224FF06D
:10071000004302E06FF0010253101AEB06004CEBAD
:10072000085110EB0A0041EB0B01BDE8F04D00F061
:100730005BB8C1F30A52C1F3130140F2FF3341F435
:1007400080119A4202DA00200146704740F233439A
:100750009A42A2F2334202DC5242FFF752BEFFF746
:1007600041BE000030B5041E71F1000404DB4FF0FF
:100770000044404264EB0101141E73F1000405DBE8
:100780001C464FF00043524263EB0403994208BFFA
:10079000904230BD1CB509480090094801900546BB
:1007A000009C06E0E06840F0010394E807009847E9
:1007B0001034AC42F6D3FFF773FD0000209600081A
:1007C00040960008202A06DBCB17203A41FA02F0B7
:1007D00043EAE07306E041FA02F3D040C2F120029E
:1007E000914008431946704710B5141E73F1000478
:1007F00008DA401C41F1000192185B411A4301D113
:1008000020F0010010BD2DE9F04D92469B4611B13C
:10081000B1FA81F202E0B0FA80F220329046FFF79E
:10082000E1FD04460F4640EA0A0041EA0B01534647
:100830005A46084313D0114653EA010019D0C8F1B3
:1008400040025046FFF7DDFD05460E46504659462C
:100850004246FFF7C7FD084305D0012004E02046CB
:100860003946BDE8F08D0020054346EAE0762C438A
:1008700037430A986305E40AA0EB08000022FD0A4A
:1008800044EA47540A3002D500200146E9E7010551
:1008900010196941DDE9084500196941BDE8F04DCD
:1008A000A2E7000000000000FEE7000000000000DA
:1008B00040F21800C2F2004000F0F6B9000000005B
:1008C00040F20F42D0F800C0C4F20202944510DC9E
:1008D0006F22C4F20202944520DC3F22C4F20202DD
:1008E000944536DC1022C4F20202944554D02822EA
:1008F0004EE040F26F42C4F2020294451ADC40F22C
:100900003F42C4F2020294452ADC40F21042C4F293
:100910000202944540D040F2284239E09F22C4F2BE
:100920000202944525DC7022C4F20202944533D0C1
:1009300088222DE040F29F42C4F2020294451FDC5F
:1009400040F27042C4F20202944525D040F288423F
:100950001EE04022C4F2020294451DD0582217E046
:1009600040F24042C4F20202944515D040F258428F
:100970000EE0A022C4F2020294450DD0B82207E096
:1009800040F2B842C4F20202944505D040F2A042BF
:10099000C4F20202944517D10CF0F8024AF6AB23D8
:1009A000103ACAF6AA23A2FB033109A35F2AC1F3B6
:1009B00002115B5C40F2FF312CEA0101C36588BF84
:1009C00004318165084670472CF0FF01F9E700BF4C
:1009D0000006101600061016704700000000000008
:1009E000EFF3108072B600BFFEE7000000000000C9
:1009F00044F60C00C5F60200016841F002010160F6
:100A000050F8081C8904FBD5704700000000000066
:100A1000F0B190F83510022918D180B540F20F429C
:100A20000168C4F20202914214DC6F23C4F2020393
:100A3000994224DC3F23C4F2020399423ADC10239A
:100A4000C4F20203994258D0282352E08021416524
:100A50000120704740F26F43C4F2020399421ADC4E
:100A600040F23F43C4F2020399422ADC40F21043B1
:100A7000C4F20203994240D040F2284339E09F2358
:100A8000C4F20203994225DC7023C4F202039942A6
:100A900033D088232DE040F29F43C4F202039942F1
:100AA0001FDC40F27043C4F20203994225D040F2A9
:100AB00088431EE04023C4F2020399421DD058230C
:100AC00017E040F24043C4F20203994215D040F2CD
:100AD00058430EE0A023C4F2020399420DD0B8237C
:100AE00007E040F2B843C4F20203994205D040F255
:100AF000A043C4F2020399426ED191424FF0040226
:100B000080F8352010DC6F20C4F20200814220DC26
:100B10003F20C4F20200814236DC1020C4F2020001
:100B2000814253D028204EE040F26F40C4F20200D0
:100B300081421ADC40F23F40C4F2020081422ADCCA
:100B400040F21040C4F2020081423FD040F22840FF
:100B500039E09F20C4F20200814225DC7020C4F2FB
:100B60000200814232D088202DE040F29F40C4F242
:100B7000020081421FDC40F27040C4F20200814258
:100B800024D040F288401EE04020C4F2020081429E
:100B90001CD0582017E040F24040C4F202008142CD
:100BA00014D040F258400EE0A020C4F2020081426E
:100BB0000CD0B82007E040F2B840C4F202008142F5
:100BC00004D040F2A040C4F202008142086820F044
:100BD00001000860002080BD0A6822F00E020A6051
:100BE00045F25742C5F6020291420A6822F001021C
:100BF0000A600EDC45F22F42C5F60202914217DC74
:100C000045F20842C5F60202914226D045F21C4246
:100C10001FE045F27F42C5F60202914211DC45F227
:100C20005842C5F60202914217D045F26C4210E0DC
:100C300045F23042C5F6020291420ED045F24442DE
:100C400007E045F29442C5F60202914205D045F212
:100C50008042C5F6020291421AD1D0E9181CD0E9AF
:100C600016E30A6822F480720A6003F01F01012271
:100C700002FA01F1CEF80410816ECCF80410C16EB6
:100C800031B10A6822F480720A60D0E91C124A600D
:100C9000012180F83510016D0022002980F83420F0
:100CA00098D08847002080BD2DE9F04381B0002115
:100CB000009140F2040148F2B513C2F20041C1F6BE
:100CC0004E33856D40F26F490A680168C4F202092B
:100CD0002E68A2FB032849452B6815DC9F22C4F22D
:100CE000020291422BDC5722C4F2020291424FDCF5
:100CF0001022C4F20202914278D02822C4F20202E9
:100D0000914273D040226CE045F22F42C5F60202B8
:100D1000914227DC40F2B742C4F20202914243DC26
:100D200040F27042C4F2020291425FD040F2884227
:100D3000C4F20202914259D040F2A04251E040F286
:100D40002742C4F2020291423DDCA022C4F2020218
:100D500091424BD0B822C4F20202914246D040F2F6
:100D600010423EE045F26B42C5F60202914275DC4C
:100D700045F23042C5F60202914200F0828045F20F
:100D80004442C5F6020291427BD045F2584273E0DC
:100D90005822C4F20202914228D07022C4F2020208
:100DA000914223D088221CE040F2B842C4F20202F1
:100DB00091421BD045F20842C5F60202914260D032
:100DC00045F21C4258E040F22842C4F2020291422D
:100DD0000CD040F24042C4F20202914206D040F2EE
:100DE0005842C4F20202914240F02D84C26D0823A1
:100DF00002F01F029340334200F0168140F20F448C
:100E0000C4F20204A1424FF0040413DC6F27C4F2C1
:100E10000207B94200F391803F27C4F20207B942AA
:100E200000F3D2801027C4F20207B94200F0F0802C
:100E30002827E8E0494500F38C8040F23F47C4F2A0
:100E40000207B94200F3C78040F21047C4F202071C
:100E5000B94200F0DD8040F22847D4E045F26C4210
:100E6000C5F6020291420CD045F28042C5F602025C
:100E7000914206D045F29442C5F60202914240F0FA
:100E8000E2830E68C26D02F01F02042707FA02F423
:100E90001C4218BF16F004072CD1022707FA02F4EF
:100EA0001C4218BF16F0020762D1D3401B0740F165
:100EB000CA8316F0080300F0C68340F20F43C4F261
:100EC000020399426FF01C0300F318836F27C4F2EA
:100ED0000207B94200F354833F27C4F20207B94224
:100EE00000F3B4831027C4F20207B94200F0D383A1
:100EF0002827CAE332046C605ED4B20600F1A183F5
:100F000040F20F42C4F2020291426FF0080200F375
:100F1000E3826F23C4F20203994200F302833F236A
:100F2000C4F20203994200F347831023C4F2020380
:100F3000994200F0838328237AE39F27C4F20207B3
:100F4000B94251DC7027C4F20207B94260D0882749
:100F500059E040F29F47C4F20207B9424BDC40F22D
:100F60007047C4F20207B94252D040F288474AE0C3
:100F700032046C6000F19C82B20600F1CF8340F233
:100F80000F42C4F2020291426FF0140200F3D682C3
:100F90006F23C4F20203994200F315833F23C4F286
:100FA0000203994200F38C831023C4F20203994296
:100FB00000F0AB832823A2E3F10300F14283816CAC
:100FC000002940F079833EE34027C4F20207B9428A
:100FD0001ED0582717E040F24047C4F20207B9423A
:100FE00016D040F258470EE0A027C4F20207B942DB
:100FF0000ED0B82707E040F2A047C4F20207B9427A
:1010000006D040F2B847C4F20207B94218BF08241C
:101010000F68274208D00F6827F004070F60AB6005
:10102000436D43F0010343650123934033426FD086
:1010300040F20F47C4F20207B94210DC6F27C4F236
:101040000207B9421CDC3F27C4F20207B94232DC76
:101050001027C4F20207B94251D028274AE0494577
:101060001ADC40F23F47C4F20207B9422ADC40F2E0
:101070001047C4F20207B94241D040F2284739E094
:101080009F27C4F20207B94225DC7027C4F2020789
:10109000B94234D088272DE040F29F47C4F20207BE
:1010A000B9421FDC40F27047C4F20207B94226D0B1
:1010B00040F288471EE04027C4F20207B9421ED022
:1010C000582717E040F24047C4F20207B94216D051
:1010D00040F258470EE0A027C4F20207B9420ED0F2
:1010E000B82707E040F2B847C4F20207B94206D079
:1010F00040F2A047C4F20207B94240F0E1814F69D3
:1011000007F0800424B1AB60436D43F002034365F4
:101110000423934033426FD040F20F47C4F20207DA
:10112000B94210DC6F27C4F20207B9421CDC3F272A
:10113000C4F20207B94232DC1027C4F20207B942F6
:1011400051D028274AE049451ADC40F23F47C4F213
:101150000207B9422ADC40F21047C4F20207B94242
:1011600041D040F2284739E09F27C4F20207B94234
:1011700025DC7027C4F20207B94234D088272DE05D
:1011800040F29F47C4F20207B9421FDC40F27047A9
:10119000C4F20207B94226D040F288471EE0402739
:1011A000C4F20207B9421ED0582717E040F2404768
:1011B000C4F20207B94216D040F258470EE0A02709
:1011C000C4F20207B9420ED0B82707E040F2B84790
:1011D000C4F20207B94206D040F2A047C4F20207A7
:1011E000B94240F073810F6807F0020424B1AB608C
:1011F000436D43F004034365102303FA02F23242C5
:101200007ED040F20F43C4F2020399424FF008032C
:1012100010DC6F27C4F20207B9421CDC3F27C4F27E
:101220000207B94232DC1027C4F20207B94251D09A
:1012300028274AE049451ADC40F23F47C4F202073A
:10124000B9422ADC40F21047C4F20207B94241D049
:1012500040F2284739E09F27C4F20207B94225DC53
:101260007027C4F20207B94234D088272DE040F23B
:101270009F47C4F20207B9421FDC40F27047C4F234
:101280000207B94226D040F288471EE04027C4F248
:101290000207B9421ED0582717E040F24047C4F277
:1012A0000207B94216D040F258470EE0A027C4F218
:1012B0000207B9420ED0B82707E040F2A047C4F2B7
:1012C0000207B94206D040F2B847C4F20207B94259
:1012D00018BF04230F681F4212D0AA600A68520385
:1012E0000A6806D4D20506D40A6822F008020A6009
:1012F00001E0110352D4016C11B104468847204625
:10130000C16D01F01F02202101FA02F3334200F007
:10131000A68040F20F470168C4F202071026B942C6
:1013200010DC6F27C4F20207B9421CDC3F27C4F26D
:101330000207B94236DC1027C4F20207B94255D081
:1013400028274EE049451ADC40F23F47C4F2020725
:10135000B9422EDC40F21047C4F20207B94245D030
:1013600040F228473DE09F27C4F20207B94229DC3A
:101370007027C4F20207B94238D0882731E040F222
:101380009F47C4F20207B94223DC40F27047C4F21F
:101390000207B9422AD040F2884722E0816C002936
:1013A000ABD1ADE74027C4F20207B9421ED058279F
:1013B00017E040F24047C4F20207B94216D040F2AB
:1013C00058470EE0A027C4F20207B9420ED0B82752
:1013D00007E040F2A047C4F20207B94206D040F24B
:1013E000B847C4F20207B94218BF02260F68374255
:1013F00035D0AB6090F83530042B0B6816D123F054
:1014000016030B604B6923F080034B61036C0BB92F
:10141000836C1BB10B6823F008030B603F219140E4
:10142000A960012180F83510016D3FE15A030A6877
:101430000CD4D2050ED40A6822F010020A600121F1
:1014400080F83510002180F8341003E0110301D436
:10145000416C00E0C16B11B1044688472046416DE4
:10146000002900F0F080416DC9071CD0042180F8EC
:10147000351001684FEA98220B6823F001030B60D6
:10148000009B01330093934202D80B68DB07F7D12E
:101490000968C9074FF0030108BF012180F8351022
:1014A000002180F83410C16C002940F00581CAE0A9
:1014B000F10300F13381416C002940F0FD80C2E06E
:1014C00000240F68002C7FF41EAE21E600240F6874
:1014D000002C7FF48CAE8FE6494542DC40F23F435E
:1014E000C4F2020399427CDC40F21043C4F20203CE
:1014F000994200F0A38040F2284399E049454CDC32
:1015000040F23F47C4F20207B94200F3A68040F21E
:101510001047C4F20207B94200F0BD8040F22847EC
:10152000B3E09F23C4F20203994263DC7023C4F248
:101530000203994200F08280882379E0494560DC0B
:1015400040F23F43C4F20203994200F3C08040F2EC
:101550001043C4F20203994200F0D78040F22843BE
:10156000CDE040F29F43C4F20203994258DC40F2BE
:101570007043C4F20203994260D040F2884357E0BE
:101580009F27C4F20207B94270DC7027C4F2020739
:10159000B94200F08080882777E040F29F47C4F28C
:1015A0000207B94269DC40F27047C4F20207B9424F
:1015B00071D040F2884768E04023C4F202039942A8
:1015C0003CD0582334E09F23C4F20203994200F335
:1015D00087807023C4F20203994200F0968088232A
:1015E0008DE040F24043C4F20203994226D040F21B
:1015F00058431DE0A023C4F2020399421ED0B82331
:1016000016E040F29F43C4F2020399426FDC40F2BD
:101610007043C4F20203994277D040F288436EE0EF
:1016200040F2A043C4F20203994207D040F2B8430B
:10163000C4F20203994218BF6FF004020B681A400B
:101640000A60016CC1BB01B0BDE8F0834027C4F261
:101650000207B9421FD0582717E040F24047C4F2B2
:101660000207B94217D040F258470EE0A027C4F253
:101670000207B9420FD0B82707E040F2A047C4F2F2
:101680000207B94207D040F2B847C4F20207B94294
:1016900018BF6FF00E030F683B400B60012101FA89
:1016A00002F26A60416580F83510C16C00294FF084
:1016B000000280F83420C6D001B0BDE8F0430847EE
:1016C0004023C4F2020399421FD0582317E040F28E
:1016D0004043C4F20203994217D040F258430EE04F
:1016E000A023C4F2020399420FD0B82307E040F2CE
:1016F000A043C4F20203994207D040F2B843C4F2B7
:101700000203994218BF6FF00A020B681A400A6080
:10171000012180F83510002180F83410C16B0029B8
:10172000CAD190E7000000002DE9F041044600F026
:10173000F7FBECB140F26F4805462068C4F202089E
:10174000404518DC9F21C4F2020188422EDC57215B
:10175000C4F20201884254DC1021C4F20201884222
:101760007DD02821C4F20201884278D0402171E066
:101770000120BDE8F08145F22F41C5F60201884203
:1017800027DC40F2B741C4F20201884245DC40F256
:101790007041C4F20201884261D040F28841C4F233
:1017A000020188425BD040F2A04153E040F2274161
:1017B000C4F2020188423FDCA021C4F20201884247
:1017C0004DD0B821C4F20201884248D040F2104105
:1017D00040E045F26B41C5F60201884200F38D807E
:1017E00045F23041C5F60201884200F0988045F28A
:1017F0004441C5F60201884200F0918045F258410B
:1018000089E05821C4F20201884228D07021C4F234
:101810000201884223D088211CE040F2B841C4F282
:10182000020188421BD045F20841C5F602018842F8
:1018300075D045F21C416EE040F22841C4F202012D
:1018400088420CD040F24041C4F20201884206D0E6
:1018500040F25841C4F20201884240F0C5800221A2
:1018600084F83510002184F83410016821F001015A
:10187000016000BF20680168C9070CD000F050FB70
:10188000401B0628F6D320206065032084F835002D
:101890000120BDE8F08148F23F0204F1080601682A
:1018A000CFF61062114065694CCE1143A26919430D
:1018B000E3693143266A0D43616A2B43042943EAF5
:1018C000060343EA020303D1D4E90B652E433343F5
:1018D00041F20006C5F600463668B6F1005F6CD3EB
:1018E0006568A5F12906202E5DD23F27CCF2C037CE
:1018F000F740FF0757D001255BE045F26C41C5F684
:10190000020188420BD045F28041C5F602018842AF
:1019100005D045F29441C5F60201884264D104F134
:10192000080E022184F83510002184F83410016873
:10193000A3699EE80450A2F18005E769B5FA85F530
:1019400066696D09402A4FEA853543EA07026FF35D
:10195000101142EA060208BF102541EADC0142EA02
:101960000E022943236A41EAD2014AF6F832CAF24A
:10197000FD724CF6CD470244CCF6CC4741EA131138
:10198000A2FB072301606FF0030000EA9300E0650B
:101990002046FEF795FFE16D012201F01F0102FADA
:1019A00001F141604AE0A5F14F060025042E38BF41
:1019B0000125002D18BF43F48013036004294369F7
:1019C00023F0070341EA03012DD1D4E90A5341EA88
:1019D000050143B3B2F5005F08D09AB9022D16D0C5
:1019E000012D09D09DB115E040204DE7032D11D800
:1019F000DFE805F00A0D0A02A3F1C072B2FA82F222
:101A0000520908E0032D01D2012204E002D1C3F300
:101A1000006200E0002232B140206065012084F8BD
:101A20003500BDE8F08141612046FEF749FFE16DD8
:101A30003F2201F01F0102FA01F181602068404558
:101A400019DC9F21C4F20201884231DC5721C4F223
:101A50000201884256DC1021C4F20201884200F0E3
:101A600092802821C4F20201884200F08C8040213B
:101A7000C4F2020184E045F22F41C5F6020188421A
:101A80002BDC40F2B741C4F20201884248DC40F24C
:101A90007041C4F20201884275D040F28841C4F21C
:101AA000020188426FD040F2A041C4F2020167E017
:101AB00040F22741C4F20201884240DCA021C4F276
:101AC000020188425FD0B821C4F2020188425AD094
:101AD00040F21041C4F2020152E045F26B41C5F6FA
:101AE000020188423CDC45F23041C5F602018842E1
:101AF00049D045F24441C5F60201884243D045F23F
:101B000058413BE05821C4F2020188423BD0702189
:101B1000C4F20201884236D08821C4F202012FE0CB
:101B200040F2B841C4F2020188422CD045F208418B
:101B3000C5F60201884226D045F21C411EE040F263
:101B40002841C4F2020188421DD040F24041C4F253
:101B50000201884217D040F25841C4F202010FE05E
:101B600045F26C41C5F6020188420CD045F2944121
:101B7000C5F60201884206D045F28041C5F6020151
:101B8000884240F0D08045F2574C45F6FC0EC5F631
:101B9000020CC5F6020E60450EDC45F22F43C5F679
:101BA0000203984217DC45F20843C5F60203984247
:101BB00026D045F21C431FE045F27F43C5F60203E1
:101BC000984211DC45F25843C5F60203984217D0FB
:101BD00045F26C4310E045F23043C5F602039842EB
:101BE0000ED045F2444307E045F29443C5F60203A4
:101BF000984205D045F28043C5F60203984250D181
:101C000000F0FC034CF6CD47083BCCF6CC47A3FBD9
:101C10000737AEF1FC05AEF17C063B0905EB83020C
:101C20002266A26803F01F030127802A666607FA6E
:101C300003F2A26601D1002262606368A56ED4E956
:101C40001827DEB2591E072916607D6015D8013E9F
:101C5000072E62D860450EF1440213DC45F22F4195
:101C6000C5F6020188423CDC45F20841C5F6020196
:101C700088424BD045F21C4144E000206067C4E933
:101C80001B0050E045F27F41C5F60201884231DC7D
:101C900045F25841C5F60201884237D045F26C4101
:101CA00030E000F0F8034AF6AB27103BCAF6AA274B
:101CB000A3FB073740F20F43C4F2020308253E0995
:101CC000984203F1AA02334688BF05EB171340F68A
:101CD00000059042C4F2020528BF334605F1800694
:101CE0009CE745F23041C5F6020188420ED045F22C
:101CF000444107E045F28041C5F60201884205D023
:101D000045F29441C5F60201884213D10EEB8300DF
:101D1000E06601202267B040606704F16C02002396
:101D200007CA03604A6000206065012184F835100D
:101D3000BDE8F08140F60000C4F2020000F1FC0EA4
:101D400000F5A072E2E700002DE9F04F83B00E68C5
:101D5000002E00F0C78000F1264742F2004507F14F
:101D6000FF77C5F602050A22A8424FEAB72500F11F
:101D7000200308BF09220093092D38BF4FEAB7227C
:101D8000002400274FF0000A01920AE00AF1010A3C
:101D90000E6836FA0AF207F1020704F1040400F0B3
:101DA000A180012202FA0AFB16EA0B08EED0D1F854
:101DB0000490032209F0030EAEF10106012E02FA8F
:101DC00007F610D8D0F808C0CD682CEA0602BD404E
:101DD0002A438260C9F30015426822EA0B0205FA21
:101DE0000AF52A434260BEF1030F1FD0C2688D6816
:101DF000B243BD40BEF1020F42EA0502C26015D1F6
:101E00006FF00302009D02EA5A0B04F01C030F223C
:101E100055F80BC002FA03FED1F810902CEA0E0C14
:101E200009FA03F343EA0C0345F80B3002684B68E8
:101E3000B24303F00306BE4013F4403F42EA0602F9
:101E40000260A3D044F2F44340F2084CC5F602030A
:101E5000C5F6000C0F251A6842F002021A601A68D3
:101E600002F0020202922AF00302029B04F00C0329
:101E700052F80C609D40AE43019D05FA03F33343D5
:101E800042F80C304FF0B04CDCF800204B6842EACE
:101E90000806DD0258BF22EA08069D02CCF8006061
:101EA00040F2040CC5F6000CDCF8002042EA0806FB
:101EB00058BF22EA08069D03CCF80060DCF88020B9
:101EC00042EA080658BF22EA0806DB03CCF8806025
:101ED000DCF87C2042EA080658BF22EA0806CCF863
:101EE0007C6053E703B0BDE8F08F00000000000005
:101EF000426902EA0103914341EA0341816170476B
:101F0000002A08BF0904816170470000000000003A
:101F100041F20000C5F600400068000C7047000068
:101F200045F24040C2F200400068704700000000E7
:101F300040F20C0045F24041C2F20040C2F20041C2
:101F400000780A6810440860704700000000000034
:101F500080B5032000F028F901F086F944F2184119
:101F600049F26833C5F60201C0F600030A68C2F3FD
:101F700003229A5C096801F00F0102F01F02595C0C
:101F8000D04040F20802C2F2004201F01F0120FAE4
:101F900001F1116040F20401C2F2004108600F201B
:101FA00000F00AF800281CBF012080BD00F0A8F84E
:101FB000002080BD000000000F2847D8B0B58AB0CF
:101FC0000446362000222146002500F0BDF83620C8
:101FD00000F0A6F840F21000C2F20040046044F2A3
:101FE000E840C5F60200016841F010010160006898
:101FF00001A900F010000290029802A801F080F8F8
:10200000079C002C18BF012401F0CEF84DF6836127
:10201000A040C4F21B3141F20002A0FB010140F2DA
:102020006410C2F200404FF0FF33C4F200020260BD
:1020300003EB9141C0E9011540F2E731C0E9031516
:1020400002F022F820B101200AB0B0BD0120704793
:1020500040F26410C2F2004002F06AF80AB0B0BD6B
:1020600010B54EF6A05E4378CEF2000E90F800C098
:102070004EF8083CDEF8003023F00103CEF80030C3
:1020800043684EF8043C037BC27A817A447B120693
:1020900042EA0372837B42EAC141C27B41EA844146
:1020A000447A41EA4341007A41EA024141EA04218B
:1020B00041EA400040EA0C00CEF8000010BD0000EC
:1020C0004EF62450CEF20000BFF35F8F016821F47A
:1020D00080310160002101677047000000000000AE
:1020E0004EF6245140F00100CEF200010867086866
:1020F00040F480300860BFF34F8FBFF36F8F70479D
:1021000081B044F2F440C5F60200016841F00201DA
:102110000160006800F002000090009801B0704774
:10212000002848BF704700F01F01012202FA01F1A8
:102130004EF20012C0F34A10CEF2000242F8201014
:10214000704700000000000070B54EF60C5C4FF0C8
:10215000FF36CEF2000C00F1604505F56445DCF871
:102160000030C3F3022E8EF00703042B28BF042394
:10217000BEF1030406FA03F321EA030100F00F03A2
:1021800038BF0024043B0028634406FA04F048BF2B
:1021900003F10C05A14022EA000008430001287069
:1021A00070BD0000000000004EF60C514FF6FF031A
:1021B000CEF200010A681A4060F30A2242F0806001
:1021C00040F0FD7008607047B0B544F60C05C5F6E8
:1021D000020529684907296805D401F00701081A92
:1021E00018BF0120B0BD21F0070108432860FFF7A8
:1021F00097FE044655F8080C800407D4FFF790FEBC
:10220000001BB0F57A7FF5D90120B0BD0020B0BD2C
:1022100080B500F0A1FF44F2204149F26832C5F6D2
:102220000201C0F600020968C1F30211515C01F01D
:102230001F01C84080BD000080B544F2384EC5F68D
:10224000020E5EF8103C5EF8101C5EF80C2CC1F318
:10225000053CDEF80410BCF1000F18D0C9089FED52
:102260003A1AD20601EAE27103F003026FF35F311A
:1022700000EE101AB8EE400ADFE802F0021F0E1F4F
:102280005EF8381C89060AD49FED311A15E000214A
:102290008160C0E9001180BD9FED2C1A0DE05EF851
:1022A000381C49F20002C0F2D032C1F3C10122FA57
:1022B00001F101EE101AB8EE411ADEF800109FEDA0
:1022C000253A6FF35F2102EE101ADEF80010C1F319
:1022D0004621B8EE422A013100EE032A00EE10CA70
:1022E000B7EE003AB8EE400A81EE000A32EE031A69
:1022F00020EE010A01EE101AB8EE411A80EE011A22
:10230000BCEEC11A80ED001ADEF80010C1F30641E0
:10231000013101EE101AB8EE411A80EE011ABCEE3E
:10232000C11A80ED011ADEF80010C1F30661013117
:1023300001EE101AB8EE411A80EE010ABCEEC00A96
:1023400010EE101A816080BD0024744A20BCBE4B80
:102350000024744C0000003980B544F2404EC5F6AC
:10236000020E5EF8183C5EF8181C5EF8142CC1F3DF
:10237000055CDEF80410BCF1000F18D0C9089FED11
:102380003A1AD20501EAE27103F003026FF35F31FA
:1023900000EE101AB8EE400ADFE802F0021F0E1F2E
:1023A0005EF8401C89060AD49FED311A15E0002121
:1023B0008160C0E9001180BD9FED2C1A0DE05EF830
:1023C000401C49F20002C0F2D032C1F3C10122FA2E
:1023D00001F101EE101AB8EE411ADEF800109FED7F
:1023E000253A6FF35F2102EE101ADEF80010C1F3F8
:1023F0004621B8EE422A013100EE032A00EE10CA4F
:10240000B7EE003AB8EE400A81EE000A32EE031A47
:1024100020EE010A01EE101AB8EE411A80EE011A00
:10242000BCEEC11A80ED001ADEF80010C1F30641BF
:10243000013101EE101AB8EE411A80EE011ABCEE1D
:10244000C11A80ED011ADEF80010C1F306610131F6
:1024500001EE101AB8EE411A80EE010ABCEEC00A75
:1024600010EE101A816080BD0024744A20BCBE4B5F
:102470000024744C000000392DE9F04381B004467B
:10248000C07844F22C490007C5F6020901D40025A2
:1024900020E0A06E4FEA3050032838D80025DFE84E
:1024A00000F0020A1C22D9F8000040F40030C9F8FC
:1024B0000000D5B906E004F10800022102F084FE14
:1024C000054695B9D9F82400A16E20F440100843C0
:1024D000C9F824004FF0000808E004F128000221A8
:1024E00002F002FF0546002DECD0A8466078C00738
:1024F00021D0A06D042800F24E81DFE810F0E90041
:102500001A010C00050005006DB1A84613E0012575
:10251000002DEAD1D6E704F12800002102F0E4FE04
:102520000546002DF1D1D9F82400A16D20F0070057
:102530000843C9F82400607880071FD5E06D4FEA92
:10254000B010042800F22C81DFE810F0CC00FD0070
:102550000800050005004DB1A8460FE004F1280071
:10256000002102F0C1FE0546002DF5D1D9F8240066
:10257000E16D20F4E0700843C9F82400607840075A
:1025800021D5D4F8A8004FEA7050042800F20D813C
:10259000DFE810F0B200E3000800050005004DB1CF
:1025A000A84610E004F12800002102F09DFE054637
:1025B000002DF5D1D9F82C00D4F8A81020F4600033
:1025C0000843C9F82C00607800071FD5D4F8AC0088
:1025D0004FEA3060042800F2ED80DFE800F097C891
:1025E000060303004DB1A84610E004F128000021C5
:1025F00002F07AFE0546002DF5D1D9F82C00D4F86A
:10260000AC1020F0E0600843C9F82C00E0788007A7
:102610001BD5E06C4FEA3010032830D8DFE800F01B
:10262000020526024DB1A8460FE0D9F8000040F49B
:102630000030C9F80000002DF5D1D9F82000E16C78
:1026400020F030000843C9F820006078C0062AD581
:10265000206E4FEA3030042800F2B180DFE800F04D
:10266000609113030300B5B1A8461CE004F1080013
:10267000022102F0A9FD0546002DD4D1DDE7012598
:10268000002DD0D1D9E704F12800002102F02CFE62
:102690000546002DE8D1D9F82400216E20F4E04051
:1026A0000843C9F824006078800640F1A180606E7C
:1026B0004FEA3040052800F29080DFE800F08B03FD
:1026C000858B8B8B04F10800012102F07DFD80E0F9
:1026D000D9F8000040F40030C9F80000002D7FF464
:1026E00014AF20E7D9F8000040F40030C9F800002A
:1026F000002D7FF431AF39E7D9F8000040F4003005
:10270000C9F80000002D7FF44BAF53E7D9F8000063
:1027100040F40030C9F80000002D7FF464AF6CE78E
:10272000D9F8000040F40030C9F80000002D9BD11A
:10273000B1E704F10800002102F046FD0546002D36
:102740007FF4E3AEEFE604F10800002102F03CFD67
:102750000546002D7FF400AF08E704F108000021D2
:1027600002F032FD0546002D7FF41AAF22E704F196
:102770000800002102F028FD0546002D7FF433AF4C
:102780003BE704F10800002102F01EFD0546002D84
:102790007FF46AAF7FE70125002D7FF4B6AEC2E675
:1027A0000125002D7FF4D8AEE0E60125002D7FF451
:1027B000F7AEFFE60125002D7FF415AF1DE70125DB
:1027C000002D7FF451AF66E704F12800012102F0EB
:1027D0008BFD054625B1A8460AE00125002DFAD15A
:1027E000D9F82400616E20F4E0200843C9F82400E1
:1027F0006078400625D5D4F8B0004FEA307005283F
:1028000013D8DFE800F00F03090F0F0F04F10800E1
:10281000012102F0D9FC04E004F12800012102F0BA
:1028200063FD054625B1A8460BE00125002DFAD130
:10283000D9F82C00D4F8B01020F0E0400843C9F8D3
:102840002C006078000620D5206FD8B1B0F1005F71
:1028500012D0B0F1805F26D1D9F8000040F40030EA
:10286000C9F8000085B9D9F82400216F20F0405044
:102870000843C9F8240008E004F10800012102F02F
:10288000A3FC0546002DEED0A846E078C0071ED078
:10289000A06C032800F28180DFE800F002097502D5
:1028A0006DB1A84613E00125002DEDD1DBE7D9F885
:1028B000000040F40030C9F80000002DF1D1D9F833
:1028C0002000A16C20F003000843C9F82000A07884
:1028D000400645D5D9F8D40340F48070C9F8D40334
:1028E000FFF71EFB064600BFD9F8D403C00505D488
:1028F000FFF716FB801B6528F6D303257DBBD9F8AF
:102900004410D4F8B400414011F4407F11D0D9F8FC
:102910004410D9F8442042F48032C9F84420D9F850
:10292000442021F4407122F48032C9F84420C9F8CF
:102930004410B0F5807F0FD1FFF7F2FA064641F25E
:10294000893700BFD9F84400800705D4FFF7E8FABB
:10295000801BB842F6D30325002D00F08A82A846DA
:102960002078C00732D0E06F4FEAF000052822D867
:10297000DFE800F01E03181E1E1E04F108000121EE
:1029800002F022FC13E004F10800022102F01CFC1A
:102990000546002D7FF485AF91E70125002D7FF4DA
:1029A00080AF8CE704F12800012102F09DFC054670
:1029B00025B1A8460AE00125002DFAD1D9F8280052
:1029C000E16F20F038000843C9F82800207880071C
:1029D00021D5A06F052813D8DFE800F00F03090FF9
:1029E0000F0F04F10800012102F0EEFB04E004F1F6
:1029F0002800012102F078FC054625B1A8460AE02E
:102A00000125002DFAD1D9F82800A16F20F0070088
:102A10000843C9F828002078400723D5D4F894004B
:102A2000052813D8DFE800F00F03090F0F0F04F19A
:102A30000800012102F0C8FB04E004F12800012194
:102A400002F052FC054625B1A8460BE00125002DF9
:102A5000FAD1D9F82C00D4F8941020F007000843DC
:102A6000C9F82C002078800625D5D4F890004FEACC
:102A70003070052813D8DFE800F00F03090F0F0F9F
:102A800004F10800002102F09FFB04E004F128009B
:102A9000022102F029FC054625B1A8460BE00125DC
:102AA000002DFAD1D9F82800D4F8901020F0E04099
:102AB0000843C9F828002078400625D5D4F89C00A2
:102AC0004FEAB020052813D8DFE800F00F03090F04
:102AD0000F0F04F10800002102F076FB04E004F17E
:102AE0002800022102F000FC054625B1A8460BE0B3
:102AF0000125002DFAD1D9F82C00D4F89C1020F42F
:102B0000E0500843C9F82C002078000625D5D4F8F9
:102B1000A0004FEA7030052813D8DFE800F00F035B
:102B2000090F0F0F04F10800002102F04DFB04E033
:102B300004F12800022102F0D7FB054625B1A84682
:102B40000BE00125002DFAD1D9F82C00D4F8A01003
:102B500020F460400843C9F82C002078000716D5FF
:102B6000D4F88400B0F5805F08D104F12800022178
:102B700002F0BAFB002818BF4FF00108D9F828006E
:102B8000D4F8841020F440500843C9F82800207875
:102B9000C00616D5D4F89800B0F5807F08D104F1AE
:102BA0002800022102F0A0FB002818BF4FF0010806
:102BB000D9F82C00D4F8981020F440700843C9F8D4
:102BC0002C00A078000724D5D4F8A400B0F5003F6D
:102BD0001CD0B0F5803F13D0002840F0E98004F10C
:102BE0000800002102F0F0FA05468DB9D9F82C0052
:102BF000D4F8A41020F440300843C9F82C0008E0B1
:102C000004F12800022102F06FFB0546002DEDD0F3
:102C1000A846A078400725D5D4F88800B0F5401F15
:102C20001DD0B0F5001F14D0B0F5801F40F0C58056
:102C3000D9F8000040F40030C9F800008DB9D9F887
:102C40002800D4F8881020F440100843C9F8280060
:102C500008E004F12800012102F046FB0546002DA2
:102C6000EDD0A846A078C0071FD0206DB0F5803FFA
:102C70000BD0002840F09780D9F8000040F40030D5
:102C8000C9F800004DB1A8460FE004F10800022188
:102C900002F09AFA0546002DF5D1D9F82000216DF1
:102CA00020F480300843C9F82000E078800608D579
:102CB00004F12800022102F017FB002818BF4FF092
:102CC0000108D4E900108A0340F18680D4F88020FE
:102CD0006FF0010303EB3223022B0AD34FEA3223B6
:102CE0003BB1012B6ED1D9F8003043F40033C9F861
:102CF0000030002D69D0CA0271D4CA007AD48A0289
:102D000000F184804A0000F18C80CA0F40F0998065
:102D1000090200F1A180C00707D004F108000021DA
:102D200002F052FA002818BF05462079800707D51F
:102D300004F10800012102F047FA002818BF0546F7
:102D40002079400707D504F10800022102F03CFA7F
:102D5000002818BF05462079000707D504F1280090
:102D6000002102F0C1FA002818BF05462079C006EC
:102D700007D504F12800012102F0B6FA002818BF97
:102D800005462079800607D504F12800022102F0CB
:102D9000ABFA002818BF0125002D18BF01252846D1
:102DA00001B0BDE8F0830125002D7FF46CAF74E71E
:102DB0000125002D7FF42CAF18E70125002D7FF4AD
:102DC00050AF3CE70125002D95D1D9F8283023F4E8
:102DD00040731A43C9F828204546CA028DD5D9F850
:102DE0002420636F22F000421A43C9F82420CA004D
:102DF0007FF585AF59F81C2CD4F8B83022F4804206
:102E00001A4349F81C2C8A027FF57CAFD9F824209C
:102E1000E36E22F080721A43C9F824204A007FF53D
:102E200074AF59F81C2C22F4004249F81C2CD4F839
:102E3000BC2059F81C3C1A4349F81C2CCA0F3FF41B
:102E400067AFD9F82020636D22F040521A43C9F8C9
:102E5000202009027FF55FAFD9F82810D4F88C2024
:102E600021F440011143C9F82810C0077FF455AF81
:102E70005BE74FF6CF73D4F8B40059F81C2CC0F2BE
:102E8000FF0300F4407122F47C5203EA1013B1F501
:102E9000407F08BF1A436FF31F3049F81C2CD9F844
:102EA00044100843C9F844005AE50000000000003F
:102EB0002DE9F04381B0002800F0F88042F20008CC
:102EC0000446C5F200288946D8F8000000F00F003B
:102ED00081420ED9D8F8000020F00F0040EA090026
:102EE000C8F80000D8F8000000F00F00484540F096
:102EF000DD80206844F218474107C5F602070AD56D
:102F000021693A6802F07002914204D93A6822F0CD
:102F100070021143396001070AD561697A6802F0CD
:102F20007002914204D97A6822F0700211437960EC
:102F3000C1060AD5A1697A6802F4E062914204D917
:102F40007A6822F4E0621143796081060AD5E1696A
:102F5000BA6802F07002914204D9BA6822F0700295
:102F60001143B96081070AD5E1683A6802F00F029F
:102F7000914204D93A6822F00F0211433960C00728
:102F800040F08080206881070AD5E1683A6802F045
:102F90000F02914204D23A6822F00F0211433960C5
:102FA000D8F8001001F00F0189450DD2D8F80010B3
:102FB00021F00F0141EA0901C8F80010D8F800100B
:102FC00001F00F01494571D141070AD521693A68DD
:102FD00002F07002914204D23A6822F0700211436A
:102FE000396001070AD561697A6802F0700291427E
:102FF00004D27A6822F0700211437960C1060AD5C2
:10300000A1697A6802F4E062914204D27A6822F4FB
:10301000E0621143796080060AD5E069B96801F081
:103020007001884204D2B96821F070010843B86089
:1030300000F01AF9396849F26832C0F60002C1F3AB
:103040000321515C3B6803F00F0301F01F01D25CC8
:1030500020FA01F102F01F0040F20802C2F2004221
:1030600021FA00F0106040F2100040F20402C2F2B7
:103070000040C2F200420068116001B0BDE8F043B8
:10308000FEF79ABF386820F47061D4E90102114359
:103090003960012857F8181C0CD0032804D00228E6
:1030A00028D1890302D507E0890105D4012001B0A8
:1030B000BDE8F083C905F9D557F8081C21F00701D0
:1030C000084347F8080CFEF72BFF064641F2883507
:1030D00057F8080C616800F03800B0EBC10F3FF4FE
:1030E00051AFFEF71DFF801BA842F1D9032001B0AC
:1030F000BDE8F0834907D9D5DEE7000000000000F5
:103100003F22026044F21842C5F6020252F8083C1F
:1031100003F007034360136803F47063836013686C
:1031200003F00F03C360136803F070030361536877
:1031300003F070034361536803F4E06383619268B2
:1031400002F07002C26142F20000C5F20020006885
:1031500000F00F000860704780B500F085F844F279
:10316000184149F26833C5F60201C0F600030A6847
:10317000C2F303229A5C096801F00F0102F01F02FA
:10318000595C20FA02F201F01F0040F20801C2F27D
:10319000004122FA00F0086040F20401C2F200414E
:1031A0000A6080BD0000000080B500F05DF844F2C8
:1031B000184C49F26833C5F6020CC0F60003DCF87F
:1031C0000020C2F303229A5CDCF8001001F00F012A
:1031D00002F01F02595CD04040F20802C2F20042E5
:1031E00001F01F0120FA01F1116040F20402C2F265
:1031F00000421060DCF80400C0F30210185C00F01C
:103200001F0021FA00F080BD80B500F02DF844F2D7
:10321000184C49F26833C5F6020CC0F60003DCF81E
:103220000020C2F303229A5CDCF8001001F00F01C9
:1032300002F01F02595CD04040F20802C2F2004284
:1032400001F01F0120FA01F1116040F20402C2F204
:1032500000421060DCF80400C0F30220185C00F0AB
:103260001F0021FA00F080BD44F20041C5F60201C2
:103270000869C0F3C200032814D002280DD088BB0F
:103280000868800649F20000C0F2D03058BF70478D
:103290000968C1F3C101C840704747F64000C0F259
:1032A0007D1070478B6A886AD1F82CC04A6BC0F3D6
:1032B0000510E0B1C2F3CC0203F0030300EE102AC4
:1032C0009FED291AB8EE400A20EE010A9FED271A59
:1032D000DFE803F0021F0F1F0A6892060CD49FED6F
:1032E000251A16E040F60010C0F23D00704700209D
:1032F00070479FED1F1A0CE00A6849F20003C0F204
:10330000D033C2F3C10223FA02F201EE102AB8EE62
:10331000411A0A6B9FED183A6FF35F2202EE102AF2
:103320005FEACC7203FE000A03EE100A086BB8EEE7
:10333000422AC0F34620B8EE433A013030EE020A8A
:10334000B7EE002A81EE031A30EE020A21EE000ADF
:1033500001EE100AB8EE411A80EE010ABCEEC00A76
:1033600010EE100A704700BF000000390024744AB4
:1033700020BCBE4B0024744C000000000000000084
:103380002DE9F04381B0002800F0C7818046007825
:1033900044F20049C007C5F6020954D0D9F810001C
:1033A00000F03801D9F82800102905D018290CD1CF
:1033B00000F00300022808D1D9F8000080033ED5B0
:1033C000D8F80400D8BB01272CE0D8F80440D9F87D
:1033D00000002CB1B4F5A02F0BD0B4F5803F0ED077
:1033E00020F48030C9F80000D9F8000020F48020D3
:1033F00007E040F48020C9F80000D9F8000040F44C
:103400008030C9F80000FEF78BFD05469CB100BF77
:10341000D9F80000800312D4FEF782FD401B642817
:10342000F6D90327002070B9BCE100BFFEF778FD94
:10343000401B6428F5D8D9F800008003F6D4012099
:10344000002800F0AF8198F80000800740F18080EC
:10345000D9F8100010F03801D9F828001CD018292C
:1034600008BF5FEA807017D0D8F80C00D9F80010B8
:10347000002845D021F019010843C9F80000FEF7E3
:103480004FFD0546D9F80000400728D4FEF748FD57
:10349000401B0228F6D91EE0D9F80000400704D5E9
:1034A000D8F80C00002800F0DC81D9F80000D8F82A
:1034B0000C1020F019000843C9F80000FEF730FD99
:1034C000054600BFD9F80000400708D4FEF728FDE4
:1034D000401B0228F6D903270024CCBB62E1FEF78B
:1034E00017FD41F20301884221D8D8F81000D9F81D
:1034F0000410402821F47C3122D141F4003021E035
:1035000021F00100C9F80000FEF70AFD054601267A
:10351000D9F8000010F0040086EA900415D0FEF7F8
:10352000FFFC401B0228F3D903278CB93AE1D9F8F4
:103530000400D8F8101020F0FE4040EA016001E0DD
:1035400041EA00300124C9F80400002C00F02A816F
:1035500098F80000C00670D5D9F8100000F03801C6
:10356000D9F82800082905D018291CD100F003003B
:10357000012818D1D9F80000C00503D5D8F81C00DF
:10358000802855D1FEF7C4FC41F20301884222D8BD
:10359000D8F82000D9F80410202821F0F8413ED1B5
:1035A00041F080403DE0D8F81C000028D9F8000028
:1035B0001ED040F08000C9F80000FEF7B1FC0546BF
:1035C000D9F80000C005DDD4FEF7AAFC401B022894
:1035D000F6D903272DE0D9F80C00D8F8201020F0F8
:1035E0007C50012440EA0160C9F80C002CBBD9E0F2
:1035F00020F08000C9F80000FEF792FC0546012685
:10360000D9F8000010F4807086EA10240CD0FEF780
:1036100087FC401B0328F3D3032774B9C2E041EAB7
:103620008060C9F804000124002C00F0BB8004E095
:1036300001270024002C00F0B58098F80000000756
:103640006DD498F80000800600F1818098F80000A1
:10365000400700F19480D8F82440002C5BD0D9F8C2
:10366000100000F03800182840F0D980012CD9F85B
:103670002810D9F8300050D001F00302D8F82830D3
:103680009A424AD1C1F30511D8F82C20914244D175
:103690000146D8F830206FF35F21013A91423CD1C6
:1036A000C0F34622D8F8341001398A4235D1C0F32C
:1036B0000642D8F8381001398A422ED1C0F306608C
:1036C000D8F83C100139884227D1D9F83400D8F80D
:1036D0004810C0F3CC0081421DD0D9F82C0020F056
:1036E0000100C9F82C00FEF71BFC0546FEF718FC8C
:1036F000A842FBD0D9F834004FF6F871D8F848202A
:10370000884340EAC200C9F83400D9F82C0040F0E0
:103710000100C9F82C00002744E0012742E0D8F856
:1037200014000028D9F8740040D040F00100C9F816
:103730007400FEF7F5FB0546D9F8740080073FF5E5
:1037400080AFFEF7EDFB401B0228F5D929E0D8F841
:1037500018000028D9F800004DD040F48050C9F876
:103760000000FEF7DDFB0546D9F8000080043FF5B8
:103770006DAFFEF7D5FB401B0228F5D911E0D9F853
:10378000000440F48070C9F80004FEF7C9FB054648
:10379000D9F80004C0051CD4FEF7C2FB401B642806
:1037A000F6D90327F8B201B0BDE8F08320F001009C
:1037B000C9F87400FEF7B4FB05460327D9F8740076
:1037C00080077FF53EAFFEF7ABFB401B0228F5D923
:1037D000E8E7D8F80840D9F870001CB1052C42D0B1
:1037E000012C46D020F00100C9F87000D9F8700013
:1037F00020F004003FE020F48050C9F80000FEF7FC
:103800008FFB0546032700BFD9F8000080047FF531
:103810001DAFFEF785FB401B0228F5D9C2E7D9F89A
:10382000000020F08070C9F80000FEF779FB022C40
:1038300005464FF0030709D1D9F8000080013CD5B7
:10384000FEF76EFB401B0228F6D9ABE7D9F8000063
:1038500080017FF560AFFEF763FB401B0228F5D9BE
:10386000A0E7012738E640F00400C9F87000D9F855
:10387000700040F00100C9F87000FEF751FB002C09
:10388000054641F288344FF0030711D0D9F8700093
:1038900080073FF5E0AEFEF743FB401BA042F5D9A1
:1038A00080E700BFFEF73CFB401BA0423FF67AAF2B
:1038B000D9F870008007F5D4CDE608F12807D9F8CB
:1038C000280040F2F33188438ECF0843591E40EA66
:1038D00002104FF47E426FF35F21C9F8280002EB1B
:1038E00047204FF4FE0280B2D8F83C300844D8F8A4
:1038F000381002EB01414FF0FE4201F4FE0102EBF1
:103900000362084402F0FE410844C9F83000D9F8C7
:103910002C004FF6F87120F00100C9F82C00D9F8FE
:103920003400D8F84820884340EAC200C9F834007F
:10393000D9F82C00D8F8401020F00C000843C9F842
:103940002C00D9F82C00D8F8441020F002000843CD
:10395000C9F82C00D9F82C0040F48030C9F82C00AC
:10396000D9F82C0040F40030C9F82C00D9F82C000C
:1039700040F48020C9F82C00D9F82C0040F0010058
:10398000C9F82C00D9F8000040F08070C9F8000098
:10399000FEF7C6FA04460327D9F8000080013FF578
:1039A000BAAEFEF7BDFA001B0228F5D9FAE6000010
:1039B00070470000000000002DE9F0410446066851
:1039C00030697169B76894F881800A050BD510F0E9
:1039D000080208D0B06940F40060B0612046BDE83C
:1039E000F04100F071BA01EA000505F06400042816
:1039F00007D1616F20468847216F20468847012004
:103A000000E0002005F04501012903D1216F204687
:103A10008847012005F02601022903D1616F204665
:103A20008847012008B1BDE8F081280753D415F478
:103A3000587FF8D0680600F19F80A80500F1AA80A1
:103A4000E80500F1B580A8060AD52068D4F88410EE
:103A500041F08001C4F88410816941F02001816146
:103A6000D4F884000028DED0206807F4404240F2F9
:103A70006B33B2F5404F016821F00101016001692B
:103A800021EA0301016140F0A280816845F2E1452D
:103A900021F440418160E06FC0F6000548B1056542
:103AA000FCF7B6FF28B1D4F8840040F04000C4F819
:103AB0008400A06F0028B6D00565FCF7A9FF002898
:103AC00008BFBDE8F081D4F8840040F04000C4F89D
:103AD0008400BDE8F0812068816941F008018161BE
:103AE000816941F010018161816941F40061816166
:103AF000016921F008010161806810F4404F24D071
:103B0000204601F089FC012084F88100D4F884006B
:103B100000285FD1B8F1030F66D0B8F1040F5ED072
:103B2000B8F1050F7FF47FAF2046BDE8F04100F00B
:103B3000D3B900BF2068616E006B41F8040B616669
:103B4000B4F86A000138A4F86A00B4F86A000028E2
:103B5000D6D0E0681028EDD2082804D3308E616EEC
:103B600021F8020BEBE7206890F83000616E0870D6
:103B7000606E01306066E3E72068D4F8841041F09D
:103B80000401C4F88410816941F040018161A805F5
:103B90007FF556AF2068D4F8841041F00101C4F8D5
:103BA0008410816941F400718161E8057FF54BAFB4
:103BB0002068D4F8841041F00801C4F884108169A9
:103BC00041F480718161A8063FF53FAF48E70120CD
:103BD00084F881002046BDE8F041FFF7E9BE2046A9
:103BE000BDE8F04100F06CB92046BDE8F04100F0BE
:103BF0006FB9000000000000002863D02DE9F047F5
:103C000043F600040168C4F2000443F2000E43F6D8
:103C1000004CA142C4F2010EC4F2000C4FF00002AD
:103C2000826204D0614518BF714540F0B480C26B18
:103C30000125C368A14203F1080305EB52124FEAC4
:103C4000D30303FB02F218BF714540F09280102AA3
:103C500000F2A58090F8811031B9002180F8801021
:103C6000044600F0A1F82046022180F88110016886
:103C7000D0F818E00A68BEF1806F22F001020A60F5
:103C80008B680FD144682CB1B4F5800F0AD1826BD8
:103C900022B13CB9826BB2F1805F03D10A6842F471
:103CA00080520A60D0F8049003F4F8135FEA492CBC
:103CB0000AD5C268072A07D30A68056D22F4807204
:103CC0002A4304E0012070470A6822F480720A60E7
:103CD000B9F1000FC269856A42EA0302C36B42EA86
:103CE000050242EA0302D0E90285D0E9046A42EA09
:103CF00005028A60426B876B456A42EA0502056AE3
:103D000042EA070242EA060242EA0A02D0E9124304
:103D100042EA050242EA0302836D42EA080242EAED
:103D2000040242EA030242EA0E0242EA0902CA60BF
:103D300009D18A68012363F3CC228A608A6802234E
:103D400063F34A228A600A6DBCF1000F22F001027F
:103D50000A6505D5CA68436D22F000421A43CA605D
:103D60000021C0F88410012180F881100020BDE8F6
:103D7000F087614518BF082A11D8A14218BF7145C4
:103D80003FF465AF61457FF465AF102A84BF012021
:103D9000BDE8F0875EE7C2680F2A7FF648AF0120D2
:103DA000BDE8F087000000002DE9F043B7B00446FD
:103DB00002A8C0210025CDE93555CDE9335532950E
:103DC000FCF7D4FA43F200012068C4F201018842F2
:103DD00002D037B0BDE8F0834FF48050029002A8C3
:103DE00003951A95FEF748FB08B1FCF7F9FD44F27C
:103DF000E0400025C5F60200C5F6020532AE4FF0E0
:103E000002080169002741F48051016101694FF006
:103E1000050901F4805101910199016841F0010106
:103E20000160016801F0010101910199016841F00F
:103E3000080101600068314600F008000190019817
:103E4000202032902846CDF8CC80CDE93477CDF8CB
:103E5000D890FDF779FF80203146CDE9320805F58D
:103E60004060CDF8D890CDE93477FDF76DFF40F292
:103E700018051020C2F20045C4F202002860262076
:103E800068604020C5E902074FF48060C5E9040777
:103E90002846C5E90677C5E90877FDF745FC08B16E
:103EA000FCF79EFD232006210022A567AC63FEF7E8
:103EB0004BF92320FEF734F937B0BDE8F08300005A
:103EC0007047000000000000704700000000000084
:103ED0007047000000000000704700000000000074
:103EE00040F20442C5F60002136823EA00000843CA
:103EF00010607047000000007047000000000000E4
:103F00007047000000000000704700000000000043
:103F100090F83C20012A01D10220704710B5CB68EF
:103F200048F2FF7ED1E901C223F47C5322F470529F
:103F3000CFF6F07E42EA03040CEA0E030A6823433C
:103F400022F477220C691A4324F47623D0F800C0B7
:103F50001A434B691A434CF4806422F4742340F2F0
:103F60000042C4F2010294428A6A22F470228C69EF
:103F700042EA03024FF0010380F83C3042EA044376
:103F800010D140F2000E23F07C724B6ACFF6F04E57
:103F9000CC690EEA03531A4324F00073096A1A43EA
:103FA00042EA0103CCF84430002180F83C100020A4
:103FB00010BD00000000000090F83C20012A4FF0E6
:103FC00002025FD0B0B5012380F83C3080F83D207C
:103FD00040F2004C0268C4F2010C42F48063634575
:103FE0005368D2F808E002BF23F470034C682343FF
:103FF00041F2FF740D68C4F2000423F07003A24282
:1040000043EA050353600BDC40F2FF73C4F2000384
:104010009A4215DCB2F1804F27D040F2004317E0FE
:1040200040F2FF33C4F201039A4216DC41F600036A
:10403000C4F200039A4218D00023C4F2010309E03D
:1040400040F60003C4F200039A420ED040F600434B
:10405000C4F200039A4208D00CE044F20003C4F218
:1040600001039A4201D0624504D12EF08003896891
:10407000194391600022012180F83D1080F83C2016
:10408000BDE8B0401046704760B310B5044690F8E4
:104090003D0028B9002084F83C00204600F024F8B8
:1040A000022084F83D002068211D01F045FB01201D
:1040B00084F8480084F83E0084F83F0084F840000B
:1040C00084F8410084F8420084F8430084F84400F6
:1040D00084F8450084F8460084F8470084F83D00E1
:1040E000002010BD0120704741F200410068C4F279
:1040F0000001884218BF704780B582B044F2E840A2
:104100000022C5F60200016841F02001016000684C
:10411000002100F02000019001983720FEF714F8EC
:10412000372002B0BDE88040FDF7FABF0000000074
:1041300090F83D1001291BD1022180F83D10016843
:1041400041F2FF70C4F200008142C86840F00100F3
:10415000C8600FDC40F2FF70C4F20000814217DC3F
:10416000B1F1804F2BD040F20040C4F2000024E0B7
:104170000120704740F2FF30C4F20100814212DC9E
:1041800041F60000C4F20000814218D0002012E085
:1041900040F60000C4F20000814210D040F600401A
:1041A000C4F2000009E044F20000C4F201008142C0
:1041B00005D040F20040C4F2010081420BD1072239
:1041C0008868C0F2010202400020062A18BFB2F53A
:1041D000803F00D17047086840F00100086000206F
:1041E0007047000000000000704700000000000061
:1041F000F0B581B004460068C5680669B10716D5F8
:1042000015F0020113D06FF0020101610121217745
:104210008069800703D02046FFF7E6FF05E02046CF
:1042200000F09AF8204600F033FB0020207770075A
:1042300018D515F0040015D020686FF00401016155
:1042400002212177806910F4407F03D02046FFF7D8
:10425000CBFF05E0204600F07FF8204600F018FB79
:1042600000202077300717D515F0080014D02068FB
:104270006FF00801016104212177C069800703D034
:104280002046FFF7B1FF05E0204600F065F8204624
:1042900000F0FEFA00202077F00618D515F0100087
:1042A00015D020686FF01001016108212177C069E5
:1042B00010F4407F03D02046FFF796FF05E020462C
:1042C00000F04AF8204600F0E3FA00202077F007DB
:1042D00018BF15F0010006D020686FF001010161E0
:1042E000204600F0A9FB05F0800716F4025F18BF16
:1042F000002F02D1F00509D410E020686FF40251BC
:1043000001612046FFF7FCFDF00507D537B12068B5
:104310006FF4807101612046FFF7EEFD700609D54C
:1043200015F0400006D020686FF040010161204682
:1043300000F09EFBB0060CD515F0200009D02068D7
:104340006FF020010161204601B0BDE8F040FFF7A9
:10435000DBBD01B0F0BD00007047000000000000B0
:1043600090F83C30012B01D1022070474FEAB20394
:104370000122052B80F83C2000F23C822DE9F0411F
:10438000DFE803F003B753912DF5036843F6FF769A
:10439000C4F201061C6AB3421A6A24F0020422F035
:1043A00001021A621A46D3F804C052F818EF8D6859
:1043B00044EA0504D1F8008040F3798144F2000713
:1043C000C4F20107BB4200F07D8144F60007C4F24D
:1043D0000107BB4200F0768144F200476EE10368BA
:1043E00043F6FF77C4F20107D3F820C0BB421A6A34
:1043F00022F480321A621A465C6852F8546F0D68D3
:10440000D1F808E040F3D98044F20007C4F2010774
:10441000BB4200F0DD8044F60007C4F20107BB4256
:1044200000F0D68044F20047CEE0036840F2004E30
:1044300043F48067C4F2010E1C6A77451A6A24F4BB
:10444000007422F480721A621A465D6852F81CCF1A
:104450008E6844EA062407D1CE6840F2FF47360250
:1044600024F44064BE43344343F6FF76D1F8008021
:10447000C4F20106B34240F3CB8044F20007C4F219
:104480000107BB4200F0CB8044F60007C4F20107ED
:10449000BB4200F0C48044F20047C4F20107BB42B3
:1044A00000F0BD80C2E0036843F6FF77C4F2010765
:1044B000D3F820C0BB421A6A22F480521A621A460C
:1044C0005C6852F81C6F0D68D1F808E040F3C580B5
:1044D00044F20007C4F20107BB4200F0C98044F671
:1044E0000007C4F20107BB4200F0C28044F200475B
:1044F000BAE0036840F2004E43F48067C4F2010E54
:104500001C6A77451A6A24F0200422F010021A620D
:104510001A465D6852F818CF8E6844EA061407D12F
:10452000CE686FF0400724F0C00407EA0616344353
:1045300043F6FF76D1F80080C4F20106B34240F39F
:10454000D88044F20007C4F20107BB4200F0D880D3
:1045500044F60007C4F20107BB4200F0D18044F2E8
:104560000047C4F20107BB4200F0CA80CFE00368F5
:1045700043F6FF77C4F20107D3F820C0BB421A6AA2
:1045800022F480121A621A465C6852F8546F0D6861
:10459000D1F808E040F3FC8044F20007C4F20107C0
:1045A000BB4200F0008144F60007C4F20107BB42A1
:1045B00000F0F98044F20047F1E00027C4F201075F
:1045C000BB4205D040F20047C4F20107BB4204D110
:1045D0004F6924F4803444EA07244FF68C775C60FA
:1045E000CFF6FE7703373E402CF4003746EA050449
:1045F0005C654E6809699E6547EA0E471F625F6DFC
:1046000047F008075F655F6D27F004075F65EBE023
:104610000027C4F20107BB4201D0734506D1D1E99E
:104620000576374325F4405646EA07154FF68C7752
:104630005D60CFF6FE7707EA0C0747EA0807DF61FF
:104640004F680969DF631C62DF6947F00807DF61B3
:10465000DF6927F00407DF61C6E00027C4F2010725
:10466000BB4205D040F20047C4F20107BB4204D16F
:104670004F6924F4804444EA871448F6FF475C609D
:10468000CFF6FF673E402CF4005746EA0524DC6174
:104690004E6809691E6447EA0E371F62DF6947F4F6
:1046A0000067DF61DF6927F48067DF619BE0002737
:1046B000C4F20107BB4205D040F20047C4F2010733
:1046C000BB4205D1CF6824F00C0427F004073C431B
:1046D000B34233DD44F20006C4F20106B34238D0DF
:1046E00044F60006C4F20106B34232D044F200465A
:1046F0002BE00027C4F20107BB4201D0734506D16D
:10470000D1E90576374325F4406646EA870548F641
:10471000FF475D60CFF6FF6707EA0C0747EA082707
:104720009F614F6809699F631C629F6947F4006736
:104730009F619F6927F480679F6154E00026C4F25F
:104740000106B34205D040F20046C4F20106B3426E
:1047500006D12CF44077D1E90565374347EA050CCB
:104760004FF68C75C3F804C0CFF6FE750EEA050748
:1047700047EA08079F614F6809695F631C629F6988
:1047800047F008079F619F6927F004079F612BE0AE
:104790000027C4F20107BB4205D040F20047C4F233
:1047A0000107BB4204D14F6924F4802444EA8724E2
:1047B00048F6FF475C60CFF6FF6707F540773E405D
:1047C0002CF4001746EA05245C654E680969DE652D
:1047D00047EA0E571F625F6D47F400675F655F6DC4
:1047E00027F480675F65090213681943116000228E
:1047F000BDE8F041002180F83C10104670470000F1
:1048000060B310B5044690F83D0028B9002084F844
:104810003C00204600F024F8022084F83D00206887
:10482000211D00F089FF012084F8480084F83E0033
:1048300084F83F0084F8400084F8410084F8420086
:1048400084F8430084F8440084F8450084F8460066
:1048500084F8470084F83D00002010BD0120704717
:1048600000210068C4F20101884218BF704781B07E
:1048700044F2F040C5F60200016841F00101016018
:10488000006800F001000090009801B0704700003F
:10489000704700000000000080B559B10B1F4FF0B9
:1048A0003F0E4FEAB30C4322BCF1040F38BF0EEBAE
:1048B000B30200E03E22825C012A0DD171B10A1FD1
:1048C0004FEAB202032A19D8DFE802F002140C10F2
:1048D000022280F83F2014E0012080BD022280F8EF
:1048E0003E200EE0022280F841200AE0022280F8F9
:1048F000422006E0022280F8402002E0022280F8F6
:104900004320026801F01F00012101FA00F0116A42
:10491000814311624FF6FF71C4F200018A42116AAD
:1049200040EA0100106216DC40F2FF70C4F20000A1
:10493000824240DD40F60000C4F20000824267D0AF
:1049400040F60040C4F20000824261D041F600000F
:10495000C4F200005AE043F6FF70C4F20100824244
:104960000EDD44F20000C4F20100824213D044F68E
:104970000000C4F2010082420DD044F2004006E083
:104980000020C4F20100824205D040F20040C4F28F
:104990000100824248D141F2FF70516CC4F2000024
:1049A000824241F4004050640DDC40F2FF70C4F2DA
:1049B0000000824215DCB2F1804F29D040F2004065
:1049C000C4F2000022E040F2FF30C4F20100824253
:1049D00012DC41F60000C4F20000824218D0002030
:1049E00012E040F60000C4F20000824210D040F60F
:1049F0000040C4F2000009E044F20000C4F20100EB
:104A0000824205D040F20040C4F2010082420BD144
:104A100007219068C0F2010101400020062918BF5B
:104A2000B1F5803F00D180BD106840F001001060FA
:104A3000002080BD00000000B0B541F20005044632
:104A4000C4F200050068A84201D1FDF771FA2068A0
:104A500005F58061884218BFB0BD45F23040C2F212
:104A60000040016801310160B0BD0000000000009D
:104A7000704700000000000090F88410012901D167
:104A8000022070472421C0F8881001680A680B686A
:104A900022F0005223F001030B60002343660A60FA
:104AA0002021C0F8881080F8843000207047000072
:104AB00090F88420012A01D102207047B0B501236B
:104AC00080F884302422C0F888200268D0F864E09E
:104AD000BEF1000FD2F800C0146824F00104146085
:104AE000946824F0606441EA040191601BD09168ED
:104AF00049F2903E9368C0F6000E5B0F49F298357C
:104B0000C1F34261C0F600051EF80340EB5C2401CE
:104B1000B4FBF3F3A0F86A301EF80130695C1B01A6
:104B2000B3FBF1F301E0A0F86A30A0F8683020216F
:104B3000C2F800C0C0F88810002180F8841000205E
:104B4000B0BD00000000000090F88420012A01D1CF
:104B500002207047B0B5012380F884302422C0F8C9
:104B600088200268D0F864E0BEF1000FD2F800C0DF
:104B7000146824F001041460946824F0604441EA4D
:104B8000040191601BD0916849F2903E9368C0F691
:104B9000000E5B0F49F29835C1F34261C0F6000583
:104BA0001EF80340EB5C2401B4FBF3F3A0F86A3079
:104BB0001EF80130695C1B01B3FBF1F301E0A0F8C2
:104BC0006A30A0F868302021C2F800C0C0F8881010
:104BD000002180F884100020B0BD0000000000001B
:104BE00010B5D8B10446D0F8880028B9002084F860
:104BF0008400204600F028F82420C4F888002068AB
:104C0000A16A0268002922F00101016002D0204659
:104C100000F06AFE204600F037FF08B1012010BD09
:104C20002068416821F490414160816821F02A01A7
:104C30008160016841F0010101602046BDE810403B
:104C400000F0C2BE00000000B0B5B8B0044602A833
:104C5000C0210025CDE93655CDE934553395FBF714
:104C600085FB41F200012068C4F20101884201D0B5
:104C700038B0B0BD0120029002A803952195FDF740
:104C8000FBFB08B1FBF7ACFE44F2E040C5F60200C6
:104C9000016941F010010161016901F01001019108
:104CA0000199016841F002010160006833A900F038
:104CB0000200019001984FF440403390022034905C
:104CC0000020CDE935000420379040F20040C5F6C1
:104CD0000200FDF739F838B0B0BD00000000000058
:104CE0002DE9F04381B00446D0F88800202808D18F
:104CF00088460120002918BF002A06D101B0BDE86E
:104D0000F083022001B0BDE8F0831D460020C4F806
:104D100090002120C4F888001646FDF701F9A4F898
:104D20005460A4F856600646A168B1F5805F02D1D0
:104D30002069002851D0C1464FF00008B4F8560051
:104D400058B36F1C0EE0B9F1000F1DD0206819F8A0
:104D5000011B8162B4F856000138A4F85600B4F87B
:104D60005600D0B12068C0690006ECD4002FF9D0FD
:104D7000FDF7D6F801464FF0030045B3891BA94261
:104D800025D820680068EDE738F8020B21684FF05D
:104D900000096FF35F208862DCE72068C069400685
:104DA00014D46F1C04E000BF2068C06940060DD415
:104DB000002FF9D0FDF7B4F801464FF0030035B1EC
:104DC000891BA94203D820680068EDE70020202154
:104DD000C4F8881001B0BDE8F0834FF00009ADE7DA
:104DE000FEE70000000000000024C5F6020400BF3A
:104DF00002212046FDF77CF84FF4FA7002F0E0FA49
:104E0000F6E700000000000080B582B044F2D84010
:104E10000022C5F60200016841F00101016000684E
:104E2000062100F00100019001980B20FDF78CF99C
:104E30000B2002B0BDE88040FDF772B90000000011
:104E400070B586B000200590CDE90300CDE90100E2
:104E500044F2E0400024C5F60200C5F60204012237
:104E600002250168012641F004010160016801F09A
:104E7000040100910099016841F08001016001681E
:104E800001F0800100910099016841F00101016089
:104E9000016801F0010100910099016841F01001E1
:104EA0000160016801F0100100910099016841F072
:104EB00002010160016801F002010091009901689E
:104EC00041F0080101600068022100F00800009034
:104ED00000982046FDF714F80320049001A920460D
:104EE000CDE901560396FCF72FFF4FF0007000212B
:104EF000FEF7F6FF06B070BD10B540F2900443F225
:104F00000000C2F20044C4F201004FF08061206052
:104F10004FF4800060604FF40030A0600720E06034
:104F20000020C4E90400A1614FF08041C4E90710EA
:104F3000C4E90900E06204F1380061632421FBF751
:104F400015FA2046FEF758FE002808BF10BDBDE840
:104F50001040FBF745BD0000B0B59CB0002501A88E
:104F60002C2100241594C4F20105CDE91344CDE9A8
:104F70001144CDE90F44CDE90D440C94FBF7F6F94B
:104F800040F21810C721C2F200400560C0E90114C8
:104F900040F2E7314461C0E9031480218161FFF7E9
:104FA0002FFC08B1FBF71CFD40F2181013A9C2F248
:104FB00000401594CDE91344FEF7FEFF08B1FBF75E
:104FC0000FFD60200C904FF4FA700D9040F2181015
:104FD0000CA9C2F20040002200241294CDE90E4434
:104FE000CDE91044FFF7BCF908B1FBF7F9FC0594D3
:104FF0004FF40050CDE90344CDE90144CDE9060466
:1050000008944FF00070CDE909040B9440F2181495
:10501000C2F2004401A92046FEF77AFF08B1FBF76F
:10502000DFFC21680020A9421B90CDE919001890EF
:10503000179001D01CB0B0BD44F2E041C5F60201AA
:105040000A6842F010020A60096801F01001169126
:1050500016994FF4007117910221CDE918101A909A
:1050600001201B9041F20000C5F6020017A9FCF7D1
:105070006BFE1CB0B0BD000010B584B040F2B010A3
:1050800041F20041C2F2004000240394C4F2000146
:10509000CDE9014401601321C0E901144FF4FA7114
:1050A000C16080218161FEF7EFFF08B1FBF798FC3A
:1050B00040F2B01001A9C2F2004001940394FEF73F
:1050C0007BFF08B1FBF78CFC04B010BD00000000B2
:1050D00080B540F2FC1041F20001C2F20040C4F27F
:1050E00001010C2201604FF4612141600021C0E9FF
:1050F00002110161C0E90521C0E90711C0E90911E8
:10510000FFF76EFD08B1FBF76BFC40F2FC100021CD
:10511000C2F20040FFF718FD08B1FBF761FC40F256
:10512000FC100021C2F20040FFF7C2FC08B1FBF7FF
:1051300057FC40F2FC10C2F20040FFF79DFC002833
:1051400008BF80BDBDE88040FBF74ABC00000000FE
:10515000FEE7000000000000FEE700000000000085
:10516000EFF30980BFF36F8F154B1A681EF0100F15
:1051700008BF20ED108A20E9F04F10602DE90900EA
:105180004FF0500072B680F31188BFF34F8FBFF31A
:105190006F8F62B602F060FC4FF0000080F3118860
:1051A000BDE8090019680868B0E8F04F1EF0100F5C
:1051B00008BFB0EC108A80F30988BFF36F8F704787
:1051C0009003002400000000F0B581B044F22C47A9
:1051D000C5F6020757F8042C02F00302032A02D195
:1051E000012001B0F0BD054657F82C0C0C4620F00C
:1051F000806047F82C0CFCF793FE064657F82C0C01
:10520000000105D5FCF78CFE801B0228F6D964E06E
:1052100057F8040CEE6895E80E0020F47C30012C61
:1052200040EA0130A2F101016FF35F214FF47E42A9
:1052300002EB432247F8040C92B24FF0FE4302EB1C
:1052400001004FF4FE012A6901EB064101F4FE0161
:1052500003EB0262084402F0FE410844F86038683B
:10526000696920F0C00040EA010038603868A96927
:1052700020F0200040EA0100386038684FF6F871ED
:1052800020F0100038603869EA6920EA01004FF424
:10529000001140EAC2003861386808BF4FF480113D
:1052A00040F01000002C386008BF4FF4002138682F
:1052B0000843386057F82C0C40F0806047F82C0CFD
:1052C000FCF72EFE044600BF57F82C0C000107D453
:1052D000FCF726FE001B0328F6D3032001B0F0BD27
:1052E000002001B0F0BD0000F0B581B044F22C47C1
:1052F000C5F6020757F8042C02F00302032A02D174
:10530000012001B0F0BD054657F82C0C0C4620F0EA
:10531000805047F82C0CFCF703FE064657F82C0C7F
:10532000800005D5FCF7FCFD801B0228F6D964E05F
:1053300057F8040CEE6895E80E0020F07C70012C04
:1053400040EA0150A2F101016FF35F214FF47E4268
:1053500002EB432247F8040C92B24FF0FE4302EBFB
:1053600001004FF4FE012A6901EB064101F4FE0140
:1053700003EB0262084402F0FE4108447861386899
:10538000696920F4406040EA010038603868A96922
:1053900020F4007040EA0100386038684FF6F87178
:1053A00020F480703860B869EA6920EA01004FF0A3
:1053B000807140EAC200B861386808BF4FF400014C
:1053C00040F48070002C386008BF4FF480013868CA
:1053D0000843386057F82C0C40F0805047F82C0CEC
:1053E000FCF79EFD044600BF57F82C0C800007D444
:1053F000FCF796FD001B0328F6D3032001B0F0BD97
:10540000002001B0F0BD000040F29000C2F2004068
:10541000FEF7D2BA00000000016840F26F32D1F806
:1054200014C08B6943F008038B618B6943F0100350
:105430008B610B6823F001030B600B6923EA020206
:105440000A618A6822F440428A6090F88120042A26
:1054500018BF1CF0200209D0D0F8842042F080024E
:10546000C0F884208A6942F020028A6190F8812085
:10547000032A18BF1CF0400215D15FEA8C521FD4DA
:105480005FEACC5209D5D0F8842042F00802C0F877
:1054900084208A6942F480728A610021A0F8621037
:1054A000A0F86A107047D0F8842042F00402C0F8D7
:1054B00084208A6942F040028A615FEA8C52DFD51B
:1054C000D0F8842042F00102C0F884208A6942F4B6
:1054D00000728A615FEACC52D5D4DEE7000000009A
:1054E000806B0021A0F86A10A0F86210012180F8FA
:1054F0008110FEF75DBA000000000000000000000F
:10550000074B19680868B0E8F04F80F30988BFF3CB
:105510006F8F4FF0000080F31188704700BF00BF0D
:10552000900300240000000080B54FF0500072B6D8
:1055300080F31188BFF36F8FBFF34F8F62B602F015
:105540004FFF30B14EF604504FF08051CEF20000C4
:105550000160002080F3118880BD00000000000081
:10556000B0B59CB044F6180409A84C21C5F6020455
:10557000FAF7FCFE02200025CDE90755CDE90555D7
:10558000CDE90355CDE90155FCF71EFE40F22C4054
:105590000095C5F60000016821F001010160006876
:1055A00000F001000090206840F440402060206836
:1055B00000F440400090009820688004FCD5012051
:1055C00009904FF480300A9002201490CDE9120027
:1055D00040240421CDE91540CDE917100C20199085
:1055E00009A80025CDE91A55FDF7CAFE18B1EFF359
:1055F000108072B6FEE73F20019003200221CDE922
:10560000020508200694CDE904044FF48060CDE93A
:10561000070401A8FDF74CFC18B1EFF3108072B637
:10562000FEE71CB0B0BD00004EF6885042F2000C00
:10563000CEF20000C5F2002C016841F47001016057
:10564000DCF8000000F00F00062806D8DCF80000A7
:10565000072161F30300CCF8000044F200404EF64D
:105660007F52C5F60200CEF6F622016841F0010134
:1056700001600021016103681A400260DCF800202B
:10568000120706D5DCF80020072363F30302CCF8E9
:10569000002040F200228161C161C0F20222016259
:1056A00082620022C0F2FF12C26240F28022C0F287
:1056B0000112026341638263C16302644164026850
:1056C00022F48022026041F200020166C5F6004227
:1056D0001268B1EB527F05D148F208110122C5F2E0
:1056E00000110A60D0F8D410C90448BF7047D0F840
:1056F000D41043F2D20241F48051C0F8D41044F2E5
:105700000001C5F200210A60D0F8D41021F48051C4
:10571000C0F8D4107047000040F26410C2F200409C
:10572000FEF766BD0000000040F2B010C2F200407B
:10573000FEF75EBD0000000040F6FF32C4F200023A
:10574000904202680FDCB0F1804F1DD040F2004360
:10575000C4F20003984217D040F60003C4F20003DD
:10576000984211D014E040F60043C4F2000398427E
:105770000AD040F20043C4F20103984204D000234F
:10578000C4F20103984203D122F070024B681A431D
:105790004FF6FF7343F6FF7CC4F20003C4F2010C22
:1057A000984210DD604527DD44F20003C4F2010396
:1057B00098422CD044F60003C4F20103984226D04C
:1057C00044F200431FE040F2FF73C4F2000398422A
:1057D00007DCB0F1804F1AD040F20043C4F200035E
:1057E00013E040F60003C4F2000398420FD040F6E5
:1057F0000043C4F2000308E00023C4F2010398420E
:1058000005D040F20043C4F20103984203D122F4D0
:105810004072CB681A4310B5D1F814E060450B68AC
:105820008C68C46283620EDD44F20003C4F201039B
:10583000984213D044F60003C4F2010398420DD0FD
:1058400044F2004306E00023C4F20103984205D06D
:1058500040F20043C4F20103984201D10969016397
:10586000016841F0040101600121416122F08001E1
:1058700041EA0E01016010BD80B582B044F6E950E6
:1058800007A1C0F600004FF4807200234FF0000C17
:105890004FF0010ECDE900EC02F082FC02B080BDB9
:1058A0004C65645F5461736B0000000000000000F1
:1058B00080B582B046F2190007A1C0F600004FF48F
:1058C000807200234FF0000C4FF0010ECDE900EC88
:1058D00002F066FC02B080BD55736172745F546162
:1058E000736B000000000000816A0A070CD4CA072D
:1058F00015D18A071ED44A0727D4CA0630D48A068F
:1059000039D44A0642D454E00268D0F838C053680B
:1059100023F4004343EA0C035360CA07E9D002684A
:10592000D0F82CC0536823F4003343EA0C035360CF
:105930008A07E0D50268D0F830C0536823F480337A
:1059400043EA0C0353604A07D7D50268D0F834C045
:10595000536823F4802343EA0C035360CA06CED570
:105960000268D0F83CC0936823F4805343EA0C03E8
:1059700093608A06C5D50268D0F840C0936823F4C6
:10598000005343EA0C0393604A0612D50268D0F82C
:1059900044C0BCF5801F536823F4801343EA0C0312
:1059A000536006D1536823F4C00C836C43EA0C03A4
:1059B0005360090658BF70470168C06C4A6822F4FA
:1059C0000022104348607047B0B582B00446002002
:1059D000C4F89000FCF7A4FA216805460968090795
:1059E00018D54FF4001100226FF07E400090204641
:1059F0002B4600F06DFA68B1206850E8000F21686E
:105A000020F0800041E80002002AF5D10320202187
:105A1000882230E020680068400723D54FF48001D9
:105A200000226FF07E40009020462B4600F050FA96
:105A3000C0B100BF206850E8000F216820F49070CA
:105A400041E80002002AF5D1206850E8020F2168E1
:105A500020F0010041E80202002AF5D103202021B4
:105A60008C2208E02020C4F88800C4F88C000021B3
:105A700070220020E166A150002184F8841002B059
:105A8000B0BD000000000000F0B583B0044603681C
:105A9000806846F6F315D4E9031210436269104397
:105AA000E2691E68CCF6FF75104306EA0502104352
:105AB000186058684FF2FF4620F4405240F600400C
:105AC00011435960C5F60000A1698342C1F2FF1677
:105AD0001CBF226A11439A6847F2FF753240C4F234
