:020000040800F2
:10000000F0560024AD02000871320008C12F00082C
:100010006932000819040008B1400008000000001F
:10002000000000000000000000000000F1350008A2
:1000300021040008000000004133000839360008A0
:10004000CB020008CB020008CB020008CB0200085C
:10005000CB020008CB020008CB020008CB0200084C
:10006000CB020008CB020008CB020008CB0200083C
:10007000CB020008CB020008CB020008CB0200082C
:10008000CB020008CB020008CB020008CB0200081C
:10009000CB020008CB020008CB020008CB0200080C
:1000A000CB020008CB020008CB020008CB020008FC
:1000B000CB020008CB020008CB020008CB020008EC
:1000C000CB020008CB020008CB020008CB020008DC
:1000D000CB020008CB020008CB020008CB020008CC
:1000E000CB020008CB02000800000000CB02000891
:1000F000CB020008CB020008CB020008CB020008AC
:10010000CB020008CB020008CB020008CB0200089B
:10011000CB020008CB020008293800083938000853
:10012000CB020008CB020008CB020008CB0200087B
:10013000CB020008CB020008CB020008CB0200086B
:1001400000000000000000000000000000000000AF
:10015000CB020008CB020008CB020008CB0200084B
:10016000CB020008CB020008CB020008CB0200083B
:10017000CB020008CB020008CB0200080000000000
:10018000CB020008CB020008CB020008CB0200081B
:10019000CB020008CB020008CB020008CB0200080B
:1001A000CB020008CB020008CB020008CB020008FB
:1001B000CB020008CB020008CB020008CB020008EB
:1001C000CB020008CB020008CB020008CB020008DB
:1001D000CB020008CB020008CB020008CB020008CB
:1001E000CB020008CB020008CB020008CB020008BB
:1001F000CB020008CB020008CB020008CB020008AB
:10020000CB020008CB020008CB020008CB0200089A
:10021000CB020008CB020008CB020008CB0200088A
:10022000CB020008CB020008CB020008000000004F
:10023000CB020008CB02000800000000CB0200083F
:10024000CB020008CB020008CB020008CB0200085A
:10025000CB020008CB020008CB020008CB0200084A
:10026000CB020008CB020008CB020008CB0200083A
:10027000CB020008CB020008CB02000800000000FF
:10028000CB020008CB020008CB02000800000000EF
:1002900000000000CB020008DFF80CD000F0A4F84A
:1002A00000480047C9410008F0560024074880472D
:1002B0000748804707480047FEE7FEE7FEE7FEE7FE
:1002C000FEE7FEE7FEE7FEE7FEE7FEE7390400088B
:1002D00039370008990200082DE9F05F0546002033
:1002E00092469B4688460646814640241BE02846A7
:1002F00041464746224600F067F853465A46C01A20
:10030000914110D311461846224600F04EF82D1A9E
:1003100067EB01084F4622460120002100F045F816
:1003200017EB00094E41201EA4F10104DFDC484612
:1003300031462A464346BDE8F09FD2B201E000F8BC
:10034000012B491EFBD270470022F6E710B5134679
:100350000A4604461946FFF7F0FF204610BD421C2E
:1003600010F8011B0029FBD1801A7047034611F8D1
:10037000012B00F8012B002AF9D11846704730B53F
:100380000B46014600202022012409E021FA02F553
:100390009D4205D303FA02F5491B04FA02F52844ED
:1003A000151EA2F10102F1DC30BD202A04DB203A47
:1003B00000FA02F1002070479140C2F1200320FAB8
:1003C00003F3194390407047202A04DB203A21FAB6
:1003D00002F00021704721FA02F3D040C2F120025E
:1003E00091400843194670471CB5094800900948D8
:1003F00001900546009C06E0E06840F0010394E8A7
:10040000070098471034AC42F6D3FFF749FF0000CD
:100410009C5E0008BC5E0008FEE7000000000000D3
:100420007047000000000000EFF3108072B600BFBC
:10043000FEE700000000000044F60C00C5F60200D4
:10044000016841F00201016050F8081C8904FBD5E5
:1004500070470000000000002DE9F04F83B00E68E7
:10046000002E00F0C78000F1264742F2004507F158
:10047000FF77C5F602050A22A8424FEAB72500F128
:10048000200308BF09220093092D38BF4FEAB72285
:10049000002400274FF0000A01920AE00AF1010A45
:1004A0000E6836FA0AF207F1020704F1040400F0BC
:1004B000A180012202FA0AFB16EA0B08EED0D1F85D
:1004C0000490032209F0030EAEF10106012E02FA98
:1004D00007F610D8D0F808C0CD682CEA0602BD4057
:1004E0002A438260C9F30015426822EA0B0205FA2A
:1004F0000AF52A434260BEF1030F1FD0C2688D681F
:10050000B243BD40BEF1020F42EA0502C26015D1FE
:100510006FF00302009D02EA5A0B04F01C030F2245
:1005200055F80BC002FA03FED1F810902CEA0E0C1D
:1005300009FA03F343EA0C0345F80B3002684B68F1
:10054000B24303F00306BE4013F4403F42EA060202
:100550000260A3D044F2F44340F2084CC5F6020313
:10056000C5F6000C0F251A6842F002021A601A68DC
:1005700002F0020202922AF00302029B04F00C0332
:1005800052F80C609D40AE43019D05FA03F33343DE
:1005900042F80C304FF0B04CDCF800204B6842EAD7
:1005A0000806DD0258BF22EA08069D02CCF800606A
:1005B00040F2040CC5F6000CDCF8002042EA080604
:1005C00058BF22EA08069D03CCF80060DCF88020C2
:1005D00042EA080658BF22EA0806DB03CCF880602E
:1005E000DCF87C2042EA080658BF22EA0806CCF86C
:1005F0007C6053E703B0BDE8F08F0000000000000E
:10060000426902EA0103914341EA03418161704773
:10061000002A08BF09048161704700000000000043
:1006200041F20000C5F600400068000C7047000071
:1006300045F24020C2F20040006870470000000010
:1006400040F20C0045F24021C2F20040C2F20041EB
:1006500000780A681044086070470000000000003D
:1006600080B5032000F028F901F086F944F2184122
:1006700045F6DC53C5F60201C0F600030A68C2F372
:1006800003229A5C096801F00F0102F01F02595C15
:10069000D04040F20802C2F2004201F01F0120FAED
:1006A00001F1116040F20401C2F2004108600F2024
:1006B00000F00AF800281CBF012080BD00F0A8F857
:1006C000002080BD000000000F2847D8B0B58AB0D8
:1006D0000446362000222146002500F0BDF83620D1
:1006E00000F0A6F840F21000C2F20040046044F2AC
:1006F000E840C5F60200016841F0100101600068A1
:1007000001A900F010000290029802A801F080F800
:10071000079C002C18BF012401F0CEF84DF6836130
:10072000A040C4F21B3141F20002A0FB010140F2E3
:100730006400C2F200404FF0FF33C4F200020260D6
:1007400003EB9141C0E9011540F2E731C0E903151F
:1007500001F08AFD20B101200AB0B0BD0120704730
:1007600040F26400C2F2004001F0D2FD0AB0B0BD18
:1007700010B54EF6A05E4378CEF2000E90F800C0A1
:100780004EF8083CDEF8003023F00103CEF80030CC
:1007900043684EF8043C037BC27A817A447B12069C
:1007A00042EA0372837B42EAC141C27B41EA84414F
:1007B000447A41EA4341007A41EA024141EA042194
:1007C00041EA400040EA0C00CEF8000010BD0000F5
:1007D0004EF62450CEF20000BFF35F8F016821F483
:1007E00080310160002101677047000000000000B7
:1007F0004EF6245140F00100CEF20001086708686F
:1008000040F480300860BFF34F8FBFF36F8F7047A5
:1008100081B044F2F440C5F60200016841F00201E3
:100820000160006800F002000090009801B070477D
:10083000002848BF704700F01F01012202FA01F1B1
:100840004EF20012C0F34A10CEF2000242F820101D
:10085000704700000000000070B54EF60C5C4FF0D1
:10086000FF36CEF2000C00F1604505F56445DCF87A
:100870000030C3F3022E8EF00703042B28BF04239D
:10088000BEF1030406FA03F321EA030100F00F03AB
:1008900038BF0024043B0028634406FA04F048BF34
:1008A00003F10C05A14022EA000008430001287072
:1008B00070BD0000000000004EF60C514FF6FF0323
:1008C000CEF200010A681A4060F30A2242F080600A
:1008D00040F0FD7008607047B0B544F60C05C5F6F1
:1008E000020529684907296805D401F00701081A9B
:1008F00018BF0120B0BD21F0070108432860FFF7B1
:1009000097FE044655F8080C800407D4FFF790FEC4
:10091000001BB0F57A7FF5D90120B0BD0020B0BD35
:1009200080B500F0A1FF44F2204145F6DC52C5F647
:100930000201C0F600020968C1F30211515C01F026
:100940001F01C84080BD000080B544F2384EC5F696
:10095000020E5EF8103C5EF8101C5EF80C2CC1F321
:10096000053CDEF80410BCF1000F18D0C9089FED5B
:100970003A1AD20601EAE27103F003026FF35F3123
:1009800000EE101AB8EE400ADFE802F0021F0E1F58
:100990005EF8381C89060AD49FED311A15E0002153
:1009A0008160C0E9001180BD9FED2C1A0DE05EF85A
:1009B000381C49F20002C0F2D032C1F3C10122FA60
:1009C00001F101EE101AB8EE411ADEF800109FEDA9
:1009D000253A6FF35F2102EE101ADEF80010C1F322
:1009E0004621B8EE422A013100EE032A00EE10CA79
:1009F000B7EE003AB8EE400A81EE000A32EE031A72
:100A000020EE010A01EE101AB8EE411A80EE011A2A
:100A1000BCEEC11A80ED001ADEF80010C1F30641E9
:100A2000013101EE101AB8EE411A80EE011ABCEE47
:100A3000C11A80ED011ADEF80010C1F30661013120
:100A400001EE101AB8EE411A80EE010ABCEEC00A9F
:100A500010EE101A816080BD0024744A20BCBE4B89
:100A60000024744C0000003980B544F2404EC5F6B5
:100A7000020E5EF8183C5EF8181C5EF8142CC1F3E8
:100A8000055CDEF80410BCF1000F18D0C9089FED1A
:100A90003A1AD20501EAE27103F003026FF35F3103
:100AA00000EE101AB8EE400ADFE802F0021F0E1F37
:100AB0005EF8401C89060AD49FED311A15E000212A
:100AC0008160C0E9001180BD9FED2C1A0DE05EF839
:100AD000401C49F20002C0F2D032C1F3C10122FA37
:100AE00001F101EE101AB8EE411ADEF800109FED88
:100AF000253A6FF35F2102EE101ADEF80010C1F301
:100B00004621B8EE422A013100EE032A00EE10CA57
:100B1000B7EE003AB8EE400A81EE000A32EE031A50
:100B200020EE010A01EE101AB8EE411A80EE011A09
:100B3000BCEEC11A80ED001ADEF80010C1F30641C8
:100B4000013101EE101AB8EE411A80EE011ABCEE26
:100B5000C11A80ED011ADEF80010C1F306610131FF
:100B600001EE101AB8EE411A80EE010ABCEEC00A7E
:100B700010EE101A816080BD0024744A20BCBE4B68
:100B80000024744C000000392DE9F04381B0044684
:100B9000C07844F22C490007C5F6020901D40025AB
:100BA00020E0A06E4FEA3050032838D80025DFE857
:100BB00000F0020A1C22D9F8000040F40030C9F805
:100BC0000000D5B906E004F10800022102F0ECFBB8
:100BD000054695B9D9F82400A16E20F440100843C9
:100BE000C9F824004FF0000808E004F128000221B1
:100BF00002F06AFC0546002DECD0A8466078C007DC
:100C000021D0A06D042800F24E81DFE810F0E90049
:100C10001A010C00050005006DB1A84613E001257E
:100C2000002DEAD1D6E704F12800002102F04CFCA7
:100C30000546002DF1D1D9F82400A16D20F0070060
:100C40000843C9F82400607880071FD5E06D4FEA9B
:100C5000B010042800F22C81DFE810F0CC00FD0079
:100C60000800050005004DB1A8460FE004F128007A
:100C7000002102F029FC0546002DF5D1D9F8240009
:100C8000E16D20F4E0700843C9F824006078400763
:100C900021D5D4F8A8004FEA7050042800F20D8145
:100CA000DFE810F0B200E3000800050005004DB1D8
:100CB000A84610E004F12800002102F005FC0546DA
:100CC000002DF5D1D9F82C00D4F8A81020F460003C
:100CD0000843C9F82C00607800071FD5D4F8AC0091
:100CE0004FEA3060042800F2ED80DFE800F097C89A
:100CF000060303004DB1A84610E004F128000021CE
:100D000002F0E2FB0546002DF5D1D9F82C00D4F80D
:100D1000AC1020F0E0600843C9F82C00E0788007B0
:100D20001BD5E06C4FEA3010032830D8DFE800F024
:100D3000020526024DB1A8460FE0D9F8000040F4A4
:100D40000030C9F80000002DF5D1D9F82000E16C81
:100D500020F030000843C9F820006078C0062AD58A
:100D6000206E4FEA3030042800F2B180DFE800F056
:100D7000609113030300B5B1A8461CE004F108001C
:100D8000022102F011FB0546002DD4D1DDE701253B
:100D9000002DD0D1D9E704F12800002102F094FB06
:100DA0000546002DE8D1D9F82400216E20F4E0405A
:100DB0000843C9F824006078800640F1A180606E85
:100DC0004FEA3040052800F29080DFE800F08B0306
:100DD000858B8B8B04F10800012102F0E5FA80E09D
:100DE000D9F8000040F40030C9F80000002D7FF46D
:100DF00014AF20E7D9F8000040F40030C9F8000033
:100E0000002D7FF431AF39E7D9F8000040F400300D
:100E1000C9F80000002D7FF44BAF53E7D9F800006C
:100E200040F40030C9F80000002D7FF464AF6CE797
:100E3000D9F8000040F40030C9F80000002D9BD123
:100E4000B1E704F10800002102F0AEFA0546002DDA
:100E50007FF4E3AEEFE604F10800002102F0A4FA0B
:100E60000546002D7FF400AF08E704F108000021DB
:100E700002F09AFA0546002D7FF41AAF22E704F13A
:100E80000800002102F090FA0546002D7FF433AFF0
:100E90003BE704F10800002102F086FA0546002D28
:100EA0007FF46AAF7FE70125002D7FF4B6AEC2E67E
:100EB0000125002D7FF4D8AEE0E60125002D7FF45A
:100EC000F7AEFFE60125002D7FF415AF1DE70125E4
:100ED000002D7FF451AF66E704F12800012102F0F4
:100EE000F3FA054625B1A8460AE00125002DFAD1FE
:100EF000D9F82400616E20F4E0200843C9F82400EA
:100F00006078400625D5D4F8B0004FEA3070052847
:100F100013D8DFE800F00F03090F0F0F04F10800EA
:100F2000012102F041FA04E004F12800012102F05D
:100F3000CBFA054625B1A8460BE00125002DFAD1D4
:100F4000D9F82C00D4F8B01020F0E0400843C9F8DC
:100F50002C006078000620D5206FD8B1B0F1005F7A
:100F600012D0B0F1805F26D1D9F8000040F40030F3
:100F7000C9F8000085B9D9F82400216F20F040504D
:100F80000843C9F8240008E004F10800012102F038
:100F90000BFA0546002DEED0A846E078C0071ED01B
:100FA000A06C032800F28180DFE800F002097502DE
:100FB0006DB1A84613E00125002DEDD1DBE7D9F88E
:100FC000000040F40030C9F80000002DF1D1D9F83C
:100FD0002000A16C20F003000843C9F82000A0788D
:100FE000400645D5D9F8D40340F48070C9F8D4033D
:100FF000FFF71EFB064600BFD9F8D403C00505D491
:10100000FFF716FB801B6528F6D303257DBBD9F8B7
:101010004410D4F8B400414011F4407F11D0D9F805
:101020004410D9F8442042F48032C9F84420D9F859
:10103000442021F4407122F48032C9F84420C9F8D8
:101040004410B0F5807F0FD1FFF7F2FA064641F267
:10105000893700BFD9F84400800705D4FFF7E8FAC4
:10106000801BB842F6D30325002D00F08A82A846E3
:101070002078C00732D0E06F4FEAF000052822D870
:10108000DFE800F01E03181E1E1E04F108000121F7
:1010900002F08AF913E004F10800022102F084F959
:1010A0000546002D7FF485AF91E70125002D7FF4E3
:1010B00080AF8CE704F12800012102F005FA054613
:1010C00025B1A8460AE00125002DFAD1D9F828005B
:1010D000E16F20F038000843C9F828002078800725
:1010E00021D5A06F052813D8DFE800F00F03090F02
:1010F0000F0F04F10800012102F056F904E004F199
:101100002800012102F0E0F9054625B1A8460AE0D1
:101110000125002DFAD1D9F82800A16F20F0070091
:101120000843C9F828002078400723D5D4F8940054
:10113000052813D8DFE800F00F03090F0F0F04F1A3
:101140000800012102F030F904E004F12800012137
:1011500002F0BAF9054625B1A8460BE00125002D9D
:10116000FAD1D9F82C00D4F8941020F007000843E5
:10117000C9F82C002078800625D5D4F890004FEAD5
:101180003070052813D8DFE800F00F03090F0F0FA8
:1011900004F10800002102F007F904E004F128003E
:1011A000022102F091F9054625B1A8460BE0012580
:1011B000002DFAD1D9F82800D4F8901020F0E040A2
:1011C0000843C9F828002078400625D5D4F89C00AB
:1011D0004FEAB020052813D8DFE800F00F03090F0D
:1011E0000F0F04F10800002102F0DEF804E004F122
:1011F0002800022102F068F9054625B1A8460BE057
:101200000125002DFAD1D9F82C00D4F89C1020F437
:10121000E0500843C9F82C002078000625D5D4F802
:10122000A0004FEA7030052813D8DFE800F00F0364
:10123000090F0F0F04F10800002102F0B5F804E0D7
:1012400004F12800022102F03FF9054625B1A84625
:101250000BE00125002DFAD1D9F82C00D4F8A0100C
:1012600020F460400843C9F82C002078000716D508
:10127000D4F88400B0F5805F08D104F12800022181
:1012800002F022F9002818BF4FF00108D9F8280011
:10129000D4F8841020F440500843C9F8280020787E
:1012A000C00616D5D4F89800B0F5807F08D104F1B7
:1012B0002800022102F008F9002818BF4FF00108A9
:1012C000D9F82C00D4F8981020F440700843C9F8DD
:1012D0002C00A078000724D5D4F8A400B0F5003F76
:1012E0001CD0B0F5803F13D0002840F0E98004F115
:1012F0000800002102F058F805468DB9D9F82C00F5
:10130000D4F8A41020F440300843C9F82C0008E0B9
:1013100004F12800022102F0D7F80546002DEDD097
:10132000A846A078400725D5D4F88800B0F5401F1E
:101330001DD0B0F5001F14D0B0F5801F40F0C5805F
:10134000D9F8000040F40030C9F800008DB9D9F890
:101350002800D4F8881020F440100843C9F8280069
:1013600008E004F12800012102F0AEF80546002D46
:10137000EDD0A846A078C0071FD0206DB0F5803F03
:101380000BD0002840F09780D9F8000040F40030DE
:10139000C9F800004DB1A8460FE004F10800022191
:1013A00002F002F80546002DF5D1D9F82000216D94
:1013B00020F480300843C9F82000E078800608D582
:1013C00004F12800022102F07FF8002818BF4FF036
:1013D0000108D4E900108A0340F18680D4F8802007
:1013E0006FF0010303EB3223022B0AD34FEA3223BF
:1013F0003BB1012B6ED1D9F8003043F40033C9F86A
:101400000030002D69D0CA0271D4CA007AD48A0291
:1014100000F184804A0000F18C80CA0F40F099806E
:10142000090200F1A180C00707D004F108000021E3
:1014300001F0BAFF002818BF05462079800707D5BC
:1014400004F10800012101F0AFFF002818BF054694
:101450002079400707D504F10800022101F0A4FF1C
:10146000002818BF05462079000707D504F1280099
:10147000002102F029F8002818BF05462079C0068F
:1014800007D504F12800012102F01EF8002818BF3A
:1014900005462079800607D504F12800022102F0D4
:1014A00013F8002818BF0125002D18BF0125284674
:1014B00001B0BDE8F0830125002D7FF46CAF74E727
:1014C0000125002D7FF42CAF18E70125002D7FF4B6
:1014D00050AF3CE70125002D95D1D9F8283023F4F1
:1014E00040731A43C9F828204546CA028DD5D9F859
:1014F0002420636F22F000421A43C9F82420CA0056
:101500007FF585AF59F81C2CD4F8B83022F480420E
:101510001A4349F81C2C8A027FF57CAFD9F82420A5
:10152000E36E22F080721A43C9F824204A007FF546
:1015300074AF59F81C2C22F4004249F81C2CD4F842
:10154000BC2059F81C3C1A4349F81C2CCA0F3FF424
:1015500067AFD9F82020636D22F040521A43C9F8D2
:10156000202009027FF55FAFD9F82810D4F88C202D
:1015700021F440011143C9F82810C0077FF455AF8A
:101580005BE74FF6CF73D4F8B40059F81C2CC0F2C7
:10159000FF0300F4407122F47C5203EA1013B1F50A
:1015A000407F08BF1A436FF31F3049F81C2CD9F84D
:1015B00044100843C9F844005AE500000000000048
:1015C0002DE9F04381B0002800F0F88042F20008D5
:1015D0000446C5F200288946D8F8000000F00F0044
:1015E00081420ED9D8F8000020F00F0040EA09002F
:1015F000C8F80000D8F8000000F00F00484540F09F
:10160000DD80206844F218474107C5F602070AD575
:1016100021693A6802F07002914204D93A6822F0D6
:1016200070021143396001070AD561697A6802F0D6
:101630007002914204D97A6822F0700211437960F5
:10164000C1060AD5A1697A6802F4E062914204D920
:101650007A6822F4E0621143796081060AD5E16973
:10166000BA6802F07002914204D9BA6822F070029E
:101670001143B96081070AD5E1683A6802F00F02A8
:10168000914204D93A6822F00F0211433960C00731
:1016900040F08080206881070AD5E1683A6802F04E
:1016A0000F02914204D23A6822F00F0211433960CE
:1016B000D8F8001001F00F0189450DD2D8F80010BC
:1016C00021F00F0141EA0901C8F80010D8F8001014
:1016D00001F00F01494571D141070AD521693A68E6
:1016E00002F07002914204D23A6822F07002114373
:1016F000396001070AD561697A6802F07002914287
:1017000004D27A6822F0700211437960C1060AD5CA
:10171000A1697A6802F4E062914204D27A6822F404
:10172000E0621143796080060AD5E069B96801F08A
:101730007001884204D2B96821F070010843B86092
:1017400000F01AF9396845F6DC52C0F60002C1F320
:101750000321515C3B6803F00F0301F01F01D25CD1
:1017600020FA01F102F01F0040F20802C2F200422A
:1017700021FA00F0106040F2100040F20402C2F2C0
:101780000040C2F200420068116001B0BDE8F043C1
:10179000FEF79ABF386820F47061D4E90102114362
:1017A0003960012857F8181C0CD0032804D00228EF
:1017B00028D1890302D507E0890105D4012001B0B1
:1017C000BDE8F083C905F9D557F8081C21F00701D9
:1017D000084347F8080CFEF72BFF064641F2883510
:1017E00057F8080C616800F03800B0EBC10F3FF407
:1017F00051AFFEF71DFF801BA842F1D9032001B0B5
:10180000BDE8F0834907D9D5DEE7000000000000FD
:101810003F22026044F21842C5F6020252F8083C28
:1018200003F007034360136803F470638360136875
:1018300003F00F03C360136803F070030361536880
:1018400003F070034361536803F4E06383619268BB
:1018500002F07002C26142F20000C5F2002000688E
:1018600000F00F000860704780B500F085F844F282
:10187000184145F6DC53C5F60201C0F600030A68BC
:10188000C2F303229A5C096801F00F0102F01F0203
:10189000595C20FA02F201F01F0040F20801C2F286
:1018A000004122FA00F0086040F20401C2F2004157
:1018B0000A6080BD0000000080B500F05DF844F2D1
:1018C000184C45F6DC53C5F6020CC0F60003DCF8F4
:1018D0000020C2F303229A5CDCF8001001F00F0133
:1018E00002F01F02595CD04040F20802C2F20042EE
:1018F00001F01F0120FA01F1116040F20402C2F26E
:1019000000421060DCF80400C0F30210185C00F024
:101910001F0021FA00F080BD80B500F02DF844F2E0
:10192000184C45F6DC53C5F6020CC0F60003DCF893
:101930000020C2F303229A5CDCF8001001F00F01D2
:1019400002F01F02595CD04040F20802C2F200428D
:1019500001F01F0120FA01F1116040F20402C2F20D
:1019600000421060DCF80400C0F30220185C00F0B4
:101970001F0021FA00F080BD44F20041C5F60201CB
:101980000869C0F3C200032814D002280DD088BB18
:101990000868800649F20000C0F2D03058BF704796
:1019A0000968C1F3C101C840704747F64000C0F262
:1019B0007D1070478B6A886AD1F82CC04A6BC0F3DF
:1019C0000510E0B1C2F3CC0203F0030300EE102ACD
:1019D0009FED291AB8EE400A20EE010A9FED271A62
:1019E000DFE803F0021F0F1F0A6892060CD49FED78
:1019F000251A16E040F60010C0F23D0070470020A6
:101A000070479FED1F1A0CE00A6849F20003C0F20C
:101A1000D033C2F3C10223FA02F201EE102AB8EE6B
:101A2000411A0A6B9FED183A6FF35F2202EE102AFB
:101A30005FEACC7203FE000A03EE100A086BB8EEF0
:101A4000422AC0F34620B8EE433A013030EE020A93
:101A5000B7EE002A81EE031A30EE020A21EE000AE8
:101A600001EE100AB8EE411A80EE010ABCEEC00A7F
:101A700010EE100A704700BF000000390024744ABD
:101A800020BCBE4B0024744C00000000000000008D
:101A90002DE9F04381B0002800F0C781804600782E
:101AA00044F20049C007C5F6020954D0D9F8100025
:101AB00000F03801D9F82800102905D018290CD1D8
:101AC00000F00300022808D1D9F8000080033ED5B9
:101AD000D8F80400D8BB01272CE0D8F80440D9F886
:101AE00000002CB1B4F5A02F0BD0B4F5803F0ED080
:101AF00020F48030C9F80000D9F8000020F48020DC
:101B000007E040F48020C9F80000D9F8000040F454
:101B10008030C9F80000FEF78BFD05469CB100BF80
:101B2000D9F80000800312D4FEF782FD401B642820
:101B3000F6D90327002070B9BCE100BFFEF778FD9D
:101B4000401B6428F5D8D9F800008003F6D40120A2
:101B5000002800F0AF8198F80000800740F18080F5
:101B6000D9F8100010F03801D9F828001CD0182935
:101B700008BF5FEA807017D0D8F80C00D9F80010C1
:101B8000002845D021F019010843C9F80000FEF7EC
:101B90004FFD0546D9F80000400728D4FEF748FD60
:101BA000401B0228F6D91EE0D9F80000400704D5F2
:101BB000D8F80C00002800F0DC81D9F80000D8F833
:101BC0000C1020F019000843C9F80000FEF730FDA2
:101BD000054600BFD9F80000400708D4FEF728FDED
:101BE000401B0228F6D903270024CCBB62E1FEF794
:101BF00017FD41F20301884221D8D8F81000D9F826
:101C00000410402821F47C3122D141F4003021E03D
:101C100021F00100C9F80000FEF70AFD0546012683
:101C2000D9F8000010F0040086EA900415D0FEF701
:101C3000FFFC401B0228F3D903278CB93AE1D9F8FD
:101C40000400D8F8101020F0FE4040EA016001E0E6
:101C500041EA00300124C9F80400002C00F02A8178
:101C600098F80000C00670D5D9F8100000F03801CF
:101C7000D9F82800082905D018291CD100F0030044
:101C8000012818D1D9F80000C00503D5D8F81C00E8
:101C9000802855D1FEF7C4FC41F20301884222D8C6
:101CA000D8F82000D9F80410202821F0F8413ED1BE
:101CB00041F080403DE0D8F81C000028D9F8000031
:101CC0001ED040F08000C9F80000FEF7B1FC0546C8
:101CD000D9F80000C005DDD4FEF7AAFC401B02289D
:101CE000F6D903272DE0D9F80C00D8F8201020F001
:101CF0007C50012440EA0160C9F80C002CBBD9E0FB
:101D000020F08000C9F80000FEF792FC054601268D
:101D1000D9F8000010F4807086EA10240CD0FEF789
:101D200087FC401B0328F3D3032774B9C2E041EAC0
:101D30008060C9F804000124002C00F0BB8004E09E
:101D400001270024002C00F0B58098F8000000075F
:101D50006DD498F80000800600F1818098F80000AA
:101D6000400700F19480D8F82440002C5BD0D9F8CB
:101D7000100000F03800182840F0D980012CD9F864
:101D80002810D9F8300050D001F00302D8F82830DC
:101D90009A424AD1C1F30511D8F82C20914244D17E
:101DA0000146D8F830206FF35F21013A91423CD1CF
:101DB000C0F34622D8F8341001398A4235D1C0F335
:101DC0000642D8F8381001398A422ED1C0F3066095
:101DD000D8F83C100139884227D1D9F83400D8F816
:101DE0004810C0F3CC0081421DD0D9F82C0020F05F
:101DF0000100C9F82C00FEF71BFC0546FEF718FC95
:101E0000A842FBD0D9F834004FF6F871D8F8482032
:101E1000884340EAC200C9F83400D9F82C0040F0E9
:101E20000100C9F82C00002744E0012742E0D8F85F
:101E300014000028D9F8740040D040F00100C9F81F
:101E40007400FEF7F5FB0546D9F8740080073FF5EE
:101E500080AFFEF7EDFB401B0228F5D929E0D8F84A
:101E600018000028D9F800004DD040F48050C9F87F
:101E70000000FEF7DDFB0546D9F8000080043FF5C1
:101E80006DAFFEF7D5FB401B0228F5D911E0D9F85C
:101E9000000440F48070C9F80004FEF7C9FB054651
:101EA000D9F80004C0051CD4FEF7C2FB401B64280F
:101EB000F6D90327F8B201B0BDE8F08320F00100A5
:101EC000C9F87400FEF7B4FB05460327D9F874007F
:101ED00080077FF53EAFFEF7ABFB401B0228F5D92C
:101EE000E8E7D8F80840D9F870001CB1052C42D0BA
:101EF000012C46D020F00100C9F87000D9F870001C
:101F000020F004003FE020F48050C9F80000FEF704
:101F10008FFB0546032700BFD9F8000080047FF53A
:101F20001DAFFEF785FB401B0228F5D9C2E7D9F8A3
:101F3000000020F08070C9F80000FEF779FB022C49
:101F400005464FF0030709D1D9F8000080013CD5C0
:101F5000FEF76EFB401B0228F6D9ABE7D9F800006C
:101F600080017FF560AFFEF763FB401B0228F5D9C7
:101F7000A0E7012738E640F00400C9F87000D9F85E
:101F8000700040F00100C9F87000FEF751FB002C12
:101F9000054641F288344FF0030711D0D9F870009C
:101FA00080073FF5E0AEFEF743FB401BA042F5D9AA
:101FB00080E700BFFEF73CFB401BA0423FF67AAF34
:101FC000D9F870008007F5D4CDE608F12807D9F8D4
:101FD000280040F2F33188438ECF0843591E40EA6F
:101FE00002104FF47E426FF35F21C9F8280002EB24
:101FF00047204FF4FE0280B2D8F83C300844D8F8AD
:10200000381002EB01414FF0FE4201F4FE0102EBF9
:102010000362084402F0FE410844C9F83000D9F8D0
:102020002C004FF6F87120F00100C9F82C00D9F807
:102030003400D8F84820884340EAC200C9F8340088
:10204000D9F82C00D8F8401020F00C000843C9F84B
:102050002C00D9F82C00D8F8441020F002000843D6
:10206000C9F82C00D9F82C0040F48030C9F82C00B5
:10207000D9F82C0040F40030C9F82C00D9F82C0015
:1020800040F48020C9F82C00D9F82C0040F0010061
:10209000C9F82C00D9F8000040F08070C9F80000A1
:1020A000FEF7C6FA04460327D9F8000080013FF581
:1020B000BAAEFEF7BDFA001B0228F5D9FAE6000019
:1020C00040F20442C5F60002136823EA0000084308
:1020D0001060704700000000704700000000000022
:1020E0007047000000000000704700000000000082
:1020F00090F83C20012A01D10220704710B5CB682E
:1021000048F2FF7ED1E901C223F47C5322F47052DD
:10211000CFF6F07E42EA03040CEA0E030A6823437A
:1021200022F477220C691A4324F47623D0F800C0F5
:102130001A434B691A434CF4806422F4742340F22E
:102140000042C4F2010294428A6A22F470228C692D
:1021500042EA03024FF0010380F83C3042EA0443B4
:1021600010D140F2000E23F07C724B6ACFF6F04E95
:10217000CC690EEA03531A4324F00073096A1A4328
:1021800042EA0103CCF84430002180F83C100020E2
:1021900010BD00000000000090F83C20012A4FF024
:1021A00002025FD0B0B5012380F83C3080F83D20BA
:1021B00040F2004C0268C4F2010C42F480636345B3
:1021C0005368D2F808E002BF23F470034C6823433D
:1021D00041F2FF740D68C4F2000423F07003A242C0
:1021E00043EA050353600BDC40F2FF73C4F20003C3
:1021F0009A4215DCB2F1804F27D040F2004317E03D
:1022000040F2FF33C4F201039A4216DC41F60003A8
:10221000C4F200039A4218D00023C4F2010309E07B
:1022200040F60003C4F200039A420ED040F6004389
:10223000C4F200039A4208D00CE044F20003C4F256
:1022400001039A4201D0624504D12EF080038968CF
:10225000194391600022012180F83D1080F83C2054
:10226000BDE8B0401046704760B310B5044690F822
:102270003D0028B9002084F83C00204600F024F8F6
:10228000022084F83D002068211D01F0DDFA0120C4
:1022900084F8480084F83E0084F83F0084F8400049
:1022A00084F8410084F8420084F8430084F8440034
:1022B00084F8450084F8460084F8470084F83D001F
:1022C000002010BD0120704741F200410068C4F2B7
:1022D0000001884218BF704780B582B044F2E840E0
:1022E0000022C5F60200016841F02001016000688B
:1022F000002100F02000019001983720FEF7ACFA91
:10230000372002B0BDE88040FEF792BA000000001E
:1023100090F83D1001291BD1022180F83D10016881
:1023200041F2FF70C4F200008142C86840F0010031
:10233000C8600FDC40F2FF70C4F20000814217DC7D
:10234000B1F1804F2BD040F20040C4F2000024E0F5
:102350000120704740F2FF30C4F20100814212DCDC
:1023600041F60000C4F20000814218D0002012E0C3
:1023700040F60000C4F20000814210D040F6004058
:10238000C4F2000009E044F20000C4F201008142FE
:1023900005D040F20040C4F2010081420BD1072277
:1023A0008868C0F2010202400020062A18BFB2F578
:1023B000803F00D17047086840F0010008600020AD
:1023C000704700000000000070470000000000009F
:1023D000F0B581B004460068C5680669B10716D536
:1023E00015F0020113D06FF0020101610121217784
:1023F0008069800703D02046FFF7E6FF05E020460E
:1024000000F09AF8204600F033FB00202077700798
:1024100018D515F0040015D020686FF00401016193
:1024200002212177806910F4407F03D02046FFF716
:10243000CBFF05E0204600F07FF8204600F018FBB7
:1024400000202077300717D515F0080014D0206839
:102450006FF00801016104212177C069800703D072
:102460002046FFF7B1FF05E0204600F065F8204662
:1024700000F0FEFA00202077F00618D515F01000C5
:1024800015D020686FF01001016108212177C06923
:1024900010F4407F03D02046FFF796FF05E020466A
:1024A00000F04AF8204600F0E3FA00202077F00719
:1024B00018BF15F0010006D020686FF0010101611E
:1024C000204600F0A9FB05F0800716F4025F18BF54
:1024D000002F02D1F00509D410E020686FF40251FA
:1024E00001612046FFF7FCFDF00507D537B12068F4
:1024F0006FF4807101612046FFF7EEFD700609D58B
:1025000015F0400006D020686FF0400101612046C0
:1025100000F09EFBB0060CD515F0200009D0206815
:102520006FF020010161204601B0BDE8F040FFF7E7
:10253000DBBD01B0F0BD00007047000000000000EE
:1025400090F83C30012B01D1022070474FEAB203D2
:102550000122052B80F83C2000F23C822DE9F0415D
:10256000DFE803F003B753912DF5036843F6FF76D8
:10257000C4F201061C6AB3421A6A24F0020422F073
:1025800001021A621A46D3F804C052F818EF8D6897
:1025900044EA0504D1F8008040F3798144F2000751
:1025A000C4F20107BB4200F07D8144F60007C4F28B
:1025B0000107BB4200F0768144F200476EE10368F8
:1025C00043F6FF77C4F20107D3F820C0BB421A6A72
:1025D00022F480321A621A465C6852F8546F0D6811
:1025E000D1F808E040F3D98044F20007C4F20107B3
:1025F000BB4200F0DD8044F60007C4F20107BB4295
:1026000000F0D68044F20047CEE0036840F2004E6E
:1026100043F48067C4F2010E1C6A77451A6A24F4F9
:10262000007422F480721A621A465D6852F81CCF58
:102630008E6844EA062407D1CE6840F2FF4736028E
:1026400024F44064BE43344343F6FF76D1F800805F
:10265000C4F20106B34240F3CB8044F20007C4F257
:102660000107BB4200F0CB8044F60007C4F201072B
:10267000BB4200F0C48044F20047C4F20107BB42F1
:1026800000F0BD80C2E0036843F6FF77C4F20107A3
:10269000D3F820C0BB421A6A22F480521A621A464A
:1026A0005C6852F81C6F0D68D1F808E040F3C580F3
:1026B00044F20007C4F20107BB4200F0C98044F6AF
:1026C0000007C4F20107BB4200F0C28044F2004799
:1026D000BAE0036840F2004E43F48067C4F2010E92
:1026E0001C6A77451A6A24F0200422F010021A624C
:1026F0001A465D6852F818CF8E6844EA061407D16E
:10270000CE686FF0400724F0C00407EA0616344391
:1027100043F6FF76D1F80080C4F20106B34240F3DD
:10272000D88044F20007C4F20107BB4200F0D88011
:1027300044F60007C4F20107BB4200F0D18044F226
:102740000047C4F20107BB4200F0CA80CFE0036833
:1027500043F6FF77C4F20107D3F820C0BB421A6AE0
:1027600022F480121A621A465C6852F8546F0D689F
:10277000D1F808E040F3FC8044F20007C4F20107FE
:10278000BB4200F0008144F60007C4F20107BB42DF
:1027900000F0F98044F20047F1E00027C4F201079D
:1027A000BB4205D040F20047C4F20107BB4204D14E
:1027B0004F6924F4803444EA07244FF68C775C6038
:1027C000CFF6FE7703373E402CF4003746EA050487
:1027D0005C654E6809699E6547EA0E471F625F6D3A
:1027E00047F008075F655F6D27F004075F65EBE062
:1027F0000027C4F20107BB4201D0734506D1D1E9DD
:102800000576374325F4405646EA07154FF68C7790
:102810005D60CFF6FE7707EA0C0747EA0807DF613D
:102820004F680969DF631C62DF6947F00807DF61F1
:10283000DF6927F00407DF61C6E00027C4F2010763
:10284000BB4205D040F20047C4F20107BB4204D1AD
:102850004F6924F4804444EA871448F6FF475C60DB
:10286000CFF6FF673E402CF4005746EA0524DC61B2
:102870004E6809691E6447EA0E371F62DF6947F434
:102880000067DF61DF6927F48067DF619BE0002775
:10289000C4F20107BB4205D040F20047C4F2010771
:1028A000BB4205D1CF6824F00C0427F004073C4359
:1028B000B34233DD44F20006C4F20106B34238D01D
:1028C00044F60006C4F20106B34232D044F2004698
:1028D0002BE00027C4F20107BB4201D0734506D1AB
:1028E000D1E90576374325F4406646EA870548F680
:1028F000FF475D60CFF6FF6707EA0C0747EA082746
:102900009F614F6809699F631C629F6947F4006774
:102910009F619F6927F480679F6154E00026C4F29D
:102920000106B34205D040F20046C4F20106B342AC
:1029300006D12CF44077D1E90565374347EA050C09
:102940004FF68C75C3F804C0CFF6FE750EEA050786
:1029500047EA08079F614F6809695F631C629F69C6
:1029600047F008079F619F6927F004079F612BE0EC
:102970000027C4F20107BB4205D040F20047C4F271
:102980000107BB4204D14F6924F4802444EA872420
:1029900048F6FF475C60CFF6FF6707F540773E409B
:1029A0002CF4001746EA05245C654E680969DE656B
:1029B00047EA0E571F625F6D47F400675F655F6D02
:1029C00027F480675F6509021368194311600022CC
:1029D000BDE8F041002180F83C101046704700002F
:1029E00060B310B5044690F83D0028B9002084F883
:1029F0003C00204600F024F8022084F83D002068C6
:102A0000211D00F021FF012084F8480084F83E00D9
:102A100084F83F0084F8400084F8410084F84200C4
:102A200084F8430084F8440084F8450084F84600A4
:102A300084F8470084F83D00002010BD0120704755
:102A400000210068C4F20101884218BF704781B0BC
:102A500044F2F040C5F60200016841F00101016056
:102A6000006800F001000090009801B0704700007D
:102A7000704700000000000080B559B10B1F4FF0F7
:102A80003F0E4FEAB30C4322BCF1040F38BF0EEBEC
:102A9000B30200E03E22825C012A0DD171B10A1F0F
:102AA0004FEAB202032A19D8DFE802F002140C1030
:102AB000022280F83F2014E0012080BD022280F82D
:102AC0003E200EE0022280F841200AE0022280F837
:102AD000422006E0022280F8402002E0022280F834
:102AE0004320026801F01F00012101FA00F0116A81
:102AF000814311624FF6FF71C4F200018A42116AEC
:102B000040EA0100106216DC40F2FF70C4F20000DF
:102B1000824240DD40F60000C4F20000824267D0ED
:102B200040F60040C4F20000824261D041F600004D
:102B3000C4F200005AE043F6FF70C4F20100824282
:102B40000EDD44F20000C4F20100824213D044F6CC
:102B50000000C4F2010082420DD044F2004006E0C1
:102B60000020C4F20100824205D040F20040C4F2CD
:102B70000100824248D141F2FF70516CC4F2000062
:102B8000824241F4004050640DDC40F2FF70C4F218
:102B90000000824215DCB2F1804F29D040F20040A3
:102BA000C4F2000022E040F2FF30C4F20100824291
:102BB00012DC41F60000C4F20000824218D000206E
:102BC00012E040F60000C4F20000824210D040F64D
:102BD0000040C4F2000009E044F20000C4F2010029
:102BE000824205D040F20040C4F2010082420BD183
:102BF00007219068C0F2010101400020062918BF9A
:102C0000B1F5803F00D180BD106840F00100106038
:102C1000002080BD00000000B0B541F20005044670
:102C2000C4F200050068A84201D1FDF709FD206843
:102C300005F58061884218BFB0BD45F23020C2F270
:102C40000040016801310160B0BD000000000000DB
:102C5000704700000000000090F88410012901D1A5
:102C6000022070472421C0F8881001680A680B68A8
:102C700022F0005223F001030B60002343660A6038
:102C80002021C0F8881080F88430002070470000B0
:102C900090F88420012A01D102207047B0B50123A9
:102CA00080F884302422C0F888200268D0F864E0DC
:102CB000BEF1000FD2F800C0146824F001041460C3
:102CC000946824F0606441EA040191601BD091682B
:102CD00045F6046E9368C0F6000E5B0F45F60C6572
:102CE000C1F34261C0F600051EF80340EB5C24010D
:102CF000B4FBF3F3A0F86A301EF80130695C1B01E5
:102D0000B3FBF1F301E0A0F86A30A0F868302021AD
:102D1000C2F800C0C0F88810002180F8841000209C
:102D2000B0BD00000000000090F88420012A01D10D
:102D300002207047B0B5012380F884302422C0F807
:102D400088200268D0F864E0BEF1000FD2F800C01D
:102D5000146824F001041460946824F0604441EA8B
:102D6000040191601BD0916845F6046E9368C0F62B
:102D7000000E5B0F45F60C65C1F34261C0F600051D
:102D80001EF80340EB5C2401B4FBF3F3A0F86A30B7
:102D90001EF80130695C1B01B3FBF1F301E0A0F800
:102DA0006A30A0F868302021C2F800C0C0F888104E
:102DB000002180F884100020B0BD00000000000059
:102DC00010B5D8B10446D0F8880028B9002084F89E
:102DD0008400204600F028F82420C4F888002068E9
:102DE000A16A0268002922F00101016002D0204698
:102DF00000F0CAFD204600F097FE08B1012010BD8A
:102E00002068416821F490414160816821F02A01E5
:102E10008160016841F0010101602046BDE8104079
:102E200000F022BE00000000B0B5B8B0044602A811
:102E3000C0210025CDE93655CDE934553395FDF750
:102E400083FA41F200012068C4F20101884201D0F6
:102E500038B0B0BD0120029002A803952195FDF77E
:102E600093FE08B1FDF7E0FA44F2E040C5F6020037
:102E7000016941F010010161016901F01001019146
:102E80000199016841F002010160006833A900F076
:102E90000200019001984FF440403390022034909A
:102EA0000020CDE935000420379040F20040C5F6FF
:102EB0000200FDF7D1FA38B0B0BD000000000000FC
:102EC0002DE9F04381B00446D0F88800202808D1CD
:102ED00088460120002918BF002A06D101B0BDE8AC
:102EE000F083022001B0BDE8F0831D460020C4F845
:102EF00090002120C4F888001646FDF799FBA4F83D
:102F00005460A4F856600646A168B1F5805F02D10E
:102F10002069002851D0C1464FF00008B4F856008F
:102F200058B36F1C0EE0B9F1000F1DD0206819F8DE
:102F3000011B8162B4F856000138A4F85600B4F8B9
:102F40005600D0B12068C0690006ECD4002FF9D03B
:102F5000FDF76EFB01464FF0030045B3891BA94204
:102F600025D820680068EDE738F8020B21684FF09B
:102F700000096FF35F208862DCE72068C0694006C3
:102F800014D46F1C04E000BF2068C06940060DD453
:102F9000002FF9D0FDF74CFB01464FF0030035B18F
:102FA000891BA94203D820680068EDE70020202192
:102FB000C4F8881001B0BDE8F0834FF00009ADE718
:102FC000FEE700000000000070B586B0002005900C
:102FD000CDE90300CDE9010044F2E0400024C5F64C
:102FE0000200C5F60204012202250168012641F013
:102FF00004010160016801F0040100910099016879
:1030000041F080010160016801F0800100910099A8
:10301000016841F001010160016801F001010091C6
:103020000099016841F010010160016801F0100190
:1030300000910099016841F00201016000680221DD
:1030400000F00200009000982046FDF7E1FA03200E
:10305000049001A92046CDE901560396FDF7FCF93D
:103060004FF000700021FFF72BF806B070BD000094
:10307000B0B59CB0002501A82C2100241594C4F201
:103080000105CDE91344CDE91144CDE90F44CDE963
:103090000D440C94FDF758F940F21800C721C2F214
:1030A00000400560C0E9011440F2E7314461C0E925
:1030B000031480218161FFF793FC08B1FDF7B4F997
:1030C00040F2180013A9C2F200401594CDE9134450
:1030D000FFF762F808B1FDF7A7F960200C904FF4F4
:1030E000FA700D9040F218000CA9C2F200400022C4
:1030F00000241294CDE90E44CDE91044FFF720FAE4
:1031000008B1FDF791F905944FF40050CDE903445F
:10311000CDE90144CDE9060408944FF00070CDE9F3
:1031200009040B9440F21804C2F2004401A920469D
:10313000FEF7DEFF08B1FDF777F921680020A9420C
:103140001B90CDE919001890179001D01CB0B0BDAC
:1031500044F2E041C5F602010A6842F010020A603A
:10316000096801F01001169116994FF4007117913A
:103170000221CDE918101A9001201B9041F20000A5
:10318000C5F6020017A9FDF767F91CB0B0BD000035
:1031900010B584B040F2B00041F20041C2F20040EC
:1031A00000240394C4F20001CDE90144016013211D
:1031B000C0E901144FF4FA71C16080218161FFF709
:1031C00053F808B1FDF730F940F2B00001A9C2F29E
:1031D000004001940394FEF7DFFF08B1FDF724F9E6
:1031E00004B010BD0000000080B540F2FC0041F2C8
:1031F0000001C2F20040C4F201010C2201604FF450
:10320000612141600021C0E902110161C0E905218D
:10321000C0E90711C0E90911FFF7D2FD08B1FDF7B8
:1032200003F940F2FC000021C2F20040FFF77CFDF0
:1032300008B1FDF7F9F840F2FC000021C2F20040AD
:10324000FFF726FD08B1FDF7EFF840F2FC00C2F2EF
:103250000040FFF701FD002808BF80BDBDE88040A9
:10326000FDF7E2B800000000FEE7000000000000EB
:10327000FEE700000000000040F2180945F64C6B24
:1032800045F6906A45F6536445F6636545F614685D
:103290000026C2F20049C0F6000BC0F6000AC0F6D4
:1032A0000004C0F60005C0F6000800BF45F67367CD
:1032B000C0F6000706EB860040F2E732410091427B
:1032C00040F2E731D9F8002038BF41005846516339
:1032D0005146224602F084FB2846314602F080FB2C
:1032E0004046394602F07CFB322001F00DFD0136EC
:1032F000652EDFD164264FF47A7700BF40F2E730C5
:10330000D9F800108742224638BF384648635846ED
:10331000514602F065FB2846314602F061FB45F656
:1033200073614046C0F6000102F05AFB322001F002
:10333000EBFC0A3FA6F10106E0D10026B6E700004B
:10334000EFF30980BFF36F8F154B1A681EF0100F53
:1033500008BF20ED108A20E9F04F10602DE9090028
:103360004FF0500072B680F31188BFF34F8FBFF358
:103370006F8F62B601F068FF4FF0000080F3118894
:10338000BDE8090019680868B0E8F04F1EF0100F9A
:1033900008BFB0EC108A80F30988BFF36F8F7047C5
:1033A0009001002400000000F0B581B044F22C47E9
:1033B000C5F6020757F8042C02F00302032A02D1D3
:1033C000012001B0F0BD054657F82C0C0C4620F04A
:1033D000806047F82C0CFDF72BF9064657F82C0CAB
:1033E000000105D5FDF724F9801B0228F6D964E019
:1033F00057F8040CEE6895E80E0020F47C30012CA0
:1034000040EA0130A2F101016FF35F214FF47E42E7
:1034100002EB432247F8040C92B24FF0FE4302EB5A
:1034200001004FF4FE012A6901EB064101F4FE019F
:1034300003EB0262084402F0FE410844F860386879
:10344000696920F0C00040EA010038603868A96965
:1034500020F0200040EA0100386038684FF6F8712B
:1034600020F0100038603869EA6920EA01004FF462
:10347000001140EAC2003861386808BF4FF480117B
:1034800040F01000002C386008BF4FF4002138686D
:103490000843386057F82C0C40F0806047F82C0C3B
:1034A000FDF7C6F8044600BF57F82C0C000107D4FE
:1034B000FDF7BEF8001B0328F6D3032001B0F0BDD2
:1034C000002001B0F0BD0000F0B581B044F22C47FF
:1034D000C5F6020757F8042C02F00302032A02D1B2
:1034E000012001B0F0BD054657F82C0C0C4620F029
:1034F000805047F82C0CFDF79BF8064657F82C0C2B
:10350000800005D5FDF794F8801B0228F6D964E009
:1035100057F8040CEE6895E80E0020F07C70012C42
:1035200040EA0150A2F101016FF35F214FF47E42A6
:1035300002EB432247F8040C92B24FF0FE4302EB39
:1035400001004FF4FE012A6901EB064101F4FE017E
:1035500003EB0262084402F0FE41084478613868D7
:10356000696920F4406040EA010038603868A96960
:1035700020F4007040EA0100386038684FF6F871B6
:1035800020F480703860B869EA6920EA01004FF0E1
:10359000807140EAC200B861386808BF4FF400018A
:1035A00040F48070002C386008BF4FF48001386808
:1035B0000843386057F82C0C40F0805047F82C0C2A
:1035C000FDF736F8044600BF57F82C0C800007D4EE
:1035D000FDF72EF8001B0328F6D3032001B0F0BD41
:1035E000002001B0F0BD000000000000000000005D
:1035F000074B19680868B0E8F04F80F30988BFF3FB
:103600006F8F4FF0000080F31188704700BF00BF3C
:1036100090010024000000000024C5F6020400BF51
:1036200002212046FCF7ECFF4FF4FA7001F06CFB2E
:10363000F6E700000000000080B54FF0500072B6C1
:1036400080F31188BFF36F8FBFF34F8F62B602F024
:1036500023F830B14EF604504FF08051CEF2000006
:103660000160002080F3118880BD00000000000090
:10367000B0B59CB044F6180409A84C21C5F6020464
:10368000FCF762FE02200025CDE90755CDE905557E
:10369000CDE90355CDE90155FDF71EF940F22C4067
:1036A0000095C5F60000016821F001010160006885
:1036B00000F001000090206840F440402060206845
:1036C00000F440400090009820688004FCD5012060
:1036D00009904FF480300A9002201490CDE9120036
:1036E00040240421CDE91540CDE917100C20199094
:1036F00009A80025CDE91A55FEF7CAF918B1EFF36C
:10370000108072B6FEE73F20019003200221CDE930
:10371000020508200694CDE904044FF48060CDE949
:10372000070401A8FDF74CFF18B1EFF3108072B643
:10373000FEE71CB0B0BD00004EF6885042F2000C0F
:10374000CEF20000C5F2002C016841F47001016066
:10375000DCF8000000F00F00062806D8DCF80000B6
:10376000072161F30300CCF8000044F200404EF65C
:103770007F52C5F60200CEF6F622016841F0010143
:1037800001600021016103681A400260DCF800203A
:10379000120706D5DCF80020072363F30302CCF8F8
:1037A000002040F200228161C161C0F20222016268
:1037B00082620022C0F2FF12C26240F28022C0F296
:1037C0000112026341638263C1630264416402685F
:1037D00022F48022026041F200020166C5F6004236
:1037E0001268B1EB527F05D148F208110122C5F2EF
:1037F00000110A60D0F8D410C90448BF7047D0F84F
:10380000D41043F2D20241F48051C0F8D41044F2F3
:103810000001C5F200210A60D0F8D41021F48051D3
:10382000C0F8D4107047000040F26400C2F20040BB
:10383000FEF7CEBD0000000040F2B000C2F2004032
:10384000FEF7C6BD0000000040F6FF32C4F20002E1
:10385000904202680FDCB0F1804F1DD040F200436F
:10386000C4F20003984217D040F60003C4F20003EC
:10387000984211D014E040F60043C4F2000398428D
:103880000AD040F20043C4F20103984204D000235E
:10389000C4F20103984203D122F070024B681A432C
:1038A0004FF6FF7343F6FF7CC4F20003C4F2010C31
:1038B000984210DD604527DD44F20003C4F20103A5
:1038C00098422CD044F60003C4F20103984226D05B
:1038D00044F200431FE040F2FF73C4F20003984239
:1038E00007DCB0F1804F1AD040F20043C4F200036D
:1038F00013E040F60003C4F2000398420FD040F6F4
:103900000043C4F2000308E00023C4F2010398421C
:1039100005D040F20043C4F20103984203D122F4DF
:103920004072CB681A4310B5D1F814E060450B68BB
:103930008C68C46283620EDD44F20003C4F20103AA
:10394000984213D044F60003C4F2010398420DD00C
:1039500044F2004306E00023C4F20103984205D07C
:1039600040F20043C4F20103984201D109690163A6
:10397000016841F0040101600121416122F08001F0
:1039800041EA0E01016010BD816A0A070CD4CA0722
:1039900015D18A071ED44A0727D4CA0630D48A060E
:1039A00039D44A0642D454E00268D0F838C053688B
:1039B00023F4004343EA0C035360CA07E9D00268CA
:1039C000D0F82CC0536823F4003343EA0C0353604F
:1039D0008A07E0D50268D0F830C0536823F48033FA
:1039E00043EA0C0353604A07D7D50268D0F834C0C5
:1039F000536823F4802343EA0C035360CA06CED5F0
:103A00000268D0F83CC0936823F4805343EA0C0367
:103A100093608A06C5D50268D0F840C0936823F445
:103A2000005343EA0C0393604A0612D50268D0F8AB
:103A300044C0BCF5801F536823F4801343EA0C0391
:103A4000536006D1536823F4C00C836C43EA0C0323
:103A50005360090658BF70470168C06C4A6822F479
:103A60000022104348607047B0B582B00446002081
:103A7000C4F89000FCF7DCFD2168054609680907D9
:103A800018D54FF4001100226FF07E4000902046C0
:103A90002B4600F06DFA68B1206850E8000F2168ED
:103AA00020F0800041E80002002AF5D10320202107
:103AB000882230E020680068400723D54FF4800159
:103AC00000226FF07E40009020462B4600F050FA16
:103AD000C0B100BF206850E8000F216820F490704A
:103AE00041E80002002AF5D1206850E8020F216861
:103AF00020F0010041E80202002AF5D10320202134
:103B00008C2208E02020C4F88800C4F88C00002132
:103B100070220020E166A150002184F8841002B0D8
:103B2000B0BD000000000000F0B583B0044603689B
:103B3000806846F6F315D4E9031210436269104316
:103B4000E2691E68CCF6FF75104306EA05021043D1
:103B5000186058684FF2FF4620F4405240F600408B
:103B600011435960C5F60000A1698342C1F2FF16F6
:103B70001CBF226A11439A6847F2FF753240C4F2B3
:103B8000000511439960DA6A44F2544122F00F02B1
:103B9000666AC5F602013243AB42DA624FF0800238
:103BA0001DDD40F6FF76C4F20106B3422FDD8342ED
:103BB00045D041F20046C4F20106B34205D041F2BD
:103BC0000006C4F20106B34242D10A68C2F3C2023F
:103BD000062A3CD245F6D053C0F600032CE044F64A
:103BE000FF36C4F20006B34208DC44F20046C4F2D9
:103BF0000006B34217D044F6000610E044F6004633
:103C0000C4F20006B3420ED045F2000607E047F6C4
:103C10000006C4F20006B34205D047F60046C4F2DF
:103C20000006B34214D10A6802F00702062A0ED237
:103C300045F6D653C0F600031A44127808E04A68E5
:103C400002F00702062A02D20FF21C33F4E78022A8
:103C50002368834240F60010C0F23D0000F04F8020
:103C6000E369B3F5004F40F06480402A00F2FC8025
:103C70000027DFE812F041002101F900F9002701D7
:103C8000F900F900F9002F01F900F900F900F90035
:103C9000F900F900F900FF00F900F900F900F90056
:103CA000F900F900F900F900F900F900F900F9004C
:103CB000F900F900F9003401F900F900F900F90000
:103CC000F900F900F900F900F900F900F900F9002C
:103CD000F900F900F900F900F900F900F900F9001C
:103CE000F900F900F900F900F900F900F900F9000C
:103CF000F900F900F9001B01FDF7DEFDEFE0931E6E
:103D00001E2B00F260800027DFE803F0106374636D
:103D1000636378636363636363636663636363635B
:103D2000636363636363636363637D00FCF7F8FD50
:103D300069E0402A00F29B800027DFE812F0410092
:103D4000C00098009800C700980098009800ED0007
:103D50009800980098009800980098009800A90092
:103D60009800980098009800980098009800980093
:103D70009800980098009800980098009800F20029
:103D80009800980098009800980098009800980073
:103D90009800980098009800980098009800980063
:103DA0009800980098009800980098009800980053
:103DB0009800980098009800980098009800BA0021
:103DC000FDF77AFDADE0402A03D14FF40040002713
:103DD00019E00020012716E051F8540C800649F242
:103DE0000000C0F2D0300ED551F8541CC1F3C1010F
:103DF000C84008E06846FCF7A7FD02E06846FCF70B
:103E000033FE00270198002800F0A280616A45F681
:103E1000EC52C0F60002656832F8112005EB45014E
:103E2000B0FBF2F38B424FF00101C0F094802E03FF
:103E3000B34200F2908000210023FCF74DFA090202
:103E4000002341EA10612A46000210EB550041F1BF
:103E50000001FCF741FA4FF60052A0F54071C0F2A4
:103E60000F02914272D375E00020012737E0002055
:103E7000012756E051F8540C800649F20000C0F2C8
:103E8000D0302CD551F8541CC1F3C101C84026E0F4
:103E900051F8540C800649F20000C0F2D03040D5F1
:103EA00051F8541CC1F3C101C8403AE04FF400403E
:103EB00015E04FF4004034E0FDF72EFD0FE0FDF774
:103EC0002BFD2EE06846FCF73FFD06E06846FCF758
:103ED0003BFD24E06846FCF7C7FD00270198B8B316
:103EE000616A45F6EC52C0F6000232F811106268C1
:103EF000B0FBF1F0510801EB4000B0FBF2F0A0F193
:103F000010014FF6EF72914224D84FF6F071014044
:103F1000C0F34200084419E06846FCF7A5FD0027FD
:103F20000198A8B1616A45F6EC52C0F6000232F879
:103F300011106268B0FBF1F000EB5200B0FBF2F040
:103F4000A0F110014FF6EF72914203D82168C860CA
:103F5000394600E001214FF00110A0660020C4E9BD
:103F60001D00084603B0F0BD020408102040000008
:103F70002DE9F04381B004460068C0690840401A4A
:103F8000B0FA80F04009824257D1DDF820800D461A
:103F90001646994608F1010709E000BF2068C0698C
:103FA0002840401BB0FA80F04009864245D1002FDE
:103FB000F4D0FCF73DFBB8F1000F01464FF00300D1
:103FC0003CD0A1EB0901414538D820680168490778
:103FD000E4D5402D18BF802DE0D0C169090730D449
:103FE000C1690905DAD54FF400610162206850E823
:103FF000000F216820F4907041E80002002AF5D1FA
:104000004FF6FE70CEF6FF70216851E8021F22685D
:10401000014042E80213002BF6D1E06E012809D1DD
:10402000206850E8000F216820F0100041E80002ED
:10403000002AF5D1032020212CE0002001B0BDE8AA
:10404000F0830821016200BF206850E8000F21685A
:1040500020F4907041E80002002AF5D14FF6FE707E
:10406000CEF6FF70216851E8021F2268014042E845
:104070000213002BF6D1E06E012809D1206850E828
:10408000000F216820F0100041E80002002AF5D15D
:10409000012008212022C4F88C200022E2666267F9
:1040A000C4F8901084F8842001B0BDE8F0830000CB
:1040B000FEE7000000000000ADF5007D45F6196840
:1040C00045F614676C46C0F6000819A6C0F600074E
:1040D00027A500BF2046FCF742F901462046FCF721
:1040E00033F9404601F062FE304601F05FFE4FF6C4
:1040F000FF71204600F0B8FF3846214601F070FC01
:104100002046FCF72CF901462046FCF71DF928460D
:1041100001F04CFE4FF6FF71204600F011FF3846CB
:10412000214601F05DFC4FF4FA6000F0EDFDD1E7AF
:10413000E4BBBBE58AA1E5908D202020202020E46F
:10414000BBBBE58AA1E78AB6E6808120E4BC98E59E
:104150008588E7BAA7202020E589A9E4BD99E6A0D3
:104160008820E4BBBBE58AA1E5BA8FE58FB70D00D7
:104170000D0AE4BBBBE58AA1E5908D20202020201C
:104180002020E8BF90E8A18CE8AEA1E695B0202001
:1041900020202020202020E4BDBFE794A8E78E87C0
:1041A0000D0000000000000080B582B0019040F2D8
:1041B000FC00C2F2004001A901224FF0FF33FEF7DC
:1041C0007FFE019802B080BD86B00024CDE9044492
:1041D000CDE90244FCF7FCFA48F21F70049040F26B
:1041E0000110059002A80125ADF808500394FCF7D2
:1041F000BFFA0420FCF7FCFAFCF732FAFFF738FAB2
:10420000FEF7E2FEFEF7F0FFFEF7C2FFFEF730FF1B
:1042100040F2B000C2F20040FEF77AF840F2180017
:104220000021C2F20040FEF727FC31A001F0BEFDE4
:1042300045F6736445F64C6845F61467C0F600040D
:104240000FF2C00B0FF2C809C0F6000833A6C0F683
:10425000000717E068B26FF0030101EB80005BF824
:10426000002059F80010404601F0BAFB304601F03A
:10427000B7FB3846214601F0B3FBBAF1030F05F155
:1042800001050AD25FFA85FABAF1030FE2D945F6C1
:1042900097622146C0F60002E5E743F2196024A1C7
:1042A000C0F600004FF48072002300240125CDE900
:1042B000005401F0EDF844F2B90020A1C0F600006E
:1042C0004FF480720023CDE9005401F0E1F843F28D
:1042D00079201DA1C0F600004FF480720023022750
:1042E000CDE9007401F0D4F800F04EFFFEE700BF06
:1042F00048656C6C6F20E9BB98E8AEA4E8BE93E516
:1043000087BA0D005B5E0008575E00085F5E00081C
:10431000805E0008785E0008885E00086C6F672089
:10432000E8BE93E587BAE6B58BE8AF9500000000DC
:1043300053746172745461736B0000005573617241
:10434000745461736B00000050574D5461736B00DF
:1043500045F2482540F2A01A4EF6045845F2D427FB
:1043600045F24426C2F20045C2F2004ACEF20008ED
:104370004FF08059C2F20047C2F2004615E000BF7C
:1043800000F0CAFBF868C468201D00F06DF93068C1
:104390000138306028680138286000F0E9FB206BA4
:1043A00000F002FC204600F0FFFB28680028E7D15F
:1043B000DAF800000228F8D3C8F80090BFF34F8F56
:1043C000BFF36F8FF1E7000008480068006880F3D2
:1043D00008884FF0000080F3148862B661B6BFF31E
:1043E0004F8FBFF36F8F00DF00BF000008ED00E0CC
:1043F00081B00020009040F21400C2F2004000683A
:104400004FF0500172B681F31188BFF36F8FBFF385
:104410004F8F62B6013001D0FEE700BF0098002840
:10442000FCD001B070470000F0B581B000F1080584
:10443000092D06D310F0070104D009398D4240F24E
:104440009880002500F0F8FE40F2981E45F2802C7E
:10445000C2F2004EC2F2004CDEF8000030BB40F267
:104460002C200023C2F20040420700F5A04200F1D8
:10447000070122F0070218BF21F0070045F2B8211A
:10448000A2F10804CEF80040C2F20041C1E90003E5
:1044900042E90233211A4160DEF80020026045F251
:1044A0008820CCF80010C2F200400160012D4FF0CE
:1044B0000004C0F2AD80DCF80000854200F2A88064
:1044C00045F2B82040F22C23C2F20040C2F2004371
:1044D0000168994221D344F6FF70184481421CD8E8
:1044E0004A680026AA4238BF012622D20F6807B3C5
:1044F00044F6FF701C1800BF9F42C0F05E80084663
:104500003946A74259D84A680026AA4238BF012630
:1045100013D20F68002FEFD10FE04FF0500072B6AA
:1045200080F31188BFF36F8FBFF34F8F62B600BF68
:10453000FEE745F2B820C2F20040DEF80070B94252
:104540001CD0076807F108049C4219D344F6FF7792
:104550003B449C4214D80B680360E6B14FF0500016
:1045600072B680F31188BFF36F8FBFF34F8F62B6BF
:10457000FEE720F0070000F1100563E7002447E0A4
:104580004FF0500072B680F31188BFF36F8FBFF306
:104590004F8F62B6FEE7521B112A1ED34F197E07BA
:1045A00017D04FF0500072B680F31188BFF36F8FB1
:1045B000BFF34F8F62B600BFFEE74FF0500072B6F8
:1045C00080F31188BFF36F8FBFF34F8F62B600BFC8
:1045D000FEE77A604D604B51076045F288204A68DB
:1045E000C2F20040DCF800309A1ACCF800200368D0
:1045F0009A4238BF02604868002240F00040C1E99A
:10460000002045F29420C2F20040016801310160AF
:1046100001F022F960070AD04FF0500072B680F323
:104620001188BFF36F8FBFF34F8F62B6FEE720464E
:1046300001B0F0BD0000000044F2F13321F00101AF
:1046400040F8081C4FF0807140F8041CA0F14401B0
:10465000C0F6000340F80C3C6FF0020340E9093259
:104660000846704700000000D0E9013201699A60F5
:10467000D0F808C04A6882424FF00002CCF80430FB
:1046800008BFC1F804C00B680261581E086070477B
:104690002DE9F04F85B045F24C23C2F200431F686C
:1046A00001371F6045F24423C2F200431B680290A9
:1046B00099424FF000000190C0F0EA8140F290165C
:1046C00000920720C2F200464FF00108002206E0E7
:1046D0004FF000090398049A00284A4461D0013839
:1046E000039040F2A011049200EB8000C2F200415E
:1046F00001EB800083465BF8081B0029E8D0D0F866
:104700000CA0DA45E4D002EBC20002994FF0000998
:1047100001EB800708E000BF0020DAF804A009F1EF
:104720000109DA452862D5D009EBC900DAF80C4056
:10473000002C08BF346807EB800504F134002C60BE
:104740006860D4E90B012861606CE961A860E06CE5
:104750006861606DA8613068844213D085F80C8070
:1047600000F0DAF945F2A021A06AC2F200418842C5
:1047700008BF85F80C8000F0FBF940F29016C2F2F9
:10478000004601E000202873206B0178A529C3D1E1
:1047900001300021435C4A1C1146A52BFAD0900839
:1047A000BBE740F29410C2F20040006804928046D9
:1047B00058F8081B002958D0C468444555D002EB6E
:1047C000C200029902274FF0000901EB800A06E0BF
:1047D0000020646809F101094445286247D009EBCB
:1047E000C900D4F80CB0BBF1000F08BFD6F800B078
:1047F0000AEB80050BF13400C5F800B06860DBE916
:104800000B012861DBF84400E961A860DBF84C008B
:104810006861DBF85400A8613068834514D02F73B9
:1048200000F07AF945F2A021DBF82800C2F200413D
:10483000884201D10120287300F09AF940F29016C5
:10484000C2F2004602E000BF00202873DBF830000F
:104850000178A529BCD10130002100BF435C4A1C6E
:104860001146A52BFAD09008B3E74FF0000940F2AB
:104870009C10C2F200400068044654F8081B00294E
:1048800004994944049160D0C568A5425DD001EB0C
:10489000C100029902274FF0000901EB800A07E0EE
:1048A00000206D6809F10109A542CBF820004ED027
:1048B00009EBC900D5F80C80B8F1000F08BFD6F895
:1048C00000800AEB800B08F13400CBF80080CBF8B5
:1048D0000400D8E90B01CBF81000D8F84400CBF85D
:1048E0001C10CBF80800D8F84C00CBF81400D8F80E
:1048F0005400CBF818003068804515D08BF80C7048
:1049000000F00AF945F2A021D8F82800C2F20041CF
:10491000884202D101208BF80C0000F029F940F206
:104920009016C2F2004602E000208BF80C00D8F886
:1049300030000178A529B3D101300021435C4A1C25
:104940001146A52BFAD09008ABE74FF0000945F2CD
:10495000D4200025C2F2004001680029049949448E
:10496000049162D0D0F80CA000F10804A2455CD0FC
:1049700004980427029900EBC00001EB800907E0CE
:104980000020DAF804A00135A245C8F820004CD078
:1049900005EBC500DAF80CB0BBF1000F08BFD6F884
:1049A00000B009EB80080BF13400C8F800B0C8F87B
:1049B0000400DBE90B01C8F81000DBF84400C8F87C
:1049C0001C10C8F80800DBF84C00C8F81400DBF82D
:1049D0005400C8F818003068834515D088F80C706A
:1049E00000F09AF845F2A021DBF82800C2F200415D
:1049F000884202D1012088F80C0000F0B9F840F29A
:104A00009016C2F2004602E0002088F80C00DBF8A5
:104A100030000178A529B3D101300021435C4A1C44
:104A20001146A52BFAD09008ABE745F2C02000262E
:104A3000C2F2004001680029049905EB010818D072
:104A4000C76800F10804A742DDF8009013D008EB16
:104A5000C800029901EB8005F8680122032329466A
:104A600000F0BEF97F680136A74205F12405F3D1B5
:104A700001E0DDF80090B9F1000F06EB08000190AD
:104A800006D045F23020C2F200400068C9F80000AC
:104A900000F0E2FE019805B0BDE8F08F00000000D4
:104AA00002464FF0FF3142F8081F0021C0E90322FF
:104AB000C0E900127047000000210161704700004A
:104AC00080B5D1F800C01CF1010207D000F1080345
:104AD0009E465B681A686245FAD901E0D0F810E09A
:104AE000DEF804204A60CEF804109160C1F808E0B6
:104AF000086101680131016080BD00000000000014
:104B0000DFF80C00016841F470010160704700009B
:104B100088ED00E0000000004FF0500072B680F316
:104B20001188BFF36F8FBFF34F8F62B640F214004E
:104B3000C2F200400168002901F10101016000D0CA
:104B400070474EF60450CEF200000068000608BF21
:104B500070474FF0500072B680F31188BFF36F8F2B
:104B6000BFF34F8F62B600BFFEE7000000000000F9
:104B700040F21400C2F20040016839B1013901600D
:104B800018BF7047002080F3118870474FF0500025
:104B900072B680F31188BFF36F8FBFF34F8F62B689
:104BA000FEE700000000000070B5002808BF70BDDF
:104BB00040F22C25A0F10804C2F20045AC4214D307
:104BC00044F6FF7129448C420FD850F8041C002988
:104BD00017D44FF0500072B680F31188BFF36F8F77
:104BE000BFF34F8F62B600BFFEE74FF0500072B6C2
:104BF00080F31188BFF36F8FBFF34F8F62B600BF92
:104C0000FEE722685AB14FF0500072B680F3118867
:104C1000BFF36F8FBFF34F8F62B600BFFEE721F087
:104C2000004140F8041C064600F006FB45F28021D6
:104C300045F2B823C2F20041324656F8040CC2F2E3
:104C400000430E6830440860194600BF08460968F2
:104C5000A142FBD3984206D0A84213D344F6FF7377
:104C60002B4498420ED84368C618A64204D152F885
:104C7000042C04461A4442606368E2188A420CD04D
:104C80000A4615E04FF0500072B680F31188BFF36A
:104C90006F8FBFF34F8F62B6FEE740F29812C2F2F9
:104CA00000421268914203D0D1E9002119446160A9
:104CB000A042226018BF046045F29820C2F2004072
:104CC000016801310160BDE8704000F0C5BD000021
:104CD0004EF210000021CEF2000044F6D352C1F291
:104CE00062020160816040F20401C2F20041096881
:104CF000A1FB02124FF0FF3101EB9211416007213D
:104D000001607047000000002DE9F041002857D0F5
:104D100045F24C21C2F200410A6801320A6009687A
:104D2000012931D1064645F2E820C2F2004040F2A6
:104D3000941140F29014C2F20041076840F29C10B6
:104D4000C2F20040C2F20044D1F800800568206839
:104D50000430FFF789FC60B9206845F25422C2F2A2
:104D600000420121C06A01FA00F0116821EA000046
:104D700010602068F6194660206800F104010ED327
:104D80002846FFF79DFE15E04FF0500072B680F305
:104D90001188BFF36F8FBFF34F8F62B6FEE74046B7
:104DA000FFF78EFE45F28C20C2F2004001688E4271
:104DB00038BF066000F050FD002818BFBDE8F08144
:104DC0004EF604504FF08051CEF200000160BFF368
:104DD0004F8FBFF36F8FBDE8F0810000000000002F
:104DE0002DE9F047054616460C4620B940F29010D2
:104DF000C2F200400568052B256005F134006060B3
:104E0000D5E90B012061686CE161E96CA060686D17
:104E10006161A06139D1002D77D040F29010C2F2CB
:104E20000040006885425AD0FFF776FE40F29410A9
:104E300040F29C11C2F20040C2F20041D5F814A029
:104E4000AF6AD0F80090D1F80080FFF791FE45F2EC
:104E5000A020C2F20040874263D00220CA4518BF9A
:104E6000C2453DD045F2C020C2F2004082455AD032
:104E700045F2D4210120C2F20041BAF1000F08BF6F
:104E800004208A4508BF04202AE040F29010C2F2B4
:104E900000400068854222D0032B237310D145F2D5
:104EA0004C20C2F20040016801310160A86A18B9C3
:104EB00095F85C00012801D10220207300F0CCFCA1
:104EC000FFF72AFE45F2A021A86AC2F200418842FB
:104ED00001D101202073FFF74BFE1EB911E0002025
:104EE000207376B1286B0178A5290AD10130002101
:104EF000435C4A1C1146A52BFAD090082062BDE8FD
:104F0000F08700202062BDE8F0874FF0500072B6B5
:104F100080F31188BFF36F8FBFF34F8F62B600BF6E
:104F2000FEE70120DCE7A86A08B10220D8E795F87F
:104F30005C100320012908BF0220D1E70000000017
:104F40002DE9F04F85B00646002004900C463070E5
:104F500045F24420C2F200400768006800EBC00040
:104F60008000FFF761FA00286ED004AA394602904B
:104F7000FFF78EFB049948F21F52C5F2EB12642929
:104F8000A1FB02234FEA531104915AD3002858D0B1
:104F9000A0F10109029800F118054FF00008611E08
:104FA000039100BF08F11000A04203D9012000289E
:104FB00040D046E055F8141C3046D5F800A0DDF886
:104FC00010B0FBF7D3F9FBF7CAF90E2807D833184E
:104FD000C0F10F0120221846FBF7AFF90F2008F1AE
:104FE0000F080399884506EB00074FF00001315484
:104FF00008D2D345A4EB08062B6807D938463146BA
:1050000016A209E001203E46A0B11AE0BAFBFBF06F
:105010000090384631460EA200F0F2FC0146B04244
:10502000A8BF711E00284FF0000048BF002188442F
:105030007E1830B9B9F1000FA9F1010905F1240575
:10504000B0D10298FFF7B0FD05B0BDE8F08F00BF0A
:105050000925750909257525250D0A0009257509F4
:10506000093C3125250D0A002DE9F04F85B0054694
:1050700000200C46287045F24420C2F20040066829
:10508000006800EBC0008000FFF7CEF9002865D073
:10509000002231460490FFF7FBFA002858D0A0F117
:1050A000010A0498A4F1010B00F110084FF0000967
:1050B00018F8040C042803D82AA151F8207000E045
:1050C000002709F11000A04202D90120C8B33FE037
:1050D00058F80C1C2846FBF749F9FBF740F90E2855
:1050E00007D82B18C0F10F0120221846FBF725F92D
:1050F0000F2009F10F092E18D9454FF0000129544E
:105100001CD2A4EB0905D8F80000D8F810103B46D3
:1051100058F8082C8DE807003046294616A200F002
:105120006FFC0146A842A8BF691E00284FF000008E
:1051300048BF00218944751818B109E0012035469F
:1051400030B9BAF1000FAAF1010A08F12408AFD171
:10515000049805B0BDE8F04FFFF726BD05B0BDE8E7
:10516000F08F00BF58000000520000004200000015
:105170005300000044000000092563092575092536
:10518000750925750D0A000080B586B044F24940C6
:1051900045F2842EC4F24C50029044F2513002A9E0
:1051A000C0F60000802200234FF0000C8DF80CC0E8
:1051B000C2F2004ECDE900CE00F06AF9411C2CD0BD
:1051C000012823D14FF0500072B680F31188BFF34D
:1051D0006F8FBFF34F8F62B645F28C20C2F2004052
:1051E0004FF0FF31016045F2B420C2F200400121CE
:1051F000016045F2E820C2F200400021016045F262
:105200003020C2F20040016000F086F845F6986058
:10521000C0F60000006806B080BD4FF0500072B6C6
:1052200080F31188BFF36F8FBFF34F8F62B600BF5B
:10523000FEE700000000000045F24C20C2F20040F2
:10524000016801310160704710B545F24C20C2F28F
:105250000040006830B145F2EC200121C2F200406C
:10526000016010BD45F2EC200021C2F2004045F281
:105270003824C2F2004440F2901C016045F2302014
:1052800045F23C21C2F20040C2F20041C2F2004CA1
:105290000068086008682368984208D9D1F800E0DF
:1052A000DCF80000AEEB0303426D1A444265086867
:1052B000206045F2542040F2A012C2F20040C2F237
:1052C00000420068B0FA80F0C0B2C0F11F0000EBED
:1052D000800152F8210088B102EB810101F108023E
:1052E000486840684860904201D1C8684860486892
:1052F000C068CCF80000DCF8000010BD4FF0500092
:1053000072B680F31188BFF36F8FBFF34F8F62B611
:10531000FEE700000000000070B584B04EF6205497
:1053200043F2F152CEF20004C0F6000254F8180C19
:10533000C16A91420BD04FF0500072B680F31188D1
:10534000BFF36F8FBFF34F8F62B600BFFEE743F22C
:105350004131806BC0F6000188420AD04FF0500006
:1053600072B680F31188BFF36F8FBFF34F8F62B6B1
:10537000FEE74EF200400021CEF20000019145F21E
:105380002C220178C2F200428DF80B10FF2101702F
:1053900001788DF803109DF8031011F05001117081
:1053A0005ED09DF8031001F05001502963D19DF9A2
:1053B0000310B1F1FF3F0BDC0199013101919DF820
:1053C000031049008DF803109DF903100029F3D450
:1053D0000199002508294FF0000106D001994FF4EA
:1053E000E062A2EB012101F4E06145F23422C2F255
:1053F000004211609DF80B100170206840F47F009E
:105400002060206840F07F40206044F8045CFFF793
:105410005FFC40F21406C2F200463560FFF770FBF5
:10542000D4F8140240F04040C4F81402FEF7CCFF58
:10543000FFF70AFF039530684FF0500172B681F311
:105440001188BFF36F8FBFF34F8F62B6013001D069
:10545000FEE700BF03980028FCD0002004B070BD18
:105460004FF0500072B680F31188BFF36F8FBFF317
:105470004F8F62B6FEE74FF0500072B680F311888E
:10548000BFF36F8FBFF34F8F62B600BFFEE7000020
:105490002DE9F04F81B097008146384698469246F4
:1054A0000E46FEF7C1FF70B105466020FEF7BCFF57
:1054B00030B160210446FAF747FF256334B96CE048
:1054C0002846FFF771FB0024002C66D0206BA52234
:1054D00039460A9DFAF731FF206B76B104F13401A9
:1054E000002200BFB35C8B54B35C1BB10F2A02F1E6
:1054F0000102F7D1002184F84310072D0BD34FF0A0
:10550000500072B680F31188BFF36F8FBFF34F8FD7
:1055100062B600BFFEE700EB8A0004F1040B04381A
:105520000B9F20F007065846E562E564FFF7C4FAD2
:1055300004F11800FFF7C0FAC5F10700A06130467A
:105540004946424624616462FFF776F8002F2060E6
:1055500018BF3C600CB3FFF7DFFA45F2442040F27D
:105560009016C2F20040C2F2004645F2B42A40F260
:10557000A0170168C2F2004A013101603168C2F22D
:10558000004779B1DAF80000002843D13068E16AB9
:10559000C06A884298BF34603CE04FF0FF3001B0F1
:1055A000BDE8F08F34600068012833D1002500BFCA
:1055B0007819FFF775FA14358C2DF9D145F2582872
:1055C000C2F200484046FFF76BFA45F26C29C2F27E
:1055D00000494846FFF764FA45F2A020C2F20040B5
:1055E000FFF75EFA45F2D420C2F20040FFF758FA06
:1055F00045F2C020C2F20040FFF752FA40F2941088
:10560000C2F20040C0F8008040F29C10C2F200409C
:10561000C0F8009045F25020C2F20040016801310C
:105620000160E06A6164012100EB800201FA00F090
:1056300045F25421C2F2004107EB82050B68184382
:1056400008606868A06065618168E1608168C0F891
:1056500008B057F82200C1F804B0013047F8220022
:10566000FFF786FADAF8000078B13068E16AC06ABC
:1056700088420AD24EF604504FF08051CEF200001C
:105680000160BFF34F8FBFF36F8F012001B0BDE802
:10569000F08F0000000000002DE9F04F45F24C2093
:1056A000C2F20040006848B145F29C20C2F20040BE
:1056B0000168013101600020BDE8F08F45F2E8206B
:1056C000C2F20040016811F1010EC0F800E02FD3D2
:1056D00040F29410C2F20040026812685AB14FF0D2
:1056E000500072B680F31188BFF36F8FBFF34F8FF6
:1056F00062B600BFFEE740F29C130268C2F20043AC
:105700001F6807601A6045F29022C2F200421368D7
:1057100001331360026812681AB10068C06800683B
:1057200001E04FF0FF3045F28C22C2F200421060DF
:1057300045F28C2140F2A018C2F20041C2F20048AA
:105740000868864501D200206FE040F2941A4FF0BD
:105750000009C2F2004ADAF800000068002859D0B7
:1057600045F2542B0020C2F2004B25E0FC6A0122D6
:10577000A240DBF8003004EB84011A43CBF8002090
:1057800008EB81067E617268BA609368FB6093687B
:10579000956058F82120013248F8212040F29011FC
:1057A0005D60C2F200410968C96ADAF800208C42E3
:1057B00088BF0120116889B3DAF80030DB68DF6840
:1057C0003D4655F8043F9E452AD3D7E902647B69DC
:1057D000B460FC68D3F804C0AC45666008BF5C6088
:1057E000BC6A1E68002CC7F81490A6F101061E6062
:1057F000BCD0D7E9076307F118016268B3608A4239
:105800003B6A5E6008BF63602168C7F82890013971
:105810002160ABE74FF0FF33002005E04FF0FF338E
:1058200045F28C21C2F200410B6040F29011C2F2AD
:1058300000410968C96A01EB810158F8211001296A
:1058400045F2EC21C2F2004188BF0120096800291D
:1058500018BF0120BDE8F08F2DE9F04F81B0FFF7B0
:105860005BF945F24C20C2F20040016859B1016871
:1058700001390160006890B10024FFF779F92046F2
:1058800001B0BDE8F08F4FF0500072B680F3118880
:10589000BFF36F8FBFF34F8F62B600BFFEE745F2D5
:1058A0004420C2F2004000680028E5D045F2A02A5A
:1058B00045F2EC29C2F2004A40F29018C2F20049C7
:1058C000C2F20048DAF80010002964D045F2542BE7
:1058D00040F2A0144FF0000C4FF0010EC2F2004B4A
:1058E000C2F20044DAF80C10CE6806F11802D6E9CC
:1058F0000715B76A8D60356A78689042696008BF9D
:105900007D603868C6F828C001383860371DD6E990
:10591000020175698160F1686A68BA42486008BF2F
:105920006960F06A29680139296000EB8002DBF8C0
:1059300000500EFA00F104EB82032943CBF800106B
:105940005968B16073618D68F5608D688F6054F837
:1059500022106F60013144F82210D8F80010C96A93
:10596000884288BFC9F800E0DAF800000028B9D101
:105970008EB140F29410C2F200400168096819B17A
:105980000068C068006801E04FF0FF3045F28C21EC
:10599000C2F20041086045F29C24C2F2004425682E
:1059A00055B10126FFF778FE002818BFC9F800603E
:1059B000013DF7D100202060D9F8000000283FF415
:1059C0005BAFD8F800004EF60450CEF200004FF066
:1059D000805101240160BFF34F8FBFF36F8F4CE7FD
:1059E0000FB4054B10B503A9044A029800F032F831
:1059F00010BC5DF814FB0000A94100080000002461
:105A00000FB47CB50C0009AD01D0611E00E000218F
:105A1000CDE90001064B6A462946089800F01AF8BD
:105A2000002C02D0009A002111707CBC5DF814FBA0
:105A3000975D000802E008C8121F08C1002AFAD1C9
:105A400070477047002001E001C1121F002AFBD1FE
:105A5000704700002DE9FF4F8BB0884605460026B1
:105A600006E025280BD0DDE90D1290476D1C761C51
:105A700028780028F5D10FB03046BDE8F08F00241B
:105A8000A146A2460122AE4900E0044315F8013FB9
:105A9000203B02FA03F00842F7D128782A2810D0D8
:105AA0006FF02F022878A0F13001092915D809EBF1
:105AB000890102EB410144F0020400EB01096D1C75
:105AC000F0E758F8041B5FEA010903D544F40054D9
:105AD000C9F1000944F002046D1C28782E2817D162
